:020000040800F2
:10000000781F0020ED010008B135000839300008E4
:1000100005320008C1070008A940000800000000E0
:100020000000000000000000000000003136000861
:10003000C507000800000000C1350008B5360008FB
:10004000070200080702000807020008070200086C
:10005000070200080702000807020008070200085C
:10006000070200080702000807020008070200084C
:10007000070200080702000807020008070200083C
:10008000070200080702000807020008070200082C
:1000900007020008D5070008E1070008070200086A
:1000A000070200080702000807020008070200080C
:1000B0000702000807020008E936000807020008E6
:1000C00007020008070200080702000807020008EC
:1000D000070200089D400008070200080702000808
:1000E00007020008070200080702000807020008CC
:1000F00007020008070200080702000807020008BC
:1001000007020008070200080702000807020008AB
:10011000070200080702000807020008070200089B
:10012000070200080702000807020008070200088B
:10013000070200080702000807020008070200087B
:10014000070200080702000807020008070200086B
:10015000070200080702000807020008070200085B
:10016000070200080702000807020008070200084B
:10017000070200080702000807020008070200083B
:10018000070200080702000807020008070200082B
:100190000702000800000000ED070008F90700084A
:1001A000070200080702000807020008070200080B
:1001B00007020008070200080702000807020008FB
:1001C00007020008070200080702000807020008EB
:1001D0000702000807020008DFF80CD000F06EFAF2
:1001E00000480047CD400008781F0020064880479F
:1001F00006480047FEE7FEE7FEE7FEE7FEE7FEE70C
:10020000FEE7FEE7FEE7FEE7D5360008D901000865
:100210002DE9F05F0546002092469B46884606463B
:10022000814640241BE0284641464746224600F0CE
:100230007CF853465A46C01A914110D311461846CD
:10024000224600F063F82D1A67EB01084F4622465C
:100250000120002100F05AF817EB00094E41201E42
:10026000A4F10104DFDC484631462A464346BDE896
:10027000F09F40EA01039B0703D009E008C9121F61
:1002800008C0042AFAD203E011F8013B00F8013B50
:10029000521EF9D27047D2B201E000F8012B491E7C
:1002A000FBD270470022F6E710B513460A46044613
:1002B0001946FFF7F0FF204610BD00F0004230F075
:1002C00000400AD0C10D01F56071C0F3160042EA8A
:1002D0000151C20840071143704700200146704792
:1002E00030B50B46014600202022012409E021FA06
:1002F00002F59D4205D303FA02F5491B04FA02F503
:100300002844151EA2F10102F1DC30BD202A04DBD5
:10031000203A00FA02F1002070479140C2F1200318
:1003200020FA03F3194390407047202A04DB203A57
:1003300021FA02F00021704721FA02F3D040C2F105
:10034000200291400843194670472DE9FE4F804630
:1003500081EA0300C00F0C46009021F0004123F019
:100360000045B8EB0200A94105D24046214690461F
:100370001C460B46024623F00040104347D0270D91
:10038000C7F30A00C3F30A510290401A01904028B3
:100390006BDAC3F3130040F4801B0098924620B13F
:1003A0000023D2EB030A63EB0B0B01985946C0F113
:1003B00040025046FFF7AAFF06460D4650465946F2
:1003C000019A00F08DF910EB08006141002487EAE2
:1003D000115284EAE7731A4340D0009A62B3019A3B
:1003E000012A4FEA075215DC001B61EB02014FF0B6
:1003F000004202EA0752CDE90042001C41F580119B
:1004000032462B4600F08DF903B0BDE8F08F404630
:100410002146F9E7001B61EB0201001C41F5801346
:1004200000185B412018A2F5001747EB030140EAD2
:10043000D570B6196D4111E06D084FEA360645EAF0
:10044000C0754FEA0752001B61EB0201001C41F529
:10045000801149084FEA30000019514132462B46BD
:1004600003B0BDE8F04F00F04DB900980122400004
:100470000023D0EB020263EBE073009821464FEAC1
:10048000E074B8EB000061EB0401E9E783F000439E
:100490005BE781F0004158E72DE9FE4F81EA030454
:1004A00004F0004421F0004100944FF0000B23F0D1
:1004B000004350EA01045ED052EA03045BD0C3F368
:1004C0000A54C1F30A552C44A4F2F3340194A0FB5E
:1004D0000254C1F3130141F48011C3F3130343F435
:1004E000801301FB024400FB034E840A970A44EA8E
:1004F000815447EA8357A4FB076802958D0A05FBE0
:1005000007854FEA932C04FB0C542705029D4FEA04
:10051000065847EA1637B5EB08056EEB070C870E51
:10052000920E47EA811742EA8312A7FB0201B6EB5B
:100530000B0164EB00042B0D43EA0C335E1844EB13
:100540001C50DA465146E7FB0201C5F313044FEA9B
:100550000B3343EA14534FEA0432019C43EA060387
:10056000A4F10C040294009CCDE900B400F0D9F889
:1005700003B0BDE8F08F00200146F9E72DE9F04D0A
:1005800081EA030404F0004B21F0004514464FF0CB
:10059000000A23F0004150EA050220D054EA01028B
:1005A0001DD0C5F30A570246C5F31303C1F3130068
:1005B000C1F30A5640F4801543F48013A7EB0608F4
:1005C000101BD64608F2FD3873EB050002D308F184
:1005D000010801E092185B41B8F1000F03DA002036
:1005E0000146BDE8F08D00204FF480110646844698
:1005F0000EE0171B73EB050705D3121B63EB050316
:1006000006434CEA010C49084FEA300092185B415E
:1006100050EA0107EDD152EA030012D082EA040049
:1006200083EA0501084305D0101BAB4106D2012225
:10063000002306E000224FF0004302E06FF00102C9
:1006400053101AEB06004CEB085110EB0A0041EB7B
:100650000B01BDE8F04D00F055B8C1F30A52C1F3EB
:10066000130140F2FF3341F480119A4202DA002074
:100670000146704740F233439A42A2F2334202DC11
:100680005242FFF752BEFFF741BE000030B5041ED4
:1006900071F1000404DB4FF00044404264EB0101BF
:1006A000141E73F1000405DB1C464FF00043524258
:1006B00063EB0403994208BF904230BD064C074DDE
:1006C00006E0E06840F0010394E807009847103422
:1006D000AC42F6D3FFF784FDE06E0008006F00081F
:1006E000202A06DBCB17203A41FA02F043EAE073F6
:1006F00006E041FA02F3D040C2F1200291400843E3
:100700001946704710B5141E73F1000408DA401C36
:1007100041F1000192185B411A4301D120F0010020
:1007200010BD2DE9F04D92469B4611B1B1FA81F210
:1007300002E0B0FA80F220329046FFF7E7FD04466F
:100740000F4640EA0A0041EA0B0153465A46084365
:1007500013D0114653EA010019D0C8F140025046A7
:10076000FFF7E3FD05460E46504659464246FFF761
:10077000CDFD084305D0012004E020463946BDE800
:10078000F08D0020054346EAE0762C4337430A9873
:100790006305E40AA0EB08000022FD0A44EA47547E
:1007A0000A3002D500200146E9E701051019694128
:1007B000DDE9084500196941BDE8F04DA2E70000F8
:1007C000FEE7000070470000EFF3108072B600BF34
:1007D000FEE7000040F28410C2F2000000F082BA8E
:1007E00040F28410C2F2000000F07CBA40F2E8103F
:1007F000C2F2000000F076BA40F2E810C2F2000047
:1008000000F070BA80B5014690F82500022825D185
:100810000868D1E910CE8A6C036823F00E030360E8
:10082000136823F480731360026822F001020260EF
:100830000EF01F00012202FA00F0CCF80400D1E90A
:1008400013205060486D68B1026822F48072026023
:10085000D1E916024260002005E000BF0420C86311
:10086000012000E00020012281F82520002281F8EB
:10087000242080BD80B590F8251002292ED1016872
:10088000D0E910CE826C0B6823F00E030B600B686E
:1008900023F001030B60116821F4807111600EF0E8
:1008A0001F02012101FA02F2CCF80420D0E9133230
:1008B0005A60426D32B1136823F480731360D0E93B
:1008C0001623536080F82510826B002180F82410D5
:1008D0000AB190470021084680BD00BF0421C163D2
:1008E0000121002280F8251080F82420084680BDD0
:1008F00010B590F85C30013B012B69D8006811F00D
:10090000070ED0F858C00CF0010300D01BB311F053
:10091000380F02D01CF002041DD011F4E07F02D089
:100920001CF0040417D011F4F05F02D01CF008048E
:1009300011D011F4604F02D01CF010040BD011F450
:10094000403F02D01CF0200405D011F47C0F06D0EB
:100950001CF0400403D1C46D44F00104C465BEF131
:10096000000F18BF002B3BD111F0380F18BF1CF03F
:10097000020335D111F4E07F18BF1CF004032FD11E
:1009800011F4F05F18BF1CF0080329D111F4604F77
:1009900018BF1CF0100323D111F4403F18BF1CF006
:1009A00020031DD111F47C0F18BF1CF0400317D198
:1009B0000B061BD4CB0504D5D0F8E0301A43C0F8A1
:1009C000E02000F15402002013681943116010BDAB
:1009D00000F160020120022113681943116010BD6B
:1009E000C36D43F00203C3650B06E3D5D0F8DC30DA
:1009F0001343C0F8DC30CB05E3D5DDE72DE9F0414A
:100A000090F85C30022B15D10668D6F8C4309B02F2
:100A100018D4D6F8C430D1E90075D1F808E00C69D3
:100A2000C3F3014CB5B144EA070343EA0E0343F0B4
:100A3000804E13E0016E41F0080101660120BDE81F
:100A4000F08100BF016E41F4007101660120BDE834
:100A5000F08100BF44EA87434EEA030ED1E907570D
:100A6000D1E9058445EA0765CB682C43456D44EA26
:100A700008040CEBCC0744EA034405EBC70345F834
:100A800037E05C60CF6887B146F64C6508330332C7
:100A90000024C0F6000500BF171957F8037C1F514A
:100AA000CF680434EF5DBC42F6D3012101FA0CF1AA
:100AB000C6F8CC1081650020BDE8F08180B590F8C3
:100AC0005C20013A012A13D80A68BAB101F1040E78
:100AD000D1E904319EE80450406C43EA4E7E41EA7D
:100AE0008C7100EBC20340F832E00020596080BDF9
:100AF000016E41F002010166012080BDD1E90323AE
:100B0000D1E901CED206496942EA8E7242EA034235
:100B1000006C114340F82C10002080BD80B590F887
:100B20005CC0BCF1010F13D100689200D0F880C006
:100B3000DDF808E042EA011141EA43012CF03F0CE4
:100B400041EA0E0141EA0C01C0F88010002080BD8E
:100B5000016E41F004010166012080BD7047000074
:100B60007047000000689822402908BF90228058F2
:100B700000F00F00704700002DE9F04390F85C7022
:100B8000022F1BD1D0F800C040291FD1DCF8907093
:100B90003F0700F09D80DCF89070FF0146BFDCF855
:100BA0008070C7F340270027DCF89060C6F3012669
:100BB00006EB070C00F148071DE000BF016E41F095
:100BC000080101660120BDE8F08300BFDCF89870E1
:100BD0003F077DD0DCF89870FF0146BFDCF88070DD
:100BE000C7F300270027DCF89860C6F3012606EB60
:100BF000070C00F14C073F680CEBCC0657F8365059
:100C000007EBC60E15F08045556057F8365025F0B5
:100C1000604408BFC5F38A44146057F8365005F0A5
:100C20000055956057F8364004F000441461BEF852
:100C30000440D461BEF8064014F00F04D460DEF81E
:100C4000044004F480145461DEF8044004F40014F9
:100C500094619EF8074004F07F041462DEF80440BB
:100C60004FEAD474546228D046F64C680024C0F68B
:100C7000000800BF0EEB0406377A651C1F55D768C5
:100C800018F80770BD4218D2757A1F197D70D568A3
:100C900018F80590A51C4D450FD2B57ABD70D568E2
:100CA00018F80590E51C4D4507D2F57A0434FD701F
:100CB000D56818F80550AC42DCD3006840290CBF59
:100CC000C0F894C0C0F89CC00020BDE8F08300BF0D
:100CD000016E41F4807101660120BDE8F0830000DF
:100CE000704700002DE9F04F85B004460068016DA3
:100CF000426DD0F850B0456D076D466D036D01EA49
:100D000002080493436D0393036D0293436D0193B3
:100D1000D0F854A0D0F850905FEA496307D51AF094
:100D2000400104D0402101652046FFF7D9FF0BEABE
:100D3000050B5FEAC95008F4E0550ED51AF480702F
:100D40000BD02068D0F8D810D0F8E02011404FF434
:100D500080720265204600F069FA37400BF0070602
:100D60002DB1206829460565204600F063FA07F09A
:100D700038052EB1206831460665204600F038FA65
:100D80002DB1206829460565204600F033FA5FEA58
:100D9000895009D51AF4007006D020684FF400710C
:100DA0000165204600F048FA5FEA09600DD51AF0A7
:100DB00080000AD02068D0F8D410D0F8DC20114090
:100DC00080220265204600F033FA5FEA894009D5A7
:100DD0001AF4005006D020684FF4005101652046F7
:100DE00000F022FA5FEA0940DDE9011000EA01059E
:100DF00009D51AF4004006D020684FF4004101657F
:100E0000204600F00FFADDE9031008405FEA49418F
:100E100005F460210AD51AF4804207D022684FF405
:100E200080431365226E42F08002226600F4710551
:100E300021B1206801652046FFF792FE25B12068A8
:100E40000565206E28432066206E28B1204605B037
:100E5000BDE8F04FFFF782BE05B0BDE8F08F00009F
:100E600070B5D8B1044690F85C0028B9002084F829
:100E70005D00204600F01EF92068816921F0100114
:100E8000816100F0B1FA054620688169090707D53C
:100E900000F0AAFA401B0B28F6D312E0012070BD27
:100EA000816941F00101816100F09EFA054600BFB1
:100EB00020688169C9070DD100F096FA401B0B2804
:100EC000F6D3206E032140F001002066012084F853
:100ED0005C1070BD826946F2004CC4F2000C42F016
:100EE00002026045826102D16268CCF80021227C56
:100EF0008369012A23F0400318BF40338361627C79
:100F00008369012A23F4804308BF03F5804383618A
:100F1000A27C8369012A23F4805318BF03F5805310
:100F200083618269D4E902E322F4407545EA0E0543
:100F30008561856925F0A4058561056925F01005A1
:100F400005619BB1012B0DD0022B09D08569032BC4
:100F500045F080058561056945F01005056105D1FD
:100F6000202300E0042385692B43836104F11405E9
:100F70002ACD226A5E1E6FF0FF0303EB052545EACA
:100F80004665013A2A430025CFF6FF7505EB01417E
:100F90001143BEF5407FC16110D1D4E909E2D4E923
:100FA0000B61013A03EB06231A436FF00F0303EBC7
:100FB0000111114305EB0E421143C160D4E90D1339
:100FC000E26BD0F8C0603243C0F8C0200CF58066F8
:100FD0000CF58042B04204BF4AF25072C4F20002E3
:100FE0000CF50066B04208BF02F5D4622264D0F866
:100FF000806026F4F81646EA0141C0F8801002F13C
:1010000070016164D0F8801021F0706141EA0361E1
:10101000C0F8801002F1B000A06402F5C470E06472
:1010200002F51870206502F51E70606502F55470B7
:10103000002100BFC2E90011C2E90211C2E9041196
:10104000C2E90611C2E90811C2E90A11C2E90C118C
:10105000C2E90E11C2E91011C2E91211C2E914115C
:10106000C2E91611C2E91811C2E91A11C2E91C112C
:10107000C2E91E11C2E92011C2E92211C2E92411FC
:10108000C2E92611C2E92811C2E92A11C2E92C11CC
:10109000C2E92E11C2E93011C2E93211C2F8D010F2
:1010A000D4328242C6D300200121A065206684F894
:1010B0005C1070BDB0B59CB0044600201B90CDE91B
:1010C0001900CDE9170002A85421FFF7EBF82068BA
:1010D00046F60001C4F20001884239D046F20041D0
:1010E000C4F20001884240F081804FF480500290A9
:1010F0004FF00070109002A800F004FB002818BF09
:10110000FFF762FB40F27C11C2F200010A6841F273
:101110004C00C4F20200531C0B6042B9C16841F09C
:101120000071C160C16801F000710191019901680D
:10113000162441F0010101600068152500F001004E
:10114000019001984FF090404FF4C05133E000BF40
:101150004FF4805002904FF00070109002A800F001
:10116000D1FA002818BFFFF72FFB40F27C11C2F222
:1011700000010A6841F24C00C4F20200531C0B60EB
:1011800042B9C16841F00071C160C16801F00071ED
:10119000019101990168572441F002010160006842
:1011A000562500F002000190019840F20040C4F67C
:1011B00000004FF440511791022118910021CDE910
:1011C000191109211B9117A900F038F828460521AB
:1011D000002200F0BDF9284600F0A6F920460521BE
:1011E000002200F0B5F9204600F09EF91CB0B0BD19
:1011F000704700007047000090F85C1001290BD187
:10120000022180F85C1001688A6922F001028A617B
:101210000021016608467047016E41F00401016635
:1012200001207047704700007047000070470000C1
:101230007047000070470000704700002DE9F04F34
:1012400082B00D68002D00F0CB8041F2004400F127
:101250003847C4F6000406224FEAB726A04208BF6A
:101260000522052E38BF4FEAB722002401274FF090
:10127000000E0026009209E00D68013635FA06F2EC
:101280000EF1040E04F1020400F0AA8007FA06FB36
:1012900015EA0B08F0D0D1F804A003220AF0030CE1
:1012A000ACF10105A240012D6FEA020910D8826855
:1012B000CD6802EA0902A5402A4382604268CAF367
:1012C000001522EA0B02B5402A43426006E000BF47
:1012D000BCF1030F02D14FF0030C21E0C2688D680E
:1012E00002EA0902A5402A43BCF1020FC26017D1ED
:1012F0006FF0030202EA560202440EF01C030F25AF
:10130000D2F820C005FA03FA0D692CEA0A0C05FA96
:1013100003F343EA0C031362D1F804A00AF0030CB0
:1013200002680CFA04F302EA09021A431AF4403F75
:101330000260A1D041F26003C4F202031A6840F2D5
:10134000004942F001021A601A68C4F2010902F071
:1013500001020192019A26F003024FF6084A4A441C
:10136000CFF6FF7A52F80AC00EF00C050F23009F4B
:10137000AB402CEA030307FA05F52B4342F80A3089
:10138000D9F808C04B684CEA0805DA0258BF2CEAC5
:10139000080540F20C4CC9F80850C4F2010CDCF806
:1013A00000209F0242EA080558BF22EA0805CCF84F
:1013B0000050D9F804209D0342EA080758BF22EAEA
:1013C0000807C9F80470D9F80020DB0342EA0807CF
:1013D00058BF22EA0807C9F8007001274CE700BF90
:1013E00002B0BDE8F08F000041F27C40C2F2000084
:1013F0000068704740F2040041F27C41C2F20000F4
:10140000C2F2000140680A6810440860704700009A
:1014100080B5032000F0C8F80F2000F009F800287C
:101420001CBF012080BD00F05BF8002080BD0000E3
:10143000B0B586B041F25801C4F202010A68044610
:1014400042F004020A60096801A801F00401019158
:101450000199694600F04CFC00F06CFC4DF683618C
:10146000C4F21B31A0FB01014FF0FF3000EB9141B2
:1014700040F24C2040F60002C2F20000C4F200022A
:1014800040F2E7330025C0E90021C0E902530561BD
:1014900000F020FF054618B1284606B0B0BD00BFD9
:1014A00040F24C20C2F2000000F048FF0546002840
:1014B000F2D11E2000F038F80F2C0DD81E20214646
:1014C0000022002500F044F840F20400C2F20000BF
:1014D0000460284606B0B0BD0125284606B0B0BD60
:1014E00080B582B041F25800C4F202008168002247
:1014F00041F001018160816801F0010101910199D0
:10150000016841F08051016000680F2100F08050B7
:10151000009000986FF0010000F01AF802B0BDE8EA
:10152000804000F0E5B80000002848BF7047C1B215
:1015300000F01F00012202FA00F04EF20012CEF27B
:10154000000242EAD10121F0030108607047000067
:1015500010B54EF60C5CCEF2000CDCF80030C3F394
:10156000022E8EF00704042C28BF0424BEF10303CE
:101570004FF0FF3E0EFA04F438BF0023A143994018
:101580000EFA03F39A43114300F00F0200F1604397
:101590000901043A03F564436244002848BF02F19C
:1015A0000C03197010BD00004EF60C51CEF2000174
:1015B0000A684FF6FF031A4060F30A2242F0806087
:1015C00040F0FD7008607047B0F5007F42D0002801
:1015D00040F0808047F21400C4F2000050F8141C60
:1015E000C26E01F4C06122F48072B1F5806FC266F0
:1015F0002ED150F8141C012262F34A2140F8141C29
:1016000040F20C01C2F200010968322251434DF64A
:101610008362C4F21B32A1FB0212910C02685205D4
:1016200011D54A1C0FD0026852050CD559B1026879
:10163000520508D5012906D00268520503D50229B2
:10164000A1F10401EAD10068400544BF03207047BE
:101650000020704747F21400C4F2000050F8141C38
:10166000C26E01F4C06142F48072B1F5806FC2664F
:10167000EED150F8141C012262F34A2140F8141CE8
:1016800040F20C01C2F200010968322251434DF6CA
:101690008362C4F21B32A1FB0212910C0268520554
:1016A00011D54A1C0FD0026852050CD559B10268F9
:1016B000520508D5012906D00268520503D5022932
:1016C000A1F10401EAD10068400544BF032070473E
:1016D000BEE700BF47F21400C4F2000050F8141C2B
:1016E000022262F34A2140F8141C002070470000D7
:1016F00047F20800C4F20000016841F48041016033
:10170000704700002DE9F04182B00446807841F234
:1017100088060007C4F2020602D400202FE000BFB2
:1017200056F8300C10F080580BD156F8300C40F0C1
:10173000805046F8300C56F8300C00F08050019084
:10174000019847F20007C4F20007386840F480703F
:101750003860FFF749FE05463868C00500F10C8186
:10176000FFF742FE401B0228F6D90320B8F1000F14
:1017700005D156F8301C21F0805146F8301C216804
:10178000CA0717D18A071DD44A0723D40A0729D4C8
:10179000CA062FD48A0635D44A063BD40A0641D459
:1017A000CA0547D48A034DD48A0553D44A0559D46F
:1017B00067E000BF3268636822F003021A433260B8
:1017C0008A07E1D53268A36822F00C021A4332601E
:1017D0004A07DBD53268E36822F030021A433260F0
:1017E0000A07D5D53268236922F0C0021A43326055
:1017F000CA06CFD53268636922F440721A43326058
:101800008A06C9D53268A36922F440621A4332605D
:101810004A06C3D53268E36922F440521A43326063
:101820000A06BDD53268236A22F440421A43326068
:10183000CA05B7D53268636A22F440321A4332606F
:101840008A03B1D57269A36A22F003021A43726156
:101850008A05ABD53268E36A22F440221A4332602B
:101860004A050ED53268236B22F440121A43B3F5B1
:10187000801F326005D156F87C2C42F4801246F865
:101880007C2C0A050ED53268636B22F440021A43A1
:10189000B3F5800F326005D156F87C2C42F48012EB
:1018A00046F87C2CCA040ED53268A36B22F0407235
:1018B0001A43B3F1807F326005D156F87C2C42F494
:1018C000801246F87C2C8A040ED53268E36B22F035
:1018D00040621A43B3F1006F326005D156F87C2C98
:1018E00042F4801246F87C2C4A040ED53268236CF0
:1018F00022F040621A43B3F1006F326005D156F80E
:101900007C2C42F4801246F87C2C0A040ED53268F6
:10191000636C22F040521A43B3F1805F326005D10C
:1019200056F87C2C42F4803246F87C2CCA030ED543
:101930003268A36C22F040421A43B3F1804F326008
:1019400005D156F87C2C42F4803246F87C2C4903B1
:101950000ED57169E26C21F440111143B2F5001FFC
:10196000716105D156F87C1C41F4801146F87C1C4D
:1019700002B0BDE8F08100BFB06810F4407010D034
:10198000216D88420BD0B068B16820F4407041F4FA
:101990008031B160B16821F48031B160B060C007BE
:1019A0000CD1B068216D20F440700843B060002075
:1019B000B8F1000F7FF4E3AEDBE600BFFFF714FDE4
:1019C000054641F2883700BFB0688007E9D4FFF7C9
:1019D0000BFD401BB842F7D9C7E600002DE9F047E0
:1019E00000286DD042F2000AC4F2020A0446DAF876
:1019F00000000D4600F00F0088420CD2DAF800001B
:101A000020F00F002843CAF80000DAF8000000F0C8
:101A10000F00A84254D1216841F20808C807C4F257
:101A2000020803D1880740F1D880BDE06068022831
:101A30003AD0032840D158F8082C920140D5D8F864
:101A40000420D8F8043042F20046C3F3031302F036
:101A50000302D8F804700133C0F2F406032A04BF6D
:101A600047F64006C0F27D16B6FBF3F2D8F8043014
:101A7000C7F306277A43C3F34163022707EB430307
:101A8000B2FBF3F24BF20043C0F2C4439A4261D975
:101A9000D8F8002012F0F00F51D089075AD5A1686C
:101AA000002957D14BE000BF58F8081C89035CBFE0
:101AB0000120BDE8F08707E058F8081C490503D469
:101AC0000120BDE8F08700BFD8F8001001F00C013C
:101AD00004293FD0D8F8001001F00C01082939D0B2
:101AE000D8F8001001F00C010C2933D1D8F80410FB
:101AF000D8F8042042F20047C2F3031201F00301B8
:101B0000D8F804300132C0F2F407032904BF47F6C5
:101B10004007C0F27D17B7FBF2F1D8F80420C3F3F9
:101B200006235943C2F34162022303EB4202B1FB95
:101B3000F2F14BF20042C0F2C44291420AD9D8F805
:101B40000010082262F307114FF00109C8F80010D5
:101B500002E000BF4FF00009D8F8001021F00301A7
:101B60000843C8F80000FFF73FFC064641F28837FB
:101B7000D8F80000616800F00C00B0EB810F07D0CE
:101B8000FFF732FC801BB842F2D90320BDE8F08792
:101B90002168880708D4B9F1000F1ED0D8F80000DA
:101BA00020F0F00017E000BF480705D5D8F8000086
:101BB00040F4E060C8F80000080706D5D8F8000037
:101BC000072262F30D20C8F80000D8F80000A268D0
:101BD00020F0F0001043C8F80000DAF8000000F030
:101BE0000F00A8421BD9DAF8000020F00F002843AC
:101BF000CAF80000FFF7F8FB064641F2883700BF3D
:101C0000DAF8000000F00F00A84207D0FFF7ECFB65
:101C1000801BB842F4D90320BDE8F087216848074B
:101C200007D5D8F80000E26820F4E0601043C8F857
:101C30000000080708D5D8F80000216920F460509A
:101C400040EAC100C8F80000D8F8000042F20041A4
:101C5000C0F2F40100F00C00042808462DD0D8F89A
:101C6000000000F00C00082847F64000C0F27D108C
:101C700023D0D8F8002002F00C020C2A1CD1D8F88E
:101C80000420D8F8043002F00302C3F30313D8F899
:101C900004700133032A08BF0146B1FBF3F0D8F802
:101CA0000410C7F30627C1F341610222784302EB17
:101CB0004101B0FBF1F000E00020D8F8001046F63A
:101CC0001C62C1F30311C0F60002515C40F20C0229
:101CD00001F01F0120FA01F140F20400C2F20000FD
:101CE0000068C2F200021160BDE8F047FFF7A0BB38
:101CF0000F22026041F20802C4F20202136803F0EC
:101D000003034360136803F0F0038360136803F474
:101D1000E063C36012684FF4E06303EAD202026139
:101D200042F20000C4F20200006800F00F000860F8
:101D30007047000040F20C0041F20801C2F20000BE
:101D4000C4F202010068096846F62C62C1F3022160
:101D5000C0F60002515C01F01F01C840704700004E
:101D600040F20C0041F20801C2F20000C4F202018C
:101D70000068096846F62C62C1F3C221C0F6000271
:101D8000515C01F01F01C8407047000080B541F26E
:101D90000C01C4F2020151F8040C42F20042C0F2FC
:101DA000F40200F00C000428104608BF80BD51F872
:101DB000040C00F00C00082847F64000C0F27D102B
:101DC00022D051F8043C03F00C030C2B1CBF002064
:101DD00080BDD1F800C00B680CF0030CC3F3031EE8
:101DE0000B680EF1010EBCF1030F08BF0246096833
:101DF000B2FBFEF0C3F30623C1F341610222584354
:101E000002EB4101B0FBF1F080BD00002DE9F04193
:101E100082B0002800F006810446007841F20006F6
:101E2000C007C4F2020655D12078800774D4207808
:101E3000000700F197802078400700F1B7802078F4
:101E4000800600F10781E569002D00F03082B0685E
:101E500000F00C000C2840F05981012D00F0E280C8
:101E6000F068216A00F003028A4240F0DB80626A77
:101E70006FF00F0300F0F00103EB0212914240F00B
:101E8000D180A16A00F4FE42B2EB012F40F0CA807B
:101E9000E16A00F07842B2EBC16F40F0C380226B80
:101EA0000023CFF6E07303EA025200F4C001A2F56A
:101EB0000012914240F0B680616B4FF07E4202EA20
:101EC000016100F0C06001F17E41884240F0AA80CB
:101ED000EDE100BFB06800F00C01F06808295BD0AC
:101EE000032281F00C0122EA00000844B0FA80F0DD
:101EF000400951D16068B0F5803F07D0B0F5A02F00
:101F000040F0DA80306840F480203060306840F47F
:101F100080303060DBE000BFB068F16800F00C009A
:101F2000042869D001F0030180F00C0081F0020167
:101F30000844B0FA80F040095ED1E16830680029B9
:101F400000F0D28040F480703060FFF74DFA054613
:101F50003068400500F1FC80FFF746FA401B02287C
:101F6000F6D92EE16169D6F89400002900F090803E
:101F700040F00100C6F89400FFF736FA054600BFAE
:101F8000D6F8940080073FF556AFFFF72DFA401BB7
:101F90000228F5D915E100BF306880037FF544AF12
:101FA000606800287FF440AF3CE000BFB06D10F0E7
:101FB000805808D1B06D40F08050B065B06D00F031
:101FC00080500190019847F20007C4F2000738687A
:101FD000C0052BD4386840F480703860FFF704FAED
:101FE000054600BF3868C00520D4FFF7FDF9401B47
:101FF0000228F7D9E5E000BF3068400501D5E06868
:1020000080B17068216920F0FE4040EA0160706094
:1020100040F20400C2F200000068FFF709FA00284D
:102020003FF405AF012002B0BDE8F081A0680128AF
:1020300008D0052840F0AA80D6F8900040F00400AF
:10204000C6F89000D6F8900040F00100C6F8900065
:10205000A9E000BFA169D6F89800002900F08080AF
:1020600040F00100C6F89800FFF7BEF9054600BF32
:10207000D6F8980080073FF5E6AEFFF7B5F9401BAC
:1020800002284FF00300F3D902B0BDE8F08100BF91
:1020900020F00100C6F89400FFF7A6F9054600BF3E
:1020A000D6F8940080077FF5C6AEFFF79DF9401B78
:1020B0000228F5D985E000BF3168002821F480317D
:1020C0003160316821F48021316000F07F80FFF7BA
:1020D0008BF90546306880033FF5A6AEFFF784F91B
:1020E000401B6428F6D96CE020F480703060FFF764
:1020F0007BF90546306840057FF599AEFFF774F926
:10210000401B02284FF00300F4D9BDE7306820F0EF
:1021100080703060FFF768F9022D05460CD100BFD2
:102120003068800140F17E80FFF75EF9401B022895
:102130004FF00300F4D9A7E73068800140F1B08088
:10214000FFF752F9401B02284FF00300F4D99BE738
:102150007068216920F0FE4040EA0160706066E628
:1021600020F00100C6F89800FFF73EF9054600BFD1
:10217000D6F8980080077FF566AEFFF735F9401B6B
:1021800002284FF00300F3D97EE700BFD6F8901085
:1021900021F00101C6F89010D6F8901021F004014A
:1021A000C6F8901010B3FFF71FF9054641F28837C3
:1021B000D6F8900080072BD4FFF716F9401BB842E1
:1021C000F6D9032002B0BDE8F08100BFFFF70CF99B
:1021D000054600BF306880037FF526AEFFF704F99F
:1021E000401B64284FF00300F4D94DE7FFF7FCF8DB
:1021F000054641F2883700BFD6F89000800707D522
:10220000FFF7F2F8401BB8424FF00300F4D93BE768
:10221000B8F1000F7FF413AEB06D20F08050B065C0
:102220000DE600BFF06848F20C01C0F29F1104F106
:10223000200700EA010C8ECF6FF00F00D4E90C5498
:1022400000EB02100022CFF6E07241EA0C0102EA34
:1022500005520843A2F500124FF07E4540EA0320E4
:1022600005EA0465104305F17E4540EAC76028434E
:10227000F060306840F080703060F06840F080704E
:10228000F060FFF7B1F80446306880010FD4FFF723
:10229000ABF8001B02284FF00300F5D9F4E600BFAD
:1022A000F0684FF6FC71CFF6EE610840F060002058
:1022B00002B0BDE8F08100007047000070470000E8
:1022C0007047000070470000704700007047000032
:1022D00070470000002804BF0120704710B5044675
:1022E00090F83D0028B9002084F83C00204600F01A
:1022F00023F8022084F83D002068211D01F0FAF93E
:10230000012084F8480084F83E0084F83F0084F8F7
:10231000400084F8410084F8420084F8430084F8C7
:10232000440084F8450084F8460084F8470084F8A7
:102330003D00002010BD00007047000090F83D10E7
:1023400001291CBF01207047022180F83D1001685F
:1023500042F6FF32C868C4F20102914240F0010027
:10236000C8600DDC40F2FF70C4F20000814217DC4F
:10237000B1F1804F2CD040F20040C4F2000025E0C3
:1023800043F6FF70C4F20100814215DC42F60040C2
:10239000C4F2010081421BD043F2004014E000BFB0
:1023A00040F60000C4F20000814211D040F6004027
:1023B000C4F200000AE000BF45F20000C4F20100D0
:1023C000814205D044F20000C4F2010081420CD1E8
:1023D00088680722C0F201020240062A4FF000007E
:1023E00008D0B2F5803F08BF7047086840F0010090
:1023F000086000207047000070470000F0B581B011
:1024000004460068C5680669B10717D515F00201D2
:1024100014D06FF0020101610121217780698007EA
:1024200004D02046FFF7E8FF06E000BF204600F09A
:10243000CBF8204600F0CAF800202077700719D5A5
:1024400015F0040016D020686FF00401016102212C
:102450002177806910F4407F04D02046FFF7CCFF3D
:1024600006E000BF204600F0AFF8204600F0AEF8CE
:1024700000202077300717D515F0080014D0206809
:102480006FF00801016104212177C069800703D042
:102490002046FFF7B1FF05E0204600F095F8204602
:1024A00000F094F800202077F00619D515F0100000
:1024B00016D020686FF01001016108212177C069F2
:1024C00010F4407F04D02046FFF796FF06E000BFDF
:1024D000204600F079F8204600F078F800202077B8
:1024E000F00718BF15F0010006D020686FF0010159
:1024F0000161204600F06CF816F4025F05F08007D9
:1025000018BF002F02D1F00509D410E020686FF445
:10251000025101612046FFF7D1FEF00507D537B122
:1025200020686FF4807101612046FFF7C5FE7006D8
:1025300009D515F0400006D020686FF04001016118
:10254000204600F04FF8B00609D515F0200006D05F
:1025500020686FF0200101612046FFF7B1FEF00214
:1025600009D515F4801006D020686FF48011016140
:102570002046FFF7A9FEB00209D515F4001006D0D9
:1025800020686FF4001101612046FFF79BFE700286
:1025900009D515F4800006D020686FF48001016130
:1025A0002046FFF793FE30020CD515F4000009D049
:1025B00021686FF4000220460A6101B0BDE8F040D6
:1025C000FFF786BE01B0F0BD704700007047000005
:1025D000006840F60001C4F20001884218BF70474D
:1025E000FEF708BF7047000090F88410012904BF6F
:1025F000022070472421C0F888100268116813680F
:1026000023F00103136021F00053002141661360A1
:102610002022C0F8882080F8841008467047000007
:102620007047000070470000B0B590F88420012A80
:1026300004BF0220B0BD2422C0F888200268D0F870
:1026400064E0D2F800C01368BEF1000F23F001036C
:102650001360936823F0606341EA0301916019D02D
:102660009368916846F66C6E490FC0F6000E46F608
:1026700074651EF80140C0F60005695CC3F342634F
:10268000E400B4FBF1F11EF80340EB5CE500B5FBA0
:10269000F3F301E001210123A0F86A102021A0F842
:1026A0006830C2F800C0C0F88810002180F884109B
:1026B0000846B0BDB0B590F88420012A04BF0220BE
:1026C000B0BD2422C0F888200268D0F864E0D2F8B7
:1026D00000C01368BEF1000F23F00103136093687C
:1026E00023F0604341EA0301916019D09368916837
:1026F00046F66C6E490FC0F6000E46F674651EF87D
:102700000140C0F60005695CC3F34263E400B4FB1A
:10271000F1F11EF80340EB5CE500B5FBF3F301E0DB
:1027200001210123A0F86A102021A0F86830C2F826
:1027300000C0C0F88810002180F884100846B0BDA1
:1027400070470000704700007047000070B50168D6
:1027500040F62F03CA69044608688E681340202B90
:102760000CD100F0200306F080555B1917D0616F83
:1027700000297BD02046BDE87040084740F60F0393
:102780001A420CD00123C1F2000306EA030C40F206
:102790002013C0F20043034013EB0C0368D1E36E37
:1027A000012B05D112F0100318BF10F010034DD10A
:1027B000D3020BD516F4800308D04FF480122046C4
:1027C0000A62BDE87040FFF7BDBF00BF110606D525
:1027D00000F0800106F40003C91840F0378251066A
:1027E00040F1108110F0400100F00C81206850E8A9
:1027F000000F216820F0400041E80002DAB12068B3
:1028000050E8000F216820F0400041E8000292B13A
:10281000206850E8000F216820F0400041E80002E5
:102820004AB1206850E8000F216820F0400041E8DC
:102830000002002ADAD120200021C4F888002046B6
:10284000A167BDE8704000F0F5BB00BF1020086232
:102850008868400618D4B4F85C00B4F85E10B4F888
:102860005E20002A18BF884240F0128270BD00BF6F
:10287000D30718BF10F4807340F0D080930706F0A0
:10288000010E00F1D780E0E0D4F8800000684268D3
:10289000B4F85C3091B2002900F0DE81994280F0FA
:1028A000DB81A4F85E200068800600F19E8020682D
:1028B00050E8000F216820F4807041E80002DAB18E
:1028C000206850E8000F216820F4807041E8000281
:1028D00092B1206850E8000F216820F4807041E830
:1028E00000024AB1206850E8000F216820F480708F
:1028F00041E80002002ADAD1206850E8020F21687E
:1029000020F0010041E80202BAB3206850E8020F4B
:10291000216820F0010041E8020272B3206850E80B
:10292000020F216820F0010041E802022AB320686A
:1029300050E8020F216820F0010041E80202002A5D
:10294000DAD11AE0206850E8020F216820F0400038
:1029500041E80202DAB1206850E8020F216820F055
:10296000400041E8020292B1206850E8020F21685D
:1029700020F0400041E802024AB1206850E8020F0E
:10298000216820F0400041E80202002ADAD120202C
:10299000C4F88C000020E066206850E8000F216831
:1029A00020F0100041E80002DAB1206850E8000F82
:1029B000216820F0100041E8000292B1206850E840
:1029C000000F216820F0100041E800024AB12068A1
:1029D00050E8000F216820F0100041E80002002AB2
:1029E000DAD1D4F88000FDF70DFF02202067B4F89B
:1029F0005C00B4F85E10401A81B22046BDE8704019
:102A0000FFF70EBE110240F1318110F0804100F05D
:102A10002D812046BDE87040FFF792BE01230B6276
:102A2000D4F8903043F00103C4F89030930706F0D7
:102A3000010E0AD5BEF1000F07D002230B62D4F8B5
:102A4000903043F00403C4F8903053070AD5BEF128
:102A5000000F07D004230B62D4F8903043F0020338
:102A6000C4F8903013070CD500F0200353EA0C0390
:102A700007D008230B62D4F8903043F00803C4F861
:102A8000903013050BD510F0806308D04FF400632D
:102A90000B62D4F8903043F02003C4F89030D4F89F
:102AA0009030002B3FF4E2AE12F020021EBF00F087
:102AB000200006F0805210EB020040F06B81D4F849
:102AC0009000896800F0280001F04001401807D10B
:102AD0002046FFF739FE0020C4F8900070BD00BF0B
:102AE000206850E8000F216820F4907041E800024F
:102AF000DAB1206850E8000F216820F4907041E8B6
:102B0000000292B1206850E8000F216820F4907014
:102B100041E800024AB1206850E8000F216820F423
:102B2000907041E80002002ADAD14FF6FE70CEF62E
:102B3000FF7000BF216851E8021F2268014042E88F
:102B40000213C3B1216851E8021F2268014042E824
:102B5000021383B1216851E8021F2268014042E854
:102B6000021343B1216851E8021F2268014042E884
:102B70000213002BDED1E06E012824D1206850E83A
:102B8000000F216820F0100041E80002DAB120684F
:102B900050E8000F216820F0100041E8000292B1D7
:102BA000206850E8000F216820F0100041E8000282
:102BB0004AB1206850E8000F216820F0100041E879
:102BC0000002002ADAD12020C4F88C000020E06640
:102BD000216860678868400654D500BF206850E8C7
:102BE000020F216820F0400041E80202DAB12068BB
:102BF00050E8020F216820F0400041E8020292B143
:102C0000206850E8020F216820F0400041E80202ED
:102C10004AB1206850E8020F216820F0400041E8E6
:102C20000202002ADAD1D4F8800058B343F6992181
:102C3000C0F600018163FDF71DFE00283FF416AECB
:102C4000D4F88000816BBDE870400847A16F00296F
:102C50007FF490AD0AE600BF8B427FF407AE0068B8
:102C600080067FF503AE02228DE000BFD1017FF523
:102C7000FDADB0F1FF3FC8BF70BD2046BDE870405C
:102C8000FFF7D0BC2046BDE87040FFF75DBD00BF38
:102C9000401A00BF216851E8001F226821F490719A
:102CA00042E80013DBB1216851E8001F226821F4DB
:102CB000907142E8001393B1216851E8001F226827
:102CC00021F4907142E800134BB1216851E8001FD4
:102CD000226821F4907142E80013002BDAD14FF6FC
:102CE000FE71CEF6FF7100BF226852E8022F236802
:102CF0000A4043E80226C6B1226852E8022F236840
:102D00000A4043E8022686B1226852E8022F23686F
:102D10000A4043E8022646B1226852E8022F23689F
:102D20000A4043E80226002EDED12021C4F88C1090
:102D30000021E166616700BF216851E8001F226839
:102D400021F0100142E80013DBB1216851E8001FB7
:102D5000226821F0100142E8001393B1216851E884
:102D6000001F226821F0100142E800134BB12168D6
:102D700051E8001F226821F0100142E80013002BE7
:102D8000DAD1022281B220462267BDE87040FFF707
:102D900047BC00BF626F002A3FF491AE20469047C7
:102DA00021688CE610B5D8B10446D0F8880028B95F
:102DB000002084F88400204600F026F82420C4F87F
:102DC00088002068A16A026822F00102026011B145
:102DD000204600F035FD204600F064FE012801D1B8
:102DE000012010BD2168486820F490404860886840
:102DF00020F02A008860086840F0010220460A603E
:102E0000BDE8104000F090BD10B59AB00446684689
:102E100008304C21FDF746FA206843F60001C4F261
:102E20000101884202D01AB010BD00BF01200090FD
:102E3000002468460194FEF765FC002818BFFDF7E2
:102E4000C3FC41F24C00C4F20200416941F48041EC
:102E50004161416901F4804115911599016841F082
:102E600004010160006815A900F004001590159890
:102E7000302015900220CDE916040720199040F665
:102E80000000C4F600001894FEF7D8F925200521AB
:102E90000022FEF75DFB2520FEF746FB1AB010BDB1
:102EA0002DE9F0410446D0F8880020281CBF0220FC
:102EB000BDE8F0810D4600294FF0010000F0B88018
:102EC0001646002A08BFBDE8F0810020C4F8900033
:102ED00021209846C4F88800FEF786FAA4F85460CA
:102EE000A4F85660A1680646B1F5805F02D120695A
:102EF00000286BD02F460025B4F8560000286BD070
:102F000018F101001CD0B8F1000F3DD121680BE091
:102F100017F8010B8862B4F856000138A4F856007F
:102F2000B4F85600002858D0C869000640F17A80ED
:102F3000002FEDD135F8020B00276FF35F20E9E792
:102F4000216802E0C869000609D4C869000606D4F1
:102F5000C86900065CBFC8695FEA0060F2D51FB1AE
:102F600017F8010B05E000BF35F8020B00276FF3DF
:102F70005F208862B4F856000138A4F85600B4F80F
:102F800056000028E1D128E0216800BFC86900068A
:102F900008D4FEF729FA801B404545D82168086807
:102FA000F4E700BF17B117F8010B04E035F8020B86
:102FB00000276FF35F208862B4F856000138A4F848
:102FC0005600B4F856000028E0D106E00027B4F817
:102FD000560000287FF494AF2168C86940061FD4CA
:102FE000B8F1000F1ED018F101000FD1C8694006DA
:102FF00016D4C869400613D4C869400610D4C869FD
:1030000040064FF00000F1D50FE000BFFEF7ECF9ED
:10301000801B404508D820680168C0694006F5D586
:10302000002002E0FEF7E0F903202021C4F8881018
:10303000BDE8F08170470000FEE7000010B540F2E7
:10304000841046F20041C2F20000C4F200010022E6
:10305000C0E90012012111234FF0060C4FF0030EBE
:103060000824C0E9022201828274C0E90531C0E966
:1030700007CEC0E90931C0E90B4EC0E90D22C26399
:10308000FDF7EEFE002808BF10BDBDE81040FDF7BB
:103090009BBB000010B540F2E81046F60001C2F2FA
:1030A0000000C4F200010022C0E900120121112336
:1030B0004FF0060C4FF0030E0824C0E902220182F3
:1030C0008274C0E90531C0E907CEC0E90931C0E921
:1030D0000B4EC0E90D22C263FDF7C2FE002808BFF7
:1030E00010BDBDE81040FDF76FBB000010B543F206
:1030F000556046F67C62C0F60000C0F60002002172
:1031000001F070F940F24004C2F20004206043F282
:103110009D6046F6A062C0F60000C0F600020021E5
:1031200001F060F9606010BD81B041F24C00C4F262
:103130000200016841F020010160016801F02001F6
:1031400000910099016841F004010160016801F0FB
:10315000040100910099016841F0020101600168D9
:1031600001F0020100910099016841F00101016044
:10317000006800F001000090009801B07047000066
:1031800080B540F2982043F60001C2F20000C4F27C
:10319000010100234FF00C0C4FF4E13280E80E00E7
:1031A000C0E90333C0E905C3C0E90733C0E9093307
:1031B000FFF7F8FD002818BFFDF706FB40F2982046
:1031C000C2F200000021FFF775FA002818BFFDF7D2
:1031D000FBFA40F29820C2F200000021FFF724FA27
:1031E000002818BFFDF7F0FA40F29820C2F2000064
:1031F000FFF7FAF9002808BF80BDBDE88040FDF761
:10320000E3BA0000FEE7000070B52DED068B40F23A
:103210001004022888BF0020C2F2000420604FF48E
:10322000FA7001F079F821681DA003F06BF99FEDA9
:10323000258A9FED259A9FED25AA40F23406642544
:10324000C2F200062068B0EE480A06EB800191ED5C
:10325000001AF0EE480AF0EE491AB0EE4A2A00F0E1
:10326000D7FF0A2001F058F8013DEBD1246806EBA6
:10327000840090ED000A40F24800C2F2000080EDA8
:10328000010A10EE100AFDF718F802460B4610A0CE
:103290002146BDEC068BBDE8704003F033B900BF9A
:1032A0005374617274696E67205A65726F696E67D4
:1032B00020666F72204D6F746F722025752E2E2E32
:1032C0000A000000000000003333333FCDCC4C3EF9
:1032D0004D6F746F72202575207A65726F65642E4C
:1032E000204F66667365743A20252E33662072611E
:1032F000640A000040F24800C2F2000040787047C3
:1033000010B52DED028B40F21000C2F200000068F3
:10331000B0EE408A022809D840F23401C2F200011E
:1033200001EB800090ED000A02E000BF9FED3D0A36
:1033300040F24804C2F2000494ED012A002030EE6D
:10334000422A38EE423AB5EE403AB0EEC10ABFEE3C
:10335000005AF1EE10FAB5EE401A84ED022A84ED1F
:10336000038A84ED040A2070B0EEC32AB7EE004A47
:10337000A8BFB0EE445AF1EE10FA84ED092A84EDAC
:103380000A5A39D09FED281AB4EE412AF1EE10FA0C
:1033900032DB20EE021AB1EEC11AB0EEE03AB6EE20
:1033A000004AB4EE413AF1EE10FAB8BFB0EE431A5B
:1033B00081EE003A20EE040A84ED081A20EE030A9A
:1033C00023EE000A30EE000A32EE400A80EE012AB7
:1033D0009FED141AB5EE400A33EE030A84ED053A68
:1033E000F1EE10FAC8BFB0EE421A30EE010A84EDD9
:1033F000061A84ED070A02E0E0610120207000F067
:10340000B7FFE0620120607018EE100AFCF755FF6C
:10341000024606A00B46BDEC028BBDE8104003F04F
:1034200071B800BF0000000017B7D1384D6F766546
:10343000205374617274202D3E205461726765744C
:103440003A20252E3366207261640A0010B540F2DE
:103450004804C2F200046078012840F0968000F031
:1034600087FF217821BBE16A9FED481A401A00EEE0
:10347000100AB8EE400A80EE011A94ED073AB4EE55
:10348000431AF1EE10FA13DA94ED054A94ED042A8A
:10349000B4EE441AF1EE10FA12DAB6EE003A21EE6A
:1034A000020A22EE032A21EE022A21EE021A48E045
:1034B00094ED031A0120DFED360A20704BE000BFC7
:1034C00094ED060A34EE005A94ED080AB4EE451A5B
:1034D000F1EE10FA0EDAB6EE003A22EE032A24EEEE
:1034E000022A31EE441A24EE022A20EE011A31EEAD
:1034F000021A26E031EE451A33EE453ABEEE005A86
:1035000022EE055A94ED094A23EE056A26EE033AA7
:1035100033EE043A22EE012A20EE014A30EE420A4E
:1035200034EE032A21EE053A23EE011A31EE021A97
:10353000B5EE400A9FED162AF1EE10FAB8BFB0EED4
:10354000420A94ED0A2A94ED023A21EE021A31EE73
:10355000031A60EE020A94ED010A40F21000C2F272
:103560000000006831EE001A9FED090ADFED091A2C
:103570009FED092A00F04CFE2078012818BF10BDED
:1035800006A003F039FC0020607010BD00007A44F2
:10359000000000003333333FCDCC4C3E4D6F746997
:1035A0006F6E2046696E69736865642E00000000C6
:1035B000FEE7000000000000000000000000000026
:1035C000EFF30980BFF36F8F154B1A681EF0100FD1
:1035D00008BF20ED108A20E9F04F10602DE90900A6
:1035E0004FF0500080F31188BFF34F8FBFF36F8F00
:1035F00002F03AF94FF0000080F31188BDE80900AD
:1036000019680868B0E8F04F1EF0100F08BFB0EC62
:10361000108A80F30988BFF36F8F704700BF00BF27
:103620007800002000000000000000000000000002
:10363000074B19680868B0E8F04F80F30988BFF3BA
:103640006F8F4FF0000080F31188704700BF00BFFC
:10365000780000200120FFF7D7FD00240DA5B3EE70
:10366000088A03E04FF4FA6000F056FEFFF742FECE
:103670000028F7D12846002C08BF043090ED000A3E
:10368000F0EE480AB0EE481AFFF73AFEC4F1010422
:10369000E8E700BF000000001B179F4100F068FE34
:1036A00000F10A04204600F047FE0A20FFF7CEFE94
:1036B0000A34F7E780B54EF21000CEF20000006841
:1036C00002F02CFD012808BF80BDBDE8804002F05B
:1036D000EBB900004EF68850CEF20000016841F4CC
:1036E000700101607047000040F24C20C2F20000FF
:1036F000FEF784BE80B540F6FF330268C4F20003D3
:1037000043F2FF3C9842C4F2010C0BDD60452FDC14
:1037100040F60043C4F20003984235D042F600431D
:103720002EE000BFB0F1804F2ED040F20043C4F233
:103730000003984228D040F60003C4F200039842E8
:1037400022D0604526DC40F2FF73C4F200039842A9
:1037500036DD40F60003C4F20003984244D040F640
:103760000043C4F2000398423ED042F6004337E0E3
:1037700045F20003C4F20103984205D043F200432E
:10378000C4F201039842DCD14B6822F070021A4364
:103790006045D8DD44F2FF33C4F20103984217DDDF
:1037A00044F20043C4F2010398421DD045F20003E5
:1037B000C4F20103984217D044F6000310E000BFA2
:1037C000B0F1804F10D040F20043C4F2000309E092
:1037D00043F20043C4F20103984205D044F20003CF
:1037E000C4F20103984203D1CB6822F440721A4319
:1037F0004B6922F0800E8A6843EA0E03D1F800C0BC
:103800000360C262A0F18042A2F596324FEAB22272
:10381000092AC0F828C008D8012303FA02F240F2AE
:10382000E5231A421CBF0969016301214161016955
:10383000C90708BF80BD016921F00101016180BD98
:1038400080B5816A0A070DD4CA0716D18A071FD42A
:103850004A0728D4CA0631D48A063AD44A0658D52B
:1038600042E000BF0268D0F838C0536823F4004338
:1038700043EA0C035360CA07E8D00268D0F82CC0B2
:10388000536823F4003343EA0C0353608A07DFD5FF
:103890000268D0F830C0536823F4803343EA0C0345
:1038A00053604A07D6D50268D0F834C0536823F471
:1038B000802343EA0C035360CA06CDD50268D0F8D2
:1038C0003CC0936823F4805343EA0C0393608A0658
:1038D000C4D50268D0F840C0936823F4005343EA8B
:1038E0000C0393604A0614D50268D0F844C05368AC
:1038F000BCF5801F23F4801343EA0C03536008D106
:10390000D2F804C0D0F848E02CF4C00343EA0E0318
:103910005360090658BF80BD0168C06C4A6822F434
:1039200000221043486080BDB0B582B0044600203C
:10393000C4F89000FDF758FD216805460A68120793
:1039400037D56FF07E4C20464FF4001100222B46F5
:10395000CDF800C000F006FA50B300BF206850E870
:10396000000F216820F0800041E80002DAB12068F1
:1039700050E8000F216820F0800041E8000292B179
:10398000206850E8000F216820F0800041E8000224
:103990004AB1206850E8000F216820F0800041E81B
:1039A0000002002ADAD12020C4F8880060E000BFBD
:1039B00021680868400761D56FF07E4C20464FF4BF
:1039C000800100222B46CDF800C000F0CBF9002882
:1039D00054D000BF206850E8000F216820F4907098
:1039E00041E80002E2B1206850E8000F216820F4AD
:1039F000907041E800029AB1206850E8000F2168F9
:103A000020F4907041E8000252B1206850E8000FA5
:103A1000216820F4907041E80002002ADAD100BF4A
:103A2000206850E8020F216820F0010041E80202FE
:103A3000DAB1206850E8020F216820F0010041E867
:103A4000020292B1206850E8020F216820F00100C4
:103A500041E802024AB1206850E8020F216820F0D4
:103A6000010041E80202002ADAD12020C4F88C00CB
:103A70000320002184F8841002B0B0BD2020C4F8D7
:103A80008800C4F88C000020E0662067002184F8DC
:103A9000841002B0B0BD0000806A0021A0F85E1062
:103AA000FEF752BE70B5054605F108041ECC00684D
:103AB000194341EA0403EE69046846F6F311CCF6B3
:103AC000FF712140194331430160416848F2000C05
:103AD00021F4405111434160AA69C4F2000C6045D1
:103AE0001CBF296A0A4381684FF2FF43C1F2FF13EA
:103AF000194011438160C16AD5F824E021F00F011B
:103B000041EA0E01C16244F6FF71C4F2000188422D
:103B10004FF0100318DC44F20041C4F20001884267
:103B200028D044F60001C4F2000188422AD044F6AD
:103B30000041C4F20001884242D141F28801C4F23E
:103B4000020109688B0933E045F20001C4F200016B
:103B500088421FD0604525D043F60001C4F2010120
:103B600088422DD141F28801C4F202010B6879A28A
:103B700022E000BF41F28801C4F2020109688B080B
:103B800016E000BF41F28801C4F2020109680B0986
:103B90000EE000BF41F28801C4F2020109680B0A7D
:103BA00006E000BF41F28801C4F2020109688B0AF5
:103BB00046F65C62C0F6000203F0030152F82130C1
:103BC000604542F20040C0F2F40015D0B6F5004F57
:103BD00024D1082B4FF0010100F2B380DFE803F09D
:103BE000065E6CB164B1B1B16A0000BFFEF7A2F825
:103BF000002856D15CE000BF082B4FF0010100F215
:103C0000A080DFE803F0059E259E1D9E9E9E23005A
:103C1000FEF790F8C0B1D5F824E019E0082B4FF07A
:103C2000010100F28E80DFE803F00565738C6B8C78
:103C30008C8C7100FEF77EF800285ED164E000BF36
:103C4000FEF7A4F80028E6D100217AE04FF4004006
:103C500046F63461C0F6000131F81E106A68B0FB08
:103C6000F1F002EB420188424FF0010169D31303E6
:103C7000984266D8010E000210EB520041F100019B
:103C80000023FCF7C5FA4FF60052A0F54071C0F2D0
:103C90000F0291424FD3012153E000BFFEF760F8BD
:103CA00030B1D5F824E007E0FEF770F80028F8D12D
:103CB000002146E04FF4004046F63461C0F60001B2
:103CC00031F81E106A68B0FBF1F0510801EB4000BA
:103CD000B0FBF2F04FF6EF72A0F11001914207D85D
:103CE0004FF6F0710140C0F34200084423E000BFEA
:103CF000012126E0FEF734F830B1D5F824E007E0E2
:103D0000FEF744F80028F8D100211AE04FF40040F3
:103D100046F63461C0F6000131F81E104FF6EF721E
:103D2000B0FBF1F0696800EB5100B0FBF1F0A0F1DD
:103D30001001914204D82968C860002101E000BF49
:103D400001214FF00110A866002208466A67AA67A1
:103D500070BD00BF01000000040000000200000070
:103D6000080000002DE9F041804600681546C26950
:103D70000E461140891BB1FA81F14909A94223D1AC
:103D8000069C2CB3611C29D1C1693140891BB1FA51
:103D900081F14909A94217D1C1693140891BB1FAA2
:103DA00081F14909A9420FD1C1693140891BB1FA9A
:103DB00081F14909A94207D1C1693140891BB1FA92
:103DC00081F14909A942DFD00020BDE8F08100BFA0
:103DD000FDF70AFB0320BDE8F08100BF1F4607E0A6
:103DE000C0693040801BB0FA80F04009A842EBD196
:103DF000FDF7FAFAC01BA04200F2AE80D8F800002E
:103E000001684907ECD5402EEAD0802EE8D0C16980
:103E1000090700F1A580C1690905E1D54FF40061EA
:103E20000162D8F8000050E8000FD8F8001020F424
:103E3000907041E800020AB3D8F8000050E8000F83
:103E4000D8F8001020F4907041E80002B2B1D8F820
:103E5000000050E8000FD8F8001020F4907041E8FE
:103E600000025AB1D8F8000050E8000FD8F800104E
:103E700020F4907041E80002002AD2D14FF6FE7083
:103E8000CEF6FF70D8F8001051E8021FD8F80020D5
:103E9000014042E80213F3B1D8F8001051E8021FC4
:103EA000D8F80020014042E80213A3B1D8F800106E
:103EB00051E8021FD8F80020014042E8021353B134
:103EC000D8F8001051E8021FD8F80020014042E85D
:103ED0000213002BD6D1D8F86C0001282CD1D8F8C9
:103EE000000050E8000FD8F8001020F0100041E862
:103EF00000020AB3D8F8000050E8000FD8F800100C
:103F000020F0100041E80002B2B1D8F8000050E8FB
:103F1000000FD8F8001020F0100041E800025AB15C
:103F2000D8F8000050E8000FD8F8001020F010007A
:103F300041E80002002AD2D120200021C8F88C00DC
:103F4000C8F86C10C8F87410C8F89000032088F8FE
:103F50008410BDE8F08100BF0320BDE8F08100BF00
:103F600008210162D8F8000050E8000FD8F80010CE
:103F700020F4907041E800020AB3D8F8000050E83D
:103F8000000FD8F8001020F4907041E80002B2B1A0
:103F9000D8F8000050E8000FD8F8001020F4907016
:103FA00041E800025AB1D8F8000050E8000FD8F8F4
:103FB000001020F4907041E80002002AD2D14FF6A0
:103FC000FE70CEF6FF70D8F8001051E8021FD8F846
:103FD0000020014042E80213F3B1D8F8001051E884
:103FE000021FD8F80020014042E80213A3B1D8F81C
:103FF000001051E8021FD8F80020014042E80213E7
:1040000053B1D8F8001051E8021FD8F80020014041
:1040100042E80213002BD6D1D8F86C0001282CD12D
:10402000D8F8000050E8000FD8F8001020F0100079
:1040300041E800020AB3D8F8000050E8000FD8F8B1
:10404000001020F0100041E80002B2B1D8F80000E2
:1040500050E8000FD8F8001020F0100041E80002EE
:104060005AB1D8F8000050E8000FD8F8001020F03E
:10407000100041E80002002AD2D12020C8F88C00AC
:1040800000200821C8F86C00C8F87400C8F8901027
:1040900088F884000120BDE8F081000040F29820FB
:1040A000C2F20000FEF752BBFEE7000080B582B00E
:1040B000019040F29820C2F2000001A901224FF6BF
:1040C000FF73FEF7EDFE019802B080BD94B0FDF7DE
:1040D0009FF9002400200C94CDE90A44CDE908445E
:1040E000FDF772FA012006904FF480300521079009
:1040F00002200F9144210D900325CDE91010CDE948
:10410000120006A80E95FDF781FE28B1EFF310808E
:1041100072B600BFFEE700BF0F20CDE9010501A880
:104120000421CDE903440594FDF758FC20B1EFF3D9
:10413000108072B6FEE700BFFEF7F6FFFEF77EFFC7
:10414000FFF71EF8FEF7A6FF0220002408900120CA
:10415000CDE9090440F2E810C2F2000006A9CDE959
:1041600006440B94FCF7AAFC20B1EFF3108072B662
:10417000FEE700BF40F2E810C2F20000002100227A
:1041800000230094FCF7CAFC20B1EFF3108072B654
:10419000FEE700BF40F2E810C2F200000121002259
:1041A000FCF7A6FB20B1EFF3108072B6FEE700BF6C
:1041B00040F28410C2F20000FDF71EF820B1EFF3C8
:1041C000108072B6FEE700BF40F2E810C2F20000B5
:1041D000FDF712F820B1EFF3108072B6FEE700BFD2
:1041E00005A002F009FE00F0CBF8FEF77FFF00F01B
:1041F000DBF800BFFEE700BF464443414E20537941
:104200007374656D2053746172746564210D0000D0
:10421000F0B581B02DED0A8B90B0044611EE900AF6
:10422000B0EE42BAB0EE61CAB0EE418AB0EE609A2A
:10423000B0EE40AAFCF741F8054632A02A460B46EC
:104240000E4602F05FF90021C1F60B019FED2F0A27
:1042500064F30B21002007914FF080412BEE001AF0
:10426000CDE908100821BDEEC11A2CEE000A0A9112
:1042700011EE101ABDEEC00ACDE9040010EE102AAE
:10428000CDE90B00CDE90D000F90080A8DF8110063
:10429000100A8DF8130040F2841004AF8DF810104E
:1042A0008DF81220C2F2000007A93A46FCF7A6FBDF
:1042B00017A02A46334602F025F902AE0DF10F028F
:1042C00007AB03202146B0EE4A0AF0EE490AB0EEF1
:1042D000481A0097019600F04BFE9DF80F0040F23F
:1042E0001801C2F200010855079801EB84014860EB
:1042F0000498029A0861CA6110B0BDEC0A8B01B043
:10430000F0BD00BF61252E33660A00000000A04406
:1043100062252E33660A0000EFF3058100291CBFD9
:104320006FF005007047002804BF0020704780B57B
:1043300001F0DAF8002080BD10B582B0EFF30581FE
:1043400021B16FF0050002B010BD00BF044601F0BE
:10435000F5FE0146019084426FF0030005D0611A1A
:1043600003D401A801F004F9002002B010BD000040
:10437000EFF30580002808BF01F0E0BE01F0E4BEC5
:10438000EFF3058000281CBF6FF00500704740F276
:104390008010C2F200000168002911BF4FF0FF3009
:1043A000012101600020704710B5EFF3058000285F
:1043B0001CBF6FF0050010BD40F28010C2F200007B
:1043C000016801291CBF4FF0FF3010BD4EF61F5190
:1043D000CEF2000100240C700221016001F0C4F94A
:1043E000204610BD2DE9F04184B08E460024039490
:1043F000EFF3058150B149B94FF0000452B1936910
:10440000002B08BF1823382B16D90024204604B0EF
:10441000BDE8F08180251823002103AF0093AAB2E4
:104420007346019701F00EFE0399012808BF0C4660
:10443000204604B0BDE8F0811179C90724D157693D
:10444000D2E902864FEA970C1168002F654608BF33
:104450008025B8F1000F13D05C2E15D3126900240B
:10446000002A18BF002FD1D0CDE900326246734632
:10447000CDF8088001F016FE04B0BDE8F08100BF61
:1044800016B91269002AC8D00024204604B0BDE83D
:10449000F08100002DE9F041044600F0B3FE40F247
:1044A0007806C2F20006F06840F21C450130F06068
:1044B0003068C2F2000558B13069002840F0078129
:1044C0003068E16AC06A884298BF3460FFE000BF8C
:1044D0003460F068012840F0FA80284600F038FE89
:1044E00005F1140000F034FE05F1280000F030FE64
:1044F00005F13C0000F02CFE05F1500000F028FE14
:1045000005F1640000F024FE05F1780000F020FEC3
:1045100005F18C0000F01CFE05F1A00000F018FE73
:1045200005F1B40000F014FE05F1C80000F010FE23
:1045300005F1DC0000F00CFE05F1F00000F008FED3
:1045400005F5827000F004FE05F58C7000F000FEA9
:1045500005F5967000F0FCFD05F5A07000F0F8FD83
:1045600005F5AA7000F0F4FD05F5B47000F0F0FD5B
:1045700005F5BE7000F0ECFD05F5C87000F0E8FD33
:1045800005F5D27000F0E4FD05F5DC7000F0E0FD0B
:1045900005F5E67000F0DCFD05F5F07000F0D8FDE3
:1045A00005F5FA7000F0D4FD05F5027000F0D0FDBD
:1045B00005F5077000F0CCFD05F50C7000F0C8FDA6
:1045C00005F5117000F0C4FD05F5167000F0C0FD92
:1045D00005F51B7000F0BCFD05F5207000F0B8FD7E
:1045E00005F5257000F0B4FD05F52A7000F0B0FD6A
:1045F00005F52F7000F0ACFD05F5347000F0A8FD56
:1046000005F5397000F0A4FD05F53E7000F0A0FD41
:1046100005F5437000F09CFD05F5487000F098FD2D
:1046200005F54D7000F094FD05F5527000F090FD19
:1046300005F5577000F08CFD05F55C7000F088FD05
:1046400005F5617000F084FD05F5667000F080FDF1
:1046500005F56B7000F07CFD05F5707000F078FDDD
:1046600005F5757000F074FD05F57A7000F070FDC9
:1046700005F57F7000F06CFD05F5826000F068FDC7
:1046800005F2244000F064FD05F5876000F060FD50
:1046900005F24C4000F05CFD40F25418C2F20008F4
:1046A000404600F055FD08F11407384600F050FD73
:1046B00006F1640000F04CFD06F13C0000F048FDFE
:1046C00006F1500000F044FDC6F81C8037627068A7
:1046D000716A421CE06A72608842626488BF7062DC
:1046E00000EB800005EB8000211D00F073FD00F061
:1046F000ADFD306988B13068E16AC06A884228BF80
:10470000BDE8F0814EF60450CEF200004FF080512B
:104710000160BFF34F8FBFF36F8FBDE8F0810000E2
:1047200040F2780540F21C464EF60458C2F20005ED
:10473000C2F20006CEF200084FF0805703E000BF3F
:10474000204600F09BFDA868D0B100F05BFDA86C8E
:10475000C468201D00F0CEFCE8680138E860A86855
:104760000138A86000F072FD94F859000228EAD0E0
:104770000128E5D070B9206B00F080FDE0E700BFB4
:1047800030680228DFD3C8F80070BFF34F8FBFF343
:104790006F8FD8E74FF0500080F31188BFF36F8F11
:1047A000BFF34F8FFEE700002DE9F0470A9C8246D9
:1047B000206B16460F46DDE908599100A522984660
:1047C000FBF769FD206B002F00EB8600A0F10400D1
:1047D00020F0070656D0387884F83400387800285E
:1047E0004BD0787884F835007878002845D0B878B0
:1047F00084F83600B87800283FD0F87884F837007D
:10480000F878D0B3387984F838003879A8B3787953
:1048100084F83900787980B3B87984F83A00B879A7
:1048200058B3F87984F83B00F87930B3387A84F8D3
:104830003C00387A08B3787A84F83D00787AE0B1A1
:10484000B87A84F83E00B87AB8B1F87A84F83F00B4
:10485000F87A90B1387B84F84000387B68B1787B77
:1048600084F84100787B40B1B87B84F84200B87B83
:1048700000281CBFF87B84F84300002084F8430024
:1048800003E000BF002084F834000027201D372DEE
:1048900028BF3725E562C4E9135700F065FC04F131
:1048A000180000F061FCC5F13800A06130465146A7
:1048B000424624616462676584F8587084F85A70CF
:1048C00000F042FBB9F1000F206018BFC9F80040AA
:1048D000BDE8F08708480068006880F308884FF05A
:1048E000000080F3148862B661B6BFF34F8FBFF348
:1048F0006F8F00DF00BF000008ED00E081B00020F6
:10490000009040F21400C2F2000000684FF0500125
:1049100081F31188BFF36F8FBFF34F8F013007D042
:10492000FEE700BF009830B9009820B9009810B990
:1049300000980028F6D001B07047000088B040F21F
:10494000F00AC2F2000A0DF11009EB46DAF808008D
:1049500005681DB1C068046801E000BF002400F0D4
:104960007BFF01F0EBFBDAF810100646884220D3FB
:10497000002DCAF8106051D0A6424FD301F0F0FCD0
:10498000DAF80800C068C7683D1D284600F0B2FB91
:1049900097F82800410745D400F0FE0087F828006A
:1049A00084E000BF6860DAF8080039462D6100F045
:1049B000DFFBDAF80800016831B3C068C568046835
:1049C0002F1D384600F096FB296A2846884795F83F
:1049D00028004007EDD5A8692044A042E2D8DAF8C3
:1049E0000000002800F04881002004A931C101F036
:1049F00095FBDAF8000049460022002301F0DCF8BC
:104A00000028D6D138E100BFDAF80C10CAF81060DF
:104A1000CAE9021001F0A4FC1AE100BF65B100224E
:104A200010E000BFB8693F610119B14279601FD938
:104A30000AF1080021E000BFDAF80C000068B0FAC3
:104A400080F04209DAF80000A11B00F023FD01F01C
:104A500087FC002840F0FC804EF60450CEF20000A7
:104A60004FF080510160BFF34F8FBFF36F8FEFE0C6
:104A7000311B814206D20AF10C000068294600F081
:104A800077FB13E0DAF80000002800F01381002023
:104A900004A991C101F042FBDAF800004946002266
:104AA000002301F089F8002800F00481396A3846B3
:104AB0008847CDE00098B0F1FF3F07DCDDE9012039
:104AC000039990470098002800F1C280029E706907
:104AD00010B1301D00F00EFB01F030FBDAF81010C1
:104AE000074688420DD30098CAF8107009283FD9AC
:104AF000AEE000BF6860DAF8080021462D6100F0E2
:104B000037FBDAF80800016841B3C068C568D0F81F
:104B100000802C1D204600F0EDFA296A28468847BF
:104B200095F828004007ECD5A86940444045E1D8F5
:104B3000DAF80000002800F095800020CDE9040894
:104B4000069501F0EBFADAF800004946002200234E
:104B500001F032F80028D4D184E000BFDAF80C105C
:104B6000CAE902100098CAF81070092800F2708093
:104B7000DFE800F00606064448620606444800BF27
:104B800096F82800019A40F00101B06986F82810D3
:104B90008318314641F8043FBB42366106D997423B
:104BA0000AF1080007D293420AD204E0BA1A8242FC
:104BB00006D20AF10C00006800F0DAFA48E000BF03
:104BC000316A3046884796F82800400740D5DAF821
:104BD000000000285AD00198B169069608440021C7
:104BE000CDE9041001F09AFADAF8000049460022F3
:104BF000002300F0E1FF58BB48E000BF96F8280012
:104C000022E000BF96F8280040F00101019886F8E4
:104C100028100028B06143D0384431460AF10C0214
:104C200041F8040F3661B84288BF0AF108021068E3
:104C300000F09EFA0CE000BF96F82800810703D42C
:104C4000304600F01BFB03E000F0FE0086F8280071
:104C5000DAF800005946002201F0C4F800287FF479
:104C600029AF73E64FF0500080F31188BFF36F8FC8
:104C7000BFF34F8FFEE700BF4FF0500080F3118865
:104C8000BFF36F8FBFF34F8FFEE700BF4FF05000B1
:104C900080F31188BFF36F8FBFF34F8FFEE700BF24
:104CA0004FF0500080F31188BFF36F8FBFF34F8F29
:104CB000FEE700BF4FF0500080F31188BFF36F8F05
:104CC000BFF34F8FFEE70000F0B581B0044600F05F
:104CD00099FA94F94560012E0FDB04F1240500BF19
:104CE000286850B1284601F001FB002818BF00F0E9
:104CF000B3FCF0B2013E0128F2D8FF2684F84560EB
:104D000000F0A4FA00F07EFA94F94470012F0EDB53
:104D100004F11005286850B1284601F0E7FA002890
:104D200018BF00F099FCF8B2013F0128F2D884F8CE
:104D3000446001B0BDE8F04000F088BA70B50446A8
:104D400000F08AFD40F22C1CC2F2000CDCF80400DA
:104D500050B19CF80000002818BF4FF000404FF001
:104D6000000574BB8DE000BF40F67C00C2F200007D
:104D7000C21D22F0070210F00701A0EB020318BFCA
:104D8000104600224FF44065CCE90602002918BF06
:104D900003F54065411921F00701A1F10803CCF8A2
:104DA000043041E90222191AC0E9003101208CF8CF
:104DB00000004FF00040CCE90211002C4FF000053C
:104DC0005FD020405DD124F0070000F110026007A1
:104DD00008BF04F10802002A4FF0000551D0DCF8AA
:104DE000080082424DD8604650F818EFDEF80450B3
:104DF00095422CD2DEF80010C1B174464D68954240
:104E000018D20B68B3B15D68954217D21868A8B183
:104E10004568954216D20468A4B16568954215D2DA
:104E20002168A6460029E9D111E000BF0CF1180065
:104E30000DE000BF8E46204609E000BF9E460846B2
:104E400005E000BF8646184601E000BFA646DCF834
:104E500004108E4514D00168DEF80040AB1A112B07
:104E600004604DD30EEB0205680719D04FF05000D7
:104E700080F31188BFF36F8FBFF34F8FFEE700BF42
:104E8000002501F06DFA68075BD04FF0500080F309
:104E90001188BFF36F8FBFF34F8F00BFFEE700BFD6
:104EA0000CF118006B60CEF8042000BF0368AB4221
:104EB0000AD21868A8420BD20368AB4204D2186821
:104EC0001A46A842F2D304E00246184601E000BFA9
:104ED0001A4653686C68D618AE4202D11C44154677
:104EE00054602B19834207D1DCF80430984203D078
:104EF000D0E9000323446B60AA42286018BF156004
:104F000001F10805DEF80400DCE90212091A9142F9
:104F1000CCF8081038BFCCF80C109CF80010002911
:104F200018BF40F00040CEF80400DCF8100000216B
:104F30000130CEF80010CCF8100001F011FA68072B
:104F4000A3D1284670BD0000034644F6FD00C0F61C
:104F500000004FF0807C21F0010103E903106FF0A5
:104F6000020043F8240CA3F1440043F8202C7047BE
:104F70002DE9F0472DED028B98B09FED592A9FED5A
:104F8000598A21EE021A81EE081A9FED572A15461A
:104F900020EE823A83EE083A0E464FF4706202EA3F
:104FA000062260F3DC6202F521200F904FF0804072
:104FB00010900020BDEEC11A11EE101A1190CDE92B
:104FC0001300CDE915001790080A0822BDEEC31A98
:104FD00020EE020A8DF83500080C129211EE102A0C
:104FE000BDEEC00A8DF83600080E9A4610EE103A53
:104FF0008DF83700100A8DF83900180A8DF83B003B
:1050000040F284108DF834108DF83820C2F2000080
:105010000FA90DAA8DF83A30FBF7F0FC20B118B0BB
:10502000BDEC028BBDE8F087DDE92298FCF7DCF9E6
:1050300040F2841700F16404C2F2000738464021B0
:10504000FBF790FD50B9FCF7CFF9A042F6D9032049
:1050500018B0BDEC028BBDE8F08700BF40F28410B1
:10506000C2F2000003AA01AB4021FBF785FD002836
:10507000D5D10398C0F30321B1422BD12870BDF8DC
:105080000A009FED1A1A00EE100ABDF80810B8EEDB
:10509000400A20EE010A8AED000A00EE101AB8EE6E
:1050A000400A019A20EE010A20EE080A89ED000A62
:1050B00000EE102A9FED0E1AB8EE400A20EE010A0B
:1050C00020EE080A002088ED000A18B0BDEC028B23
:1050D000BDE8F087012018B0BDEC028BBDE8F08779
:1050E00000000047D00FC940000080430000803B13
:1050F00000000038D0E9013201699A60D1F804C09B
:1051000082688445536008BF4A60002202610868D3
:10511000013808600868704741F28063C2F20003FA
:10512000036041F28040C2F20000086080201060FD
:105130007047000041F6DC23C2F20003036041F235
:10514000DC60C2F2000008604FF4807010607047AD
:105150004FF0FF31024642F8081F00214260C0E9CB
:1051600003220160704700000021016170470000C8
:1051700010B5D1F800E01EF1010213D000F10804CF
:1051800062681368734511D853681C68744511D858
:105190005A68146874450FD854682368A446734548
:1051A000EED90BE00269D2F804C007E0944622462B
:1051B00004E000BF9C4601E094461A46C1F804C0D2
:1051C000CCF808108A605160086101680131016003
:1051D00010BD0000D0F800C0436808619A684B60B9
:1051E0008A609A68996051600CF101010160704712
:1051F000DFF80C00016841F47001016070470000A5
:1052000088ED00E04FF0500080F31188BFF36F8FFE
:10521000BFF34F8F40F21400C2F2000001684A1C35
:10522000026009B1704700BF4EF60450CEF2000094
:105230000068000608BF70474FF0500080F31188E7
:10524000BFF36F8FBFF34F8FFEE7000040F21400F3
:10525000C2F20000016839B10139016018BF70471E
:10526000002080F3118870474FF0500080F31188C0
:10527000BFF36F8FBFF34F8FFEE7000070B50028BC
:1052800008BF70BD40F22C15C2F200050446287814
:1052900054F8041C002818BF4FF0004008420DD0FD
:1052A000A4F1080632689AB14FF0500080F31188DB
:1052B000BFF36F8FBFF34F8FFEE700BF4FF050007B
:1052C00080F31188BFF36F8FBFF34F8FFEE700BFEE
:1052D00021EA000044F8040C00F0BEFA54F8041C63
:1052E000A8680844A86005F1180000BF0368B3422D
:1052F0000AD21868B04225D20368B34204D21868B3
:105300001A46B042F2D301E0024618465368D41858
:10531000B44202D11944164651607318834206D133
:105320006B68984203D0D0E9000319447160B2421F
:10533000306018BF1660686901306861BDE8704070
:1053400001F00EB81A465368D418B442E5D1E1E72B
:105350004EF21000CEF2000000210160816040F2A8
:105360000C01C2F20001096844F6D352C1F2620294
:10537000A1FB02124FF0FF3101EB921141600721B6
:105380000160704740F24C10EFF305811029C2F222
:10539000000011D34EF2F032CEF20002895C0278A6
:1053A000914209D24FF0500080F31188BFF36F8F04
:1053B000BFF34F8FFEE700BF4EF60C51CEF2000157
:1053C0000968406801F4E061814298BF70474FF07E
:1053D000500080F31188BFF36F8FBFF34F8F00BF72
:1053E000FEE7000041F6383CC2F2000CDCF8002079
:1053F00022B3634653F8082F42B3634653F8102F85
:1054000052B3634653F8182F62B3634653F8202F04
:1054100072B3634653F8282F82B3634653F8302F94
:1054200092B3634653F8382F002A18BF70470722FB
:1054300019600CEBC2014860704700BF0022634650
:1054400019600CEBC2014860704700BF012219606F
:105450000CEBC20148607047022219600CEBC201DC
:1054600048607047032219600CEBC2014860704726
:10547000042219600CEBC2014860704705221960D4
:105480000CEBC20148607047062219600CEBC201A8
:105490004860704770B515460E460446FFF7B2FEE9
:1054A00094F84400FF2804BF002084F8440094F8D6
:1054B0004500FF2804BF002084F84500FFF7C6FE22
:1054C000A06B28B12046BDE87040FFF7FDBB00BFD0
:1054D00004F1240031462A4600F004F92046BDE8D4
:1054E0007040FFF7F1BB000070B5A8B340F278053B
:1054F000C2F200050446686950B14FF0500080F3D5
:105500001188BFF36F8FBFF34F8F00BFFEE700BF5F
:105510006869002101306861AE69286880F85A1016
:1055200028680430FFF7E6FD2868A419446005D315
:10553000286A29680431FFF71BFE08E0E86929683A
:105540000431FFF715FEE86A844238BFEC6200F0D0
:1055500007FF002818BF70BD4EF60450CEF20000C1
:105560004FF080510160BFF34F8FBFF36F8F70BD5D
:1055700070B588B1D1B140F27804C2F2000462691A
:10558000F2B14FF0500080F31188BFF36F8FBFF37B
:105590004F8F00BFFEE700BF4FF0500080F311882F
:1055A000BFF36F8FBFF34F8FFEE700BF4FF0500088
:1055B00080F31188BFF36F8FBFF34F8FFEE700BFFB
:1055C000626901326261A26903689A42194403D296
:1055D000994203D31AE000BF994201D3914215D9F1
:1055E0000160A5692068002380F85A3020688E1A6F
:1055F0000430FFF77FFD2068AD19456008D3206AAD
:1056000021680431FFF7B4FD0BE000BF016008E042
:10561000E06921680431FFF7ABFDE06A854238BFDD
:10562000E56200F09DFE002818BF70BD4EF60450E4
:10563000CEF200004FF080510160BFF34F8FBFF3F7
:105640006F8F70BD40F27801C2F200018A6B026078
:10565000896941607047000040F27800C2F20000A2
:10566000012101637047000070B5F8B140F2780481
:10567000C2F200040D4621681831FFF779FDA669D2
:105680002068002180F85A1020680430FFF732FDAE
:10569000681C15D02068AD19456019D3206A2168AF
:1056A0000431BDE87040FFF763BD00BF4FF050000C
:1056B00080F31188BFF36F8FBFF34F8FFEE700BFFA
:1056C00054F8500B011D2046BDE87040FFF782BD25
:1056D000E06921680431FFF74BFDE06A854238BF7D
:1056E000E56270BDF0B581B0E0B140F27804C2F27D
:1056F00000040D46216816461831FFF76BFDA769B7
:105700002068002180F85A1020680430FFF7F2FC6E
:1057100096B154F8500B011D204601B0BDE8F04091
:10572000FFF758BD4FF0500080F31188BFF36F8F23
:10573000BFF34F8FFEE700BF2068ED19456007D328
:10574000206A2168043101B0BDE8F040FFF710BDC8
:10575000E06921680431FFF70BFDE06A854238BF3C
:10576000E56201B0F0BD000010B588B00020CDE9C1
:10577000050006A805A904AAFFF7CEFC0598002895
:105780003ED0069C002C45D05C21049A07910799D5
:105790005C2949D107992063022084F8590007A8A1
:1057A0000021CDE9001044F22170C0F6000028A1CC
:1057B00000230294FEF7F8FF2046FEF76BFE0798E1
:1057C00040F27804C2F20004A062B0B100F040FEE2
:1057D000411C33D0012810D14FF0500080F31188C4
:1057E000BFF36F8FBFF34F8F4FF0FF30E0620120A8
:1057F00020610020A06100F095F808B010BD00BF46
:105800004FF0500080F31188BFF36F8FBFF34F8FBD
:10581000FEE700BF4FF0500080F31188BFF36F8F99
:10582000BFF34F8FFEE700BF4FF0500080F31188A9
:10583000BFF36F8FBFF34F8FFEE700BF4FF05000F5
:1058400080F31188BFF36F8FBFF34F8FFEE700BF68
:1058500049444C450000000040F27800C2F20000CC
:10586000416901314161704780B540F2780EC2F262
:10587000000EDEF8141019B10121CEF8301080BDF1
:105880000021CEF83010DEF8241040F21C4C01EB61
:105890008103C2F2000C5CF823208AB101EB810283
:1058A0000CEB820353F8042F5268181D82421A60D1
:1058B00020D0D068CEF80000CEF8241080BD00BF04
:1058C0000CEB8302A2F12803E1B15A6922BB012942
:1058D00018D01A6812BB022914D053F8142CFAB944
:1058E00003290FD053F8282C0439002AA3F15003C0
:1058F000EAD0D3E752681A60D068CEF80000CEF83C
:10590000241080BD4FF0500080F31188BFF36F8FDB
:10591000BFF34F8FFEE700BF0139BFE70239BDE794
:105920000339BBE7B0B584B04EF2004CCEF2000CA8
:105930004CF27021C4F20F11DCF800294B1C9A4282
:105940000AD14FF0500080F31188BFF36F8FBFF37F
:105950004F8F00BFFEE700BFDCF800298A4209D163
:105960004FF0500080F31188BFF36F8FBFF34F8F5C
:10597000FEE700BF9CF800100291FF218CF8001098
:105980009CF800108DF807109DF8071001F05002E8
:1059900040F24C11C2F200010A7007224A609DF9E0
:1059A0000720B2F1FF3F69DC032200BFD31C4B602C
:1059B0009DF8070040008DF807009DF90700B0F141
:1059C000FF3F23DC931C4B609DF8070040008DF8DF
:1059D00007009DF90700B0F1FF3F17DC531C4B6037
:1059E0009DF8070040008DF807009DF90700B0F111
:1059F000FF3F0BDC4A609DF80700043A40008DF839
:105A000007009DF907000028D0D4131D032B35D1C2
:105A10004FF44070486002988CF80000DCF82009D0
:105A200040F47000CCF82009DCF8200940F0704008
:105A3000CCF82009FFF78CFC40F21404C2F20004F9
:105A400000252560FFF7D4FB4EF63470CEF200003F
:105A5000016841F040410160FEF73CFFFFF704FFA1
:105A6000039520684FF0500181F31188BFF36F8FC9
:105A7000BFF34F8F013011D0FEE700BF4FF0500051
:105A800080F31188BFF36F8FBFF34F8FFEE700BF26
:105A9000039830B9039820B9039810B903980028E7
:105AA000F6D0002004B0B0BD80B54FF0500080F3B8
:105AB0001188BFF36F8FBFF34F8F00F04FFB30B1F2
:105AC0004EF60450CEF200004FF0805101600020ED
:105AD00080F3118880BD000070B582B070B11C46A3
