:020000040800F2
:1000000048060020ED010008F1330008C12C00086B
:10001000ED33000899070008653C00080000000067
:10002000000000000000000000000000F93300089C
:100030009D07000800000000F5330008FD330008AC
:10004000070200080702000807020008070200086C
:10005000070200080702000807020008070200085C
:10006000070200080702000807020008070200084C
:10007000070200080702000807020008070200083C
:10008000070200080702000807020008070200082C
:1000900007020008AD070008070200080702000871
:1000A000070200080702000807020008070200080C
:1000B00007020008070200080702000807020008FC
:1000C00007020008070200080702000807020008EC
:1000D00007020008070200080702000807020008DC
:1000E00007020008070200080702000807020008CC
:1000F00007020008070200080702000807020008BC
:1001000007020008070200080702000807020008AB
:10011000070200080702000807020008070200089B
:10012000070200080702000807020008070200088B
:10013000070200080702000807020008070200087B
:10014000070200080702000807020008000000007C
:10015000000000000000000000000000000000009F
:10016000000000000000000000000000070200087E
:10017000070200080702000807020008070200083B
:10018000070200080702000807020008070200082B
:1001900007020008000000002D0800080702000800
:1001A000AD0800080702000807020008070200085F
:1001B00007020008070200080702000807020008FB
:1001C00007020008070200080702000807020008EB
:1001D0000702000807020008DFF80CD000F0CAFA96
:1001E00000480047693C0008480600200648804750
:1001F00006480047FEE7FEE7FEE7FEE7FEE7FEE70C
:10020000FEE7FEE7FEE7FEE701340008D90100083B
:100210002DE9F05F0546002092469B46884606463B
:10022000814640241BE0284641464746224600F0CE
:10023000F2F953465A46C01A914110D31146184656
:10024000224600F0D9F92D1A67EB01084F462246E5
:100250000120002100F0D0F917EB00094E41201ECB
:10026000A4F10104DFDC484631462A464346BDE896
:10027000F09FD2B201E000F8012B491EFBD270477B
:100280000022F6E710B513460A4604461946FFF762
:10029000F0FF204610BD2DE9FE4F804681EA0300A5
:1002A000C00F0C46009021F0004123F00045B8EB50
:1002B0000200A94105D24046214690461C460B4605
:1002C000024623F00040104347D0270DC7F30A0031
:1002D000C3F30A510290401A019040286BDAC3F32D
:1002E000130040F4801B0098924620B10023D2EB0B
:1002F000030A63EB0B0B01985946C0F140025046CC
:1003000000F07AF906460D4650465946019A00F02B
:1003100092F910EB08006141002487EA115284EA47
:10032000E7731A4340D0009A62B3019A012A4FEA58
:10033000075215DC001B61EB02014FF0004202EA9C
:100340000752CDE90042001C41F5801132462B4690
:1003500000F092F903B0BDE8F08F40462146F9E77E
:10036000001B61EB0201001C41F5801300185B418A
:100370002018A2F5001747EB030140EAD570B61923
:100380006D4111E06D084FEA360645EAC0754FEA47
:100390000752001B61EB0201001C41F58011490866
:1003A0004FEA30000019514132462B4603B0BDE8F8
:1003B000F04F00F052B90098012240000023D0EB2A
:1003C000020263EBE073009821464FEAE074B8EB59
:1003D000000061EB0401E9E783F000435BE781F093
:1003E000004158E72DE9FE4F81EA030404F0004480
:1003F00021F0004100944FF0000B23F0004350EA3D
:1004000001045ED052EA03045BD0C3F30A54C1F383
:100410000A552C44A4F2F3340194A0FB0254C1F316
:10042000130141F48011C3F3130343F4801301FB60
:10043000024400FB034E840A970A44EA815447EAC7
:100440008357A4FB076802958D0A05FB07854FEAD1
:10045000932C04FB0C542705029D4FEA065847EAEB
:100460001637B5EB08056EEB070C870E920E47EAC0
:10047000811742EA8312A7FB0201B6EB0B0164EB82
:1004800000042B0D43EA0C335E1844EB1C50DA4693
:100490005146E7FB0201C5F313044FEA0B3343EA6D
:1004A00014534FEA0432019C43EA0603A4F10C04FE
:1004B0000294009CCDE900B400F0DEF803B0BDE882
:1004C000F08F00200146F9E72DE9F04D81EA0304A1
:1004D00004F0004B21F0004514464FF0000A23F0D1
:1004E000004150EA050220D054EA01021DD0C5F3B4
:1004F0000A570246C5F31303C1F31300C1F30A56AA
:1005000040F4801543F48013A7EB0608101BD64671
:1005100008F2FD3873EB050002D308F1010801E091
:1005200092185B41B8F1000F03DA00200146BDE8E4
:10053000F08D00204FF48011064684460EE0171B14
:1005400073EB050705D3121B63EB050306434CEA67
:10055000010C49084FEA300092185B4150EA01074C
:10056000EDD152EA030012D082EA040083EA0501C9
:10057000084305D0101BAB4106D20122002306E040
:1005800000224FF0004302E06FF0010253101AEB1B
:1005900006004CEB085110EB0A0041EB0B01BDE8E3
:1005A000F04D00F05AB800F0004230F000400AD0A0
:1005B000C10D01F56071C0F3160042EA0151C20895
:1005C00040071143704700200146704730B50B4685
:1005D000014600202022012409E021FA02F59D4273
:1005E00005D303FA02F5491B04FA02F52844151E47
:1005F000A2F10102F1DC30BD202A04DB203A00FA2E
:1006000002F1002070479140C2F1200320FA03F369
:10061000194390407047202A04DB203A21FA02F067
:100620000021704721FA02F3D040C2F1200291402C
:10063000084319467047202A06DBCB17203A41FAB7
:1006400002F043EAE07306E041FA02F3D040C2F15F
:100650002002914008431946704710B5141E73F1EB
:10066000000408DA401C41F1000192185B411A4372
:1006700001D120F0010010BD2DE9F04D92469B46BE
:1006800011B1B1FA81F202E0B0FA80F22032904664
:10069000FFF7B2FF04460F4640EA0A0041EA0B01A9
:1006A00053465A46084313D0114653EA010019D065
:1006B000C8F140025046FFF7AEFF05460E465046D1
:1006C00059464246FFF798FF084305D0012004E051
:1006D00020463946BDE8F08D0020054346EAE07625
:1006E0002C4337430A986305E40AA0EB0800002274
:1006F000FD0A44EA47540A3002D500200146E9E7E2
:10070000010510196941DDE9084500196941BDE895
:10071000F04DA2E7C1F30A52C1F3130140F2FF33D7
:1007200041F480119A4202DA00200146704740F2FB
:1007300033439A42A2F2334202DC5242FFF76BBFCC
:10074000FFF75ABF30B5041E71F1000404DB4FF00F
:100750000044404264EB0101141E73F1000405DB08
:100760001C464FF00043524263EB0403994208BF1A
:10077000904230BD064C074D06E0E06840F00103B2
:1007800094E8070098471034AC42F6D3FFF728FDF1
:100790000047000820470008FEE7000070470000FF
:1007A000EFF3108072B600BFFEE7000040F23000A9
:1007B000C2F2000000F0C4BA10B588B000240120D5
:1007C000CDE905046FF06040079040F23000C2F2BE
:1007D000000002A9CDE90244049400F0A7F9002822
:1007E00018BFFFF7DDFF40F23000C2F20000002129
:1007F00000220023009400F0C9F9002818BFFFF779
:10080000CFFF40F23000C2F200000121002200F0D0
:10081000A7F8002818BFFFF7C3FF40F23000C2F26C
:10082000000000F0B5FD08B010BD000040F29400DB
:10083000C2F2000000F084BA10B588B00024022093
:10084000CDE905046FF06040079040F29400C2F2D9
:10085000000002A9CDE90244049400F067F90028E1
:1008600018BFFFF79DFF40F29400C2F20000012183
:1008700001220023009400F089F9002818BFFFF737
:100880008FFF40F29400C2F200000821002200F025
:1008900067F8002818BFFFF783FF40F29400C2F208
:1008A000000000F075FD08B010BD000040F2F80037
:1008B000C2F2000000F044BA10B588B00024022053
:1008C000CDE905046FF06040079040F2F800C2F2F5
:1008D000000002A9CDE90244049400F027F90028A1
:1008E00018BFFFF75DFF40F2F800C2F200000121DF
:1008F00001220023009400F049F9002818BFFFF7F7
:100900004FFF40F2F800C2F200000821002200F080
:1009100027F8002818BFFFF743FF40F2F800C2F2A3
:10092000000000F035FD08B010BD000080B58CB0AF
:1009300000200990CDE90700CDE90500CDE90200CE
:10094000212001900820049040F29400C2F200009F
:1009500001A90AAA8DED0A0A00F088F80CB080BD42
:1009600010B590F85C30013B012B69D8006811F09C
:10097000070ED0F858C00CF0010300D01BB311F0E3
:10098000380F02D01CF002041DD011F4E07F02D019
:100990001CF0040417D011F4F05F02D01CF008041E
:1009A00011D011F4604F02D01CF010040BD011F4E0
:1009B000403F02D01CF0200405D011F47C0F06D07B
:1009C0001CF0400403D1C46D44F00104C465BEF1C1
:1009D000000F18BF002B3BD111F0380F18BF1CF0CF
:1009E000020335D111F4E07F18BF1CF004032FD1AE
:1009F00011F4F05F18BF1CF0080329D111F4604F07
:100A000018BF1CF0100323D111F4403F18BF1CF095
:100A100020031DD111F47C0F18BF1CF0400317D127
:100A20000B061BD4CB0504D5D0F8E0301A43C0F830
:100A3000E02000F15402002013681943116010BD3A
:100A400000F160020120022113681943116010BDFA
:100A5000C36D43F00203C3650B06E3D5D0F8DC3069
:100A60001343C0F8DC30CB05E3D5DDE72DE9F041D9
:100A700090F85C30022B15D10668D6F8C4309B0282
:100A800018D4D6F8C430D1E90075D1F808E00C6963
:100A9000C3F3014CB5B144EA070343EA0E0343F044
:100AA000804E13E0016E41F0080101660120BDE8AF
:100AB000F08100BF016E41F4007101660120BDE8C4
:100AC000F08100BF44EA87434EEA030ED1E907579D
:100AD000D1E9058445EA0765CB682C43456D44EAB6
:100AE00008040CEBCC0744EA034405EBC70345F8C4
:100AF00037E05C60CF6887B144F2C46508330332E5
:100B00000024C0F6000500BF171957F8037C1F51D9
:100B1000CF680434EF5DBC42F6D3012101FA0CF139
:100B2000C6F8CC1081650020BDE8F08180B590F852
:100B30005C20013A012A13D80A68BAB101F1040E07
:100B4000D1E904319EE80450406C43EA4E7E41EA0C
:100B50008C7100EBC20340F832E00020596080BD88
:100B6000016E41F002010166012080BDD1E903233D
:100B7000D1E901CED206496942EA8E7242EA0342C5
:100B8000006C114340F82C10002080BD80B590F817
:100B90005CC0BCF1010F13D100689200D0F880C096
:100BA000DDF808E042EA011141EA43012CF03F0C74
:100BB00041EA0E0141EA0C01C0F88010002080BD1E
:100BC000016E41F004010166012080BD7047000004
:100BD000704700002DE9F04390F85C70022F1BD1A4
:100BE000D0F800C040291FD1DCF890703F0700F01A
:100BF0009D80DCF89070FF0146BFDCF88070C7F381
:100C000040270027DCF89060C6F3012606EB070CAE
:100C100000F148071DE000BF016E41F008010166C8
:100C20000120BDE8F08300BFDCF898703F077DD05D
:100C3000DCF89870FF0146BFDCF88070C7F300272E
:100C40000027DCF89860C6F3012606EB070C00F1DC
:100C50004C073F680CEBCC0657F8365007EBC60E36
:100C600015F08045556057F8365025F0604408BFB0
:100C7000C5F38A44146057F8365005F00055956066
:100C800057F8364004F000441461BEF80440D461C3
:100C9000BEF8064014F00F04D460DEF8044004F4FB
:100CA00080145461DEF8044004F4001494619EF84A
:100CB000074004F07F041462DEF804404FEAD47465
:100CC000546228D044F2C4680024C0F6000800BF73
:100CD0000EEB0406377A651C1F55D76818F80770A5
:100CE000BD4218D2757A1F197D70D56818F8059025
:100CF000A51C4D450FD2B57ABD70D56818F8059082
:100D0000E51C4D4507D2F57A0434FD70D56818F816
:100D10000550AC42DCD3006840290CBFC0F894C039
:100D2000C0F89CC00020BDE8F08300BF016E41F414
:100D3000807101660120BDE8F0830000704700006B
:100D40002DE9F04F85B004460068016D426DD0F882
:100D500050B0456D076D466D036D01EA02080493BE
:100D6000436D0393036D0293436D0193D0F854A038
:100D7000D0F850905FEA496307D51AF0400104D0DB
:100D8000402101652046FFF7D9FF0BEA050B5FEA1A
:100D9000C95008F4E0550ED51AF480700BD02068C5
:100DA000D0F8D810D0F8E02011404FF480720265DE
:100DB000204600F007FB37400BF007062DB12068F6
:100DC00029460565204600F001FB07F038052EB1E5
:100DD000206831460665204600F0A8FA2DB120684B
:100DE00029460565204600F0A3FA5FEA895009D537
:100DF0001AF4007006D020684FF400710165204697
:100E000000F0E6FA5FEA09600DD51AF080000AD01A
:100E10002068D0F8D410D0F8DC2011408022026580
:100E2000204600F0D1FA5FEA894009D51AF4005053
:100E300006D020684FF400510165204600F0C0FA4A
:100E40005FEA0940DDE9011000EA010509D51AF45D
:100E5000004006D020684FF400410165204600F0B4
:100E6000ADFADDE9031008405FEA494105F460216D
:100E70000AD51AF4804207D022684FF480431365E4
:100E8000226E42F08002226600F4710521B12068D2
:100E900001652046FFF79CFE25B120680565206EA0
:100EA00028432066206E28B1204605B0BDE8F04FEB
:100EB000FFF78CBE05B0BDE8F08F000070B5D8B16B
:100EC000044690F85C0028B9002084F85D002046B4
:100ED00000F01EF92068816921F01001816100F0A5
:100EE0004FFB054620688169090707D500F048FBDC
:100EF000401B0B28F6D312E0012070BD816941F040
:100F00000101816100F03CFB054600BF206881695A
:100F1000C9070DD100F034FB401B0B28F6D3206E1F
:100F2000032140F001002066012084F85C1070BDB0
:100F3000826946F2004CC4F2000C42F002026045A5
:100F4000826102D16268CCF80021227C8369012A87
:100F500023F0400318BF40338361627C8369012A18
:100F600023F4804308BF03F580438361A27C836937
:100F7000012A23F4805318BF03F5805383618269EB
:100F8000D4E902E322F4407545EA0E0585618569DE
:100F900025F0A4058561056925F0100505619BB163
:100FA000012B0DD0022B09D08569032B45F080055C
:100FB0008561056945F01005056105D1202300E034
:100FC000042385692B43836104F114052ACD226A29
:100FD0005E1E6FF0FF0303EB052545EA4665013A07
:100FE0002A430025CFF6FF7505EB01411143BEF5FD
:100FF000407FC16110D1D4E909E2D4E90B61013A23
:1010000003EB06231A436FF00F0303EB01111143A7
:1010100005EB0E421143C160D4E90D13E26BD0F829
:10102000C0603243C0F8C0200CF580660CF58042E9
:10103000B04204BF4AF25072C4F200020CF50066DE
:10104000B04208BF02F5D4622264D0F8806026F472
:10105000F81646EA0141C0F8801002F1700161649F
:10106000D0F8801021F0706141EA0361C0F880106F
:1010700002F1B000A06402F5C470E06402F51870DB
:10108000206502F51E70606502F55470002100BFF6
:10109000C2E90011C2E90211C2E90411C2E9061154
:1010A000C2E90811C2E90A11C2E90C11C2E90E1124
:1010B000C2E91011C2E91211C2E91411C2E91611F4
:1010C000C2E91811C2E91A11C2E91C11C2E91E11C4
:1010D000C2E92011C2E92211C2E92411C2E9261194
:1010E000C2E92811C2E92A11C2E92C11C2E92E1164
:1010F000C2E93011C2E93211C2F8D010D4328242B2
:10110000C6D300200121A065206684F85C1070BD64
:101110002DE9F0419CB0044600201B90CDE9190058
:10112000CDE9170002A85421FFF7AAF8206846F677
:101130000041C4F2000188424AD046F60001C4F2E0
:101140000001884200F0968046F20041C4F200019E
:10115000884240F0E7804FF4805002904FF00070DA
:10116000109002A800F0FAFD002818BFFFF718FB46
:1011700040F22C01C2F200010A6841F24C00C4F2B4
:101180000200531C0B6042B9C16841F00071C1609C
:10119000C16801F0007101910199016841F00101FC
:1011A0000160006817A900F00100019001984FF458
:1011B000C0501790022018900020CDE91900092096
:1011C0001B904FF0904000F005F91524A2E000BFFD
:1011D0004FF4805002904FF00070109002A800F081
:1011E000BDFD002818BFFFF7DBFA40F22C01C2F268
:1011F00000010A6841F24C00C4F20200531C0B606B
:1012000042B9C16841F00071C160C16801F000716C
:1012100001910199016817AC41F001010160016879
:10122000022501F00101019101990168002641F0B8
:101230000201016000680B2700F002000190019894
:101240004FF4004017904FF0904021461895CDE99B
:1012500019661B9700F0BEF8082017A961C140F27B
:101260000040C4F600002146CDE91A6700F0B2F84C
:1012700058244FE04FF4805002904FF000701090CF
:1012800002A800F06BFD002818BFFFF789FA40F2B2
:101290002C01C2F200010A6841F24C00C4F20200C3
:1012A000531C0B6042B9C16841F00071C160C16854
:1012B00001F0007101910199016840F2004441F090
:1012C000020101600068C4F6000400F00200019011
:1012D0000198202017AD1790022600274FF009082B
:1012E000204629461896CDE91976CDF86C8000F095
:1012F00071F8402017A9C1C120462946CDE91A78C6
:1013000000F068F80420C4F201000168562441F49A
:101310008031016020460021002200F045FC20467B
:1013200000F02EFC1CB0BDE8F0810000704700000A
:1013300040F23001C2F20001884218BF704780B508
:1013400098B040F23000C2F2000003AA01AB412184
:10135000FFF740FC40F21000C2F2000000680021DC
:101360001591CDE91311CDE91111CDE90E1121210E
:101370000D910821169040F294001091C2F20000E5
:101380000DA916AAFFF772FB18B0BDE880407047A0
:1013900090F85C1001290BD1022180F85C100168E3
:1013A0008A6922F001028A610021016608467047BD
:1013B000016E41F004010166012070477047000092
:1013C0007047000070470000704700007047000041
:1013D000704700002DE9F04F82B00D68002D00F03D
:1013E000CB8041F2004400F13847C4F600040622E5
:1013F0004FEAB726A04208BF0522052E38BF4FEAA4
:10140000B722002401274FF0000E0026009209E0C9
:101410000D68013635FA06F20EF1040E04F10204ED
:1014200000F0AA8007FA06FB15EA0B08F0D0D1F805
:1014300004A003220AF0030CACF10105A240012D27
:101440006FEA020910D88268CD6802EA0902A54055
:101450002A4382604268CAF3001522EA0B02B540B3
:101460002A43426006E000BFBCF1030F02D14FF0F7
:10147000030C21E0C2688D6802EA0902A5402A43F4
:10148000BCF1020FC26017D16FF0030202EA5602EC
:1014900002440EF01C030F25D2F820C005FA03FA0F
:1014A0000D692CEA0A0C05FA03F343EA0C031362F4
:1014B000D1F804A00AF0030C02680CFA04F302EA63
:1014C00009021A431AF4403F0260A1D041F26003BE
:1014D000C4F202031A6840F2004942F001021A60A5
:1014E0001A68C4F2010902F001020192019A26F081
:1014F00003024FF6084A4A44CFF6FF7A52F80AC070
:101500000EF00C050F23009FAB402CEA030307FAF3
:1015100005F52B4342F80A30D9F808C04B684CEA6D
:101520000805DA0258BF2CEA080540F20C4CC9F84D
:101530000850C4F2010CDCF800209F0242EA0805C2
:1015400058BF22EA0805CCF80050D9F804209D03C2
:1015500042EA080758BF22EA0807C9F80470D9F818
:101560000020DB0342EA080758BF22EA0807C9F84F
:10157000007001274CE700BF02B0BDE8F08F00000B
:1015800040F24420C2F200000068704790F8412009
:10159000202A03D190F84020012A01D1022070476F
:1015A000242280F841200268136823F001031360AD
:1015B000136823F480531360136819431160116892
:1015C00041F001011160202180F84110002180F8D4
:1015D000401008467047000090F84120202A03D1AF
:1015E00090F84020012A01D102207047242280F87F
:1015F00041200268136823F001031360136823F489
:10160000706343EA01211160116841F0010111602A
:10161000202180F84110002180F8401008467047D2
:10162000002804BF0120704710B5044690F841001F
:1016300028B9002084F84000204600F001FA242058
:1016400084F8410094E80910E2680168012A21F059
:101650000101016023F070610161816821F40041A2
:10166000816003D14CF40041816009E04CF40441F5
:10167000022A816004D1416841F4006103E000BFA7
:10168000416821F400614160416804F1100C41F0AF
:10169000007141F400414160C16821F40041C16022
:1016A0009CE80E10114341EA0321C160216A41EA1E
:1016B0000C010160016841F001010160002020215E
:1016C000606484F84110206384F8420010BD00007B
:1016D0002DE9F04782B0044690F84100202803D15C
:1016E00094F84000012803D1022002B0BDE8F08741
:1016F00001201F461546884684F84000FFF740FF4A
:10170000216806468A69120425D4222084F8410003
:10171000102084F842000020606465626785606381
:10172000628D49F6000040F2000ACFF60040B2F5A3
:10173000807FC0F2FF1A27D351F8042F43466FF37E
:101740009F2302EA00070AF51055FF2229E000BF97
:1017500088690004D9D520461921324601F0B2FA31
:10176000002871D1FFF70CFF801B21681A28EFD3E6
:1017700088690004ECD5606C40F020006064202093
:1017800084F84100012070E0628D434651F8045F07
:101790006FF39F23D7B243EA074705EA00030AF530
:1017A00092353B432B430B602285618D0A9F0029B4
:1017B00044D06FF39F284FF0FF0900F5806510E0DB
:1017C000618D2068218550F8042FC9B22A4042EA71
:1017D00001414FF0007241EA080111430160608D40
:1017E00060B320463946324601F08AFB60BB206870
:1017F000616A406A0870606A218D01306062481E2B
:101800002085618D01396185618D0029E7D0000453
:10181000E5D12046802100223B46009601F000FBE6
:1018200090B9608DB0F5807FCAD32068A4F8289065
:1018300050F8041F52462940CDE700BF20463946E4
:10184000324601F0C7FB18B1012002B0BDE8F087B5
:1018500020682021C16142684EF60003CFF6006384
:101860001A404260002084F84110002184F84210A0
:1018700084F8401002B0BDE8F08700002DE9F04781
:1018800082B0044690F84100202803D194F840002B
:10189000012803D1022002B0BDE8F08701201D46D7
:1018A0001746884684F84000FFF76AFE216806461E
:1018B0008A69120417D4212084F84100102084F88A
:1018C000420000206064676265856063608DB0F5EA
:1018D000807F23D3FF2020854FF0807225E000BF5A
:1018E00088690004E7D520461921324601F0EAF95B
:1018F000002840F08580FFF743FE801B21681A28EE
:10190000EED388690004EBD5606C40F02000606481
:10191000202084F84100012083E000BF608D002872
:10192000208500F087804FF0007217F8013B8B6232
:101930006762638D013B6385431E238543466FF3D6
:101940009F23C0B243EA0040104349F60045CFF65A
:1019500000454A68A5F580631A40104340F40050E2
:101960004860608D0A9F002844D040F2000A6FF35F
:101970009F284FF0FF09C0F2FF1A10E0618D206828
:10198000218550F8042FC9B22A4042EA01414FF0A4
:10199000007241EA080111430160608D50B3204696
:1019A0003946324601F054FB50BB606A216810F89A
:1019B000012B8A626062608D01386085208D01385C
:1019C0002085618D0029E8D00004E6D120468021E1
:1019D00000223B46009601F023FA88B9608DB0F5ED
:1019E000807FCBD32068A4F8289050F8041F52467B
:1019F0002940CEE720463946324601F0EBFA18B1CD
:101A0000012002B0BDE8F08720682021C161426852
:101A10004EF60003CFF600631A404260002084F8BF
:101A20004110002184F8421084F8401002B0BDE853
:101A3000F08700BF4FF40042404662F39F2084E7E6
:101A400010B59CB0044602A804305021FEF718FCE3
:101A5000206845F60001C4F20001884202D01CB0A3
:101A600010BD00BF8020029002A800F077F9002886
:101A700018BFFEF795FE41F24C04C4F20204206840
:101A800017A940F001002060206800F001001790C5
:101A900017984FF440701790122018900020CDE94D
:101AA000190004201B904FF09040FFF793FCE06872
:101AB00040F48000E060E06800F48000019001984C
:101AC0001CB010BD40F2000040F24421C2F2000000
:101AD000C2F2000140680A681044086070470000C4
:101AE00080B5032000F08CF80F2000F009F80028E2
:101AF0001CBF012080BD00F029F8002080BD00003F
:101B000070B540F20006C2F200067168E1B1044609
:101B100040F20800C2F200004FF47A720068B2FB93
:101B2000F1F1B0FBF1F000F0D1FE0F2C4FF0010508
:101B300008D838B94FF0FF3021460022002500F0C8
:101B400033F83460284670BD012070BD82B041F288
:101B50005800C4F20200816841F00101816081688F
:101B600001F0010101910199016841F0805101608A
:101B7000006800F080500090009802B000F0E4B8D7
:101B8000002848BF7047C1B200F01F00012202FACE
:101B900000F04EF20012CEF2000242EAD10121F032
:101BA000030108607047000010B54EF60C5CCEF2E1
:101BB000000CDCF80030C3F3022E8EF00704042C76
:101BC00028BF0424BEF103034FF0FF3E0EFA04F4D5
:101BD00038BF0023A14399400EFA03F39A431143FF
:101BE00000F00F0200F160430901043A03F5644379
:101BF0006244002848BF02F10C03197010BD0000B8
:101C00004EF60C51CEF200010A684FF6FF031A405F
:101C100060F30A2242F0806040F0FD700860704777
:101C2000B0F5007F42D0002840F0808047F21400D9
:101C3000C4F2000050F8141CC26E01F4C06122F41A
:101C40008072B1F5806FC2662ED150F8141C01224B
:101C500062F34A2140F8141C40F20801C2F200016C
:101C60000968322251434DF68362C4F21B32A1FB54
:101C70000212910C0268520511D54A1C0FD002685D
:101C800052050CD559B10268520508D5012906D074
:101C90000268520503D50229A1F10401EAD10068C6
:101CA000400544BF032070470020704747F21400EE
:101CB000C4F2000050F8141CC26E01F4C06142F47A
:101CC0008072B1F5806FC266EED150F8141C01220B
:101CD00062F34A2140F8141C40F20801C2F20001EC
:101CE0000968322251434DF68362C4F21B32A1FBD4
:101CF0000212910C0268520511D54A1C0FD00268DD
:101D000052050CD559B10268520508D5012906D0F3
:101D10000268520503D50229A1F10401EAD1006845
:101D2000400544BF03207047BEE700BF47F21400E0
:101D3000C4F2000050F8141C022262F34A2140F859
:101D4000141C00207047000047F20800C4F2000095
:101D5000016841F480410160704700002DE9F041C5
:101D600082B00446807841F288060007C4F2020679
:101D700002D400202FE000BF56F8300C10F080583D
:101D80000BD156F8300C40F0805046F8300C56F825
:101D9000300C00F080500190019847F20007C4F227
:101DA0000007386840F480703860FFF7E9FB0546AB
:101DB0003868C00500F10C81FFF7E2FB401B0228E8
:101DC000F6D90320B8F1000F05D156F8301C21F0E8
:101DD000805146F8301C2168CA0717D18A071DD4E4
:101DE0004A0723D40A0729D4CA062FD48A0635D431
:101DF0004A063BD40A0641D4CA0547D48A034DD4C7
:101E00008A0553D44A0559D467E000BF3268636835
:101E100022F003021A4332608A07E1D53268A368D0
:101E200022F00C021A4332604A07DBD53268E368BD
:101E300022F030021A4332600A07D5D5326823698E
:101E400022F0C0021A433260CA06CFD532686369F5
:101E500022F440721A4332608A06C9D53268A369F7
:101E600022F440621A4332604A06C3D53268E369FD
:101E700022F440521A4332600A06BDD53268236A02
:101E800022F440421A433260CA05B7D53268636A09
:101E900022F440321A4332608A03B1D57269A36AD0
:101EA00022F003021A4372618A05ABD53268E36AF5
:101EB00022F440221A4332604A050ED53268236B61
:101EC00022F440121A43B3F5801F326005D156F850
:101ED0007C2C42F4801246F87C2C0A050ED5326820
:101EE000636B22F440021A43B3F5800F326005D1D0
:101EF00056F87C2C42F4801246F87C2CCA040ED58D
:101F00003268A36B22F040721A43B3F1807F3260D3
:101F100005D156F87C2C42F4801246F87C2C8A04B9
:101F20000ED53268E36B22F040621A43B3F1006FC2
:101F3000326005D156F87C2C42F4801246F87C2C95
:101F40004A040ED53268236C22F040621A43B3F182
:101F5000006F326005D156F87C2C42F4801246F8AE
:101F60007C2C0A040ED53268636C22F040521A436E
:101F7000B3F1805F326005D156F87C2C42F4803298
:101F800046F87C2CCA030ED53268A36C22F040427E
:101F90001A43B3F1804F326005D156F87C2C42F4DD
:101FA000803246F87C2C49030ED57169E26C21F42D
:101FB00040111143B2F5001F716105D156F87C1C28
:101FC00041F4801146F87C1C02B0BDE8F08100BFEE
:101FD000B06810F4407010D0216D88420BD0B0680A
:101FE000B16820F4407041F48031B160B16821F4EF
:101FF0008031B160B060C0070CD1B068216D20F4B1
:1020000040700843B0600020B8F1000F7FF4E3AEE9
:10201000DBE600BFFFF7B4FA054641F2883700BFA0
:10202000B0688007E9D4FFF7ABFA401BB842F7D994
:10203000C7E600002DE9F04700286DD042F2000A03
:10204000C4F2020A0446DAF800000D4600F00F0060
:1020500088420CD2DAF8000020F00F002843CAF8BA
:102060000000DAF8000000F00F00A84254D1216807
:1020700041F20808C807C4F2020803D1880740F1FA
:10208000D880BDE0606802283AD0032840D158F8D3
:10209000082C920140D5D8F80420D8F8043042F238
:1020A0000046C3F3031302F00302D8F804700133AF
:1020B000C0F2F406032A04BF47F64006C0F27D16BC
:1020C000B6FBF3F2D8F80430C7F306277A43C3F31C
:1020D0004163022707EB4303B2FBF3F24BF20043E9
:1020E000C0F2C4439A4261D9D8F8002012F0F00F30
:1020F00051D089075AD5A168002957D14BE000BFBC
:1021000058F8081C89035CBF0120BDE8F08707E090
:1021100058F8081C490503D40120BDE8F08700BF2A
:10212000D8F8001001F00C0104293FD0D8F80010B5
:1021300001F00C01082939D0D8F8001001F00C0189
:102140000C2933D1D8F80410D8F8042042F2004703
:10215000C2F3031201F00301D8F804300132C0F2D7
:10216000F407032904BF47F64007C0F27D17B7FB09
:10217000F2F1D8F80420C3F306235943C2F34162B5
:10218000022303EB4202B1FBF2F14BF20042C0F238
:10219000C44291420AD9D8F80010082262F307110C
:1021A0004FF00109C8F8001002E000BF4FF000092D
:1021B000D8F8001021F003010843C8F80000FFF729
:1021C000DFF9064641F28837D8F80000616800F070
:1021D0000C00B0EB810F07D0FFF7D2F9801BB8429B
:1021E000F2D90320BDE8F0872168880708D4B9F147
:1021F000000F1ED0D8F8000020F0F00017E000BF5C
:10220000480705D5D8F8000040F4E060C8F80000A1
:10221000080706D5D8F80000072262F30D20C8F899
:102220000000D8F80000A26820F0F0001043C8F8C1
:102230000000DAF8000000F00F00A8421BD9DAF81D
:10224000000020F00F002843CAF80000FFF798F9BB
:10225000064641F2883700BFDAF8000000F00F00B0
:10226000A84207D0FFF78CF9801BB842F4D90320AD
:10227000BDE8F0872168480707D5D8F80000E26874
:1022800020F4E0601043C8F80000080708D5D8F82B
:102290000000216920F4605040EAC100C8F8000045
:1022A000D8F8000042F20041C0F2F40100F00C0046
:1022B000042808462DD0D8F8000000F00C000828AB
:1022C00047F64000C0F27D1023D0D8F8002002F07D
:1022D0000C020C2A1CD1D8F80420D8F8043002F0E3
:1022E0000302C3F30313D8F804700133032A08BFB1
:1022F0000146B1FBF3F0D8F80410C7F30627C1F389
:1023000041610222784302EB4101B0FBF1F000E0B1
:102310000020D8F8001044F29462C1F30311C0F613
:102320000002515C40F2080201F01F0120FA01F1A5
:1023300040F20000C2F200000068C2F20002116028
:10234000BDE8F047FFF7DCBB40F2080041F20801AE
:10235000C2F20000C4F202010068096844F2A462FB
:10236000C1F30221C0F60002515C01F01F01C84018
:102370007047000040F2080041F20801C2F200007C
:10238000C4F202010068096844F2A462C1F3C221E8
:10239000C0F60002515C01F01F01C8407047000008
:1023A00080B541F20C01C4F2020151F8040C42F272
:1023B0000042C0F2F40200F00C000428104608BFEE
:1023C00080BD51F8040C00F00C00082847F64000CE
:1023D000C0F27D1022D051F8043C03F00C030C2B0A
:1023E0001CBF002080BDD1F800C00B680CF0030CAE
:1023F000C3F3031E0B680EF1010EBCF1030F08BFFF
:1024000002460968B2FBFEF0C3F30623C1F3416143
:102410000222584302EB4101B0FBF1F080BD000005
:102420002DE9F04182B0002800F0068104460078D2
:1024300041F20006C007C4F2020655D12078800799
:1024400074D42078000700F197802078400700F1CD
:10245000B7802078800600F10781E569002D00F043
:102460003082B06800F00C000C2840F05981012D3A
:1024700000F0E280F068216A00F003028A4240F036
:10248000DB80626A6FF00F0300F0F00103EB0212D1
:10249000914240F0D180A16A00F4FE42B2EB012FDC
:1024A00040F0CA80E16A00F07842B2EBC16F40F0C0
:1024B000C380226B0023CFF6E07303EA025200F4DC
:1024C000C001A2F50012914240F0B680616B4FF05E
:1024D0007E4202EA016100F0C06001F17E41884263
:1024E00040F0AA80EDE100BFB06800F00C01F06898
:1024F00008295BD0032281F00C0122EA0000084485
:10250000B0FA80F0400951D16068B0F5803F07D043
:10251000B0F5A02F40F0DA80306840F480203060C1
:10252000306840F480303060DBE000BFB068F168B4
:1025300000F00C00042869D001F0030180F00C00C9
:1025400081F002010844B0FA80F040095ED1E168F0
:102550003068002900F0D28040F480703060FFF7CE
:102560000FF805463068400500F1FC80FFF708F8D9
:10257000401B0228F6D92EE16169D6F894000029A3
:1025800000F0908040F00100C6F89400FEF7F8FFDC
:10259000054600BFD6F8940080073FF556AFFEF71A
:1025A000EFFF401B0228F5D915E100BF306880031A
:1025B0007FF544AF606800287FF440AF3CE000BF87
:1025C000B06D10F0805808D1B06D40F08050B0650B
:1025D000B06D00F080500190019847F20007C4F2FE
:1025E00000073868C0052BD4386840F48070386024
:1025F000FEF7C6FF054600BF3868C00520D4FEF7C9
:10260000BFFF401B0228F7D9E5E000BF3068400556
:1026100001D5E06880B17068216920F0FE4040EA91
:102620000160706040F20000C2F200000068FFF735
:1026300067FA00283FF405AF012002B0BDE8F08141
:10264000A068012808D0052840F0AA80D6F890009C
:1026500040F00400C6F89000D6F8900040F0010069
:10266000C6F89000A9E000BFA169D6F8980000293B
:1026700000F0808040F00100C6F89800FEF780FF6F
:10268000054600BFD6F8980080073FF5E6AEFEF796
:1026900077FF401B02284FF00300F3D902B0BDE8DA
:1026A000F08100BF20F00100C6F89400FEF768FF3B
:1026B000054600BFD6F8940080077FF5C6AEFEF74A
:1026C0005FFF401B0228F5D985E000BF3168002874
:1026D00021F480313160316821F48021316000F0D3
:1026E0007F80FEF74DFF0546306880033FF5A6AEBC
:1026F000FEF746FF401B6428F6D96CE020F480709A
:102700003060FEF73DFF0546306840057FF599AE25
:10271000FEF736FF401B02284FF00300F4D9BDE757
:10272000306820F080703060FEF72AFF022D0546E9
:102730000CD100BF3068800140F17E80FEF720FFA1
:10274000401B02284FF00300F4D9A7E7306880014E
:1027500040F1B080FEF714FF401B02284FF0030049
:10276000F4D99BE77068216920F0FE4040EA0160DF
:10277000706066E620F00100C6F89800FEF700FFE2
:10278000054600BFD6F8980080077FF566AEFEF7D5
:10279000F7FE401B02284FF00300F3D97EE700BF8D
:1027A000D6F8901021F00101C6F89010D6F89010DC
:1027B00021F00401C6F8901010B3FEF7E1FE0546C3
:1027C00041F28837D6F8900080072BD4FEF7D8FE68
:1027D000401BB842F6D9032002B0BDE8F08100BF2B
:1027E000FEF7CEFE054600BF306880037FF526AEBB
:1027F000FEF7C6FE401B64284FF00300F4D94DE7F6
:10280000FEF7BEFE054641F2883700BFD6F89000BD
:10281000800707D5FEF7B4FE401BB8424FF0030017
:10282000F4D93BE7B8F1000F7FF413AEB06D20F0A0
:102830008050B0650DE600BFF06848F20C01C0F2B0
:102840009F1104F1200700EA010C8ECF6FF00F00FA
:10285000D4E90C5400EB02100022CFF6E07241EAFA
:102860000C0102EA05520843A2F500124FF07E4522
:1028700040EA032005EA0465104305F17E4540EA7D
:10288000C7602843F060306840F080703060F068C6
:1028900040F08070F060FEF773FE044630688001FF
:1028A0000FD4FEF76DFE001B02284FF00300F5D990
:1028B000F4E600BFF0684FF6FC71CFF6EE61084019
:1028C000F060002002B0BDE8F0810000411E002051
:1028D000B0EB116F1CBF012070474EF21002CEF218
:1028E000000251604EF62351CEF20001F0230B702E
:1028F000072190601160704790F88410012904BF8F
:10290000022070472421C0F88810026811681368FB
:1029100023F00103136021F000530021416613608E
:102920002022C0F8882080F88410084670470000F4
:10293000B0B590F88420012A04BF0220B0BD242243
:10294000C0F888200268D0F864E0D2F800C01368AC
:10295000BEF1000F23F001031360936823F060635E
:1029600041EA0301916019D09368916844F2E46EE2
:10297000490FC0F6000E44F2EC651EF80140C0F6A7
:102980000005695CC3F34263E400B4FBF1F11EF897
:102990000340EB5CE500B5FBF3F301E0012101230B
:1029A000A0F86A102021A0F86830C2F800C0C0F872
:1029B0008810002180F884100846B0BDB0B590F8AA
:1029C0008420012A04BF0220B0BD2422C0F8882040
:1029D0000268D0F864E0D2F800C01368BEF1000FBE
:1029E00023F001031360936823F0604341EA03017D
:1029F000916019D09368916844F2E46E490FC0F673
:102A0000000E44F2EC651EF80140C0F60005695C5A
:102A1000C3F34263E400B4FBF1F11EF80340EB5C46
:102A2000E500B5FBF3F301E001210123A0F86A10F2
:102A30002021A0F86830C2F800C0C0F8881000213A
:102A400080F884100846B0BD10B5D8B10446D0F85F
:102A5000880028B9002084F88400204600F026F879
:102A60002420C4F888002068A16A026822F00102CC
:102A7000026011B1204600F0CDFC204600F0F6FDCA
:102A8000012801D1012010BD2168486820F4904040
:102A90004860886820F02A008860086840F00102D9
:102AA00020460A60BDE8104000F028BD10B59AB07D
:102AB0000446684604305021FDF7E2FB206844F2EA
:102AC0000041C4F20001884202D01AB010BD00BF1C
:102AD000022468460094FFF741F9002818BFFDF76B
:102AE0005FFE41F24C00C4F20200C16841F40031C3
:102AF000C160C16801F4003115911599016841F078
:102B000001010160006815A900F0010015901598F9
:102B10000C20CDE915040020CDE9170007201990FD
:102B20004FF09040FEF756FC1AB010BD2DE9F04171
:102B30000446D0F8880020281CBF0220BDE8F081A0
:102B40000D4600294FF0010000F0B8801646002A1B
:102B500008BFBDE8F0810020C4F89000212098460D
:102B6000C4F88800FEF70CFDA4F85460A4F8566081
:102B7000A1680646B1F5805F02D1206900286BD0BC
:102B80002F460025B4F8560000286BD018F101003C
:102B90001CD0B8F1000F3DD121680BE017F8010BF4
:102BA0008862B4F856000138A4F85600B4F856000C
:102BB000002858D0C869000640F17A80002FEDD176
:102BC00035F8020B00276FF35F20E9E7216802E088
:102BD000C869000609D4C869000606D4C869000699
:102BE0005CBFC8695FEA0060F2D51FB117F8010B3E
:102BF00005E000BF35F8020B00276FF35F20886205
:102C0000B4F856000138A4F85600B4F8560000286D
:102C1000E1D128E0216800BFC869000608D4FEF7AA
:102C2000AFFC801B404545D821680868F4E700BF29
:102C300017B117F8010B04E035F8020B00276FF30A
:102C40005F208862B4F856000138A4F85600B4F842
:102C500056000028E0D106E00027B4F8560000280E
:102C60007FF494AF2168C86940061FD4B8F1000F03
:102C70001ED018F101000FD1C869400616D4C869EA
:102C8000400613D4C869400610D4C86940064FF006
:102C90000000F1D50FE000BFFEF772FC801B40453D
:102CA00008D820680168C0694006F5D5002002E018
:102CB000FEF766FC03202021C4F88810BDE8F081EF
:102CC000FEE7000070B50446006815468369DA0621
:102CD00002D40021002266E00E461021C161816904
:102CE00089065CD4711C50D036BBFEF749FC2068C5
:102CF000426894F8421083691B040BD512F4804299
:102D000008D1202906D0416841F480414160FEF796
:102D100037FC054620688169890605D4FEF730FC3A
:102D2000401B1A28F6D328E081698906DDD536E0F4
:102D300020688169890632D4FEF722FC401BB0422C
:102D4000F6D92068426894F8421083691B040BD5B9
:102D500012F4804208D1202906D0416841F4804114
:102D60004160FEF70DFC0546206880698006DFD4CF
:102D7000FEF706FC401B1A28F6D320680122816961
:102D8000242110E08169890609D48169890606D465
:102D9000816989065CBF81695FEA8161F2D5202182
:102DA000C161012204218369DE0505D54FF48072DB
:102DB00041F00101C26101225E0505D49B050AD4E0
:102DC00072B9002070BD00BF41F008014FF480626D
:102DD0009B05C26104D541F002014FF40072C2614B
:102DE0008269920744BF002282628269D20703D1BE
:102DF000826942F00102826142684EF60003CFF61A
:102E000000631A404260606C08436064202084F8CC
:102E10004100002084F8420084F84000012070BD89
:102E20002DE9F0410446006880690840401AB0FA74
:102E300080F04009904233D1DDF8188015460E46E7
:102E40001F46581C1CD0BFBB204600214246FFF73E
:102E500039FF002851D1FEF793FB2068816931408A
:102E6000891BB1FA81F14909A9423AD08069304001
:102E7000801BB0FA80F04009A842E5D010E000BF06
:102E800020464FF0FF314246FFF71CFFA8BB2068E9
:102E900080693040801BB0FA80F04009A842EFD032
:102EA0000020BDE8F08100BF80693040801BB0FA8F
:102EB00080F04009A842F3D1204639464246FFF748
:102EC00001FFD0B9FEF75CFBA0EB08012068B94216
:102ED000EAD981693140891BB1FA81F14909A942D6
:102EE000E2D1606C40F020006064202084F8410052
:102EF000002084F8420084F840000120BDE8F08101
:102F00002DE9F04F81B0044600684FF00008806959
:102F10000027400749D44EF6000915468A464FF06F
:102F2000200BCFF6006900BF204651462A46FFF726
:102F3000C9FE216800288A69074618BF0127920642
:102F400019D5C0B988698869C00603D400276764A9
:102F500011E000BF1020C86104206064C1F81CB0FB
:102F60004868012700EA0900486084F841B084F805
:102F7000428084F840805646BAF1000F18BF0126FF
:102F8000FEF7FEFA401B0021504598BF0121206842
:102F90000E4208BF002F03D181690027490709D5D8
:102FA0008069400701D4002FBED0384601B0BDE88B
:102FB000F08F00BF616C41F020016164202184F832
:102FC000411084F8407080690127384601B0BDE89F
:102FD000F08F000070B5044600688069800635D423
:102FE00015460E4619B928E0806980062ED4204681
:102FF00031462A46FFF766FE30BBFEF7C1FA411B99
:103000002068B142F0D981698906EDD4606C40F046
:1030100020006064202084F84100002084F84200F1
:1030200084F84000012070BDFEF7AAFA206881698B
:103030008906EBD58069800608D4204600212A46FF
:10304000FFF740FE0028EFD0012070BD002070BDCA
:1030500070B5044600688069800720D415460E4686
:10306000481C11D00EBB00BF204600212A46FFF7A6
:1030700029FEA8BBFEF784FA20688169890723D559
:1030800080698007F0D50AE020464FF0FF312A46DC
:10309000FFF718FE20BB206880698007F4D5002068
:1030A00070BD00BF80698007F9D4204631462A46AA
:1030B000FFF708FEA0B9FEF763FA411B2068B14292
:1030C000F0D981698907EDD4606C40F0200060641C
:1030D000202084F84100002084F8420084F8400059
:1030E000012070BDB0B582B040F25C140120C2F284
:1030F00000048DF807000A250DF107022046802103
:1031000001230095FEF7BAFB0DF105022046802150
:1031100002230095FEF7DCFABDF8051000280ABA74
:103120004FF0FF0108BF110C084602B0B0BD00000F
:1031300080B582B005218DF80510010A8DF80700D1
:1031400040F25C108DF806104FF00A0CC2F200003D
:103150000DF1050280210323CDF800C0FEF78EFBA0
:1031600002B080BD80B582B000218DF80510010A43
:103170008DF8070040F25C108DF806104FF00A0C35
:10318000C2F200000DF1050280210323CDF800C03A
:10319000FEF774FB02B080BD70B540F2300046F21D
:1031A0000041C2F20000C4F200010022C0E9001296
:1031B000112101234FF0060C4FF0030E08240A25BD
:1031C0000526C0E90222C0F80F2041618361C0F8E2
:1031D0001CC0C0F820E0C0E90943C0E90B56C0E9B3
:1031E0000D22C263FDF76AFE002818BFFDF7D8FA6A
:1031F000BDE87040FDF7E0BA70B540F2940046F6C5
:103200000001C2F20000C4F200010022C0E9001275
:10321000112101234FF0060C4FF0030E08240A255C
:103220000526C0E90222C0F80F2041618361C0F881
:103230001CC0C0F820E0C0E90943C0E90B56C0E952
:103240000D22C263FDF73AFE002818BFFDF7A8FA69
:10325000BDE87040FDF7F0BA70B540F2F80046F6F0
:103260000041C2F20000C4F200010022C0E90012D5
:10327000112101234FF0060C4FF0030E08240A25FC
:103280000526C0E90222C0F80F2041618361C0F821
:103290001CC0C0F820E0C0E90943C0E90B56C0E9F2
:1032A0000D22C263FDF70AFE002818BFFDF778FA69
:1032B000BDE87040FDF700BB83B041F24C00C4F2A2
:1032C0000200016841F020010160016801F0200165
:1032D00002910299016841F001010160016801F069
:1032E000010101910199016841F00201016000684A
:1032F00000F002000090009803B0704780B540F2E3
:103300005C1045F60001C2F20000C4F2000142F672
:103310009B520023C1F280024FF0010C80E80E1096
:10332000C0E90433C0E906330362FEF779F90028E7
:1033300018BFFDF735FA40F25C10C2F20000002120
:10334000FEF724F9002818BFFDF72AFA40F25C10B6
:10335000C2F200000021FEF73FF9002808BF80BD3F
:10336000BDE88040FDF71CBA80B540F2B01044F2D1
:103370000041C2F20000C4F2000100234FF00C0C27
:103380004FF4E13280E80E00C0E90333C0E905C321
:10339000C0E90733C0E90933FFF756FB002818BF1F
:1033A000FDF7FEF940F2B010C2F200000021FFF775
:1033B00005FB002818BFFDF7F3F940F2B010C2F288
:1033C00000000021FFF7B4FA002818BFFDF7E8F964
:1033D00040F2B010C2F20000FFF78EFA002808BFDA
:1033E00080BDBDE88040FDF7DBB90000FEE70000CE
:1033F000FEE700007047000070470000FEF762BB68
:103400004EF68850CEF20000016841F47001016070
:103410007047000080B5816A0A070DD4CA0716D12B
:103420008A071FD44A0728D4CA0631D48A063AD458
:103430004A0658D542E000BF0268D0F838C0536849
:1034400023F4004343EA0C035360CA07E8D0026840
:10345000D0F82CC0536823F4003343EA0C035360C4
:103460008A07DFD50268D0F830C0536823F4803370
:1034700043EA0C0353604A07D6D50268D0F834C03B
:10348000536823F4802343EA0C035360CA06CDD566
:103490000268D0F83CC0936823F4805343EA0C03DD
:1034A00093608A06C4D50268D0F840C0936823F4BC
:1034B000005343EA0C0393604A0614D50268D0F81F
:1034C00044C05368BCF5801F23F4801343EA0C0307
:1034D000536008D1D2F804C0D0F848E02CF4C003FF
:1034E00043EA0E035360090658BF80BD0168C06CF3
:1034F0004A6822F400221043486080BDB0B582B013
:1035000004460020C4F89000FEF73AF8216805460A
:103510000A68120737D56FF07E4C20464FF4001131
:1035200000222B46CDF800C000F000FA50B300BFD7
:10353000206850E8000F216820F0800041E8000278
:10354000DAB1206850E8000F216820F0800041E8DF
:10355000000292B1206850E8000F216820F080003E
:1035600041E800024AB1206850E8000F216820F0CD
:10357000800041E80002002ADAD12020C4F8880047
:1035800060E000BF21680868400761D56FF07E4C9D
:1035900020464FF4800100222B46CDF800C000F0F9
:1035A000C5F9002854D000BF206850E8000F2168FA
:1035B00020F4907041E80002E2B1206850E8000F6A
:1035C000216820F4907041E800029AB1206850E828
:1035D000000F216820F4907041E8000252B1206889
:1035E00050E8000F216820F4907041E80002002AA2
:1035F000DAD100BF206850E8020F216820F00100F6
:1036000041E80202DAB1206850E8020F216820F098
:10361000010041E8020292B1206850E8020F2168DF
:1036200020F0010041E802024AB1206850E8020F90
:10363000216820F0010041E80202002ADAD12020AE
:10364000C4F88C000320002184F8841002B0B0BDBF
:103650002020C4F88800C4F88C000020E0662067B1
:10366000002184F8841002B0B0BD000070B505469A
:1036700005F108041ECC0068194341EA0403EE6911
:10368000046846F6F311CCF6FF712140194331432B
:103690000160416848F2000C21F44051114341603F
:1036A000AA69C4F2000C60451CBF296A0A438168FC
:1036B0004FF2FF43C1F2FF13194011438160C16A09
:1036C000D5F824E021F00F0141EA0E01C16244F671
:1036D000FF71C4F2000188424FF0100318DC44F27D
:1036E0000041C4F20001884228D044F60001C4F22F
:1036F000000188422AD044F60041C4F20001884209
:1037000042D141F28801C4F2020109688B0933E019
:1037100045F20001C4F2000188421FD0604525D067
:1037200043F60001C4F2010188422DD141F2880123
:10373000C4F202010B6879A222E000BF41F28801C5
:10374000C4F2020109688B0816E000BF41F288014B
:10375000C4F2020109680B090EE000BF41F28801C2
:10376000C4F2020109680B0A06E000BF41F28801B9
:10377000C4F2020109688B0A44F2D462C0F6000266
:1037800003F0030152F82130604542F20040C0F2DC
:10379000F40015D0B6F5004F24D1082B4FF00101ED
:1037A00000F2B380DFE803F0065E6CB164B1B1B142
:1037B0006A0000BFFEF7C8FD002856D15CE000BFDC
:1037C000082B4FF0010100F2A080DFE803F0059E16
:1037D000259E1D9E9E9E2300FEF7B6FDC0B1D5F826
:1037E00024E019E0082B4FF0010100F28E80DFE8A1
:1037F00003F00565738C6B8C8C8C7100FEF7A4FD57
:1038000000285ED164E000BFFEF7CAFD0028E6D1C3
:1038100000217AE04FF4004044F2AC61C0F60001B0
:1038200031F81E106A68B0FBF1F002EB42018842E9
:103830004FF0010169D31303984266D8010E0002CC
:1038400010EB520041F100010023FCF7E1FC4FF6C0
:103850000052A0F54071C0F20F0291424FD30121F6
:1038600053E000BFFEF786FD30B1D5F824E007E055
:10387000FEF796FD0028F8D1002146E04FF4004005
:1038800044F2AC61C0F6000131F81E106A68B0FB6A
:10389000F1F0510801EB4000B0FBF2F04FF6EF728F
:1038A000A0F11001914207D84FF6F0710140C0F32A
:1038B0004200084423E000BF012126E0FEF75AFD44
:1038C00030B1D5F824E007E0FEF76AFD0028F8D112
:1038D00000211AE04FF4004044F2AC61C0F6000150
:1038E00031F81E104FF6EF72B0FBF1F0696800EB93
:1038F0005100B0FBF1F0A0F11001914204D8296809
:10390000C860002101E000BF01214FF00110A8664E
:10391000002208466A67AA6770BD00BF0100000068
:103920000400000002000000080000002DE9F04142
:10393000804600681546C2690E461140891BB1FADF
:1039400081F14909A94223D1069C2CB3611C29D1DC
:10395000C1693140891BB1FA81F14909A94217D1E6
:10396000C1693140891BB1FA81F14909A9420FD1DE
:10397000C1693140891BB1FA81F14909A94207D1D6
:10398000C1693140891BB1FA81F14909A942DFD0EF
:103990000020BDE8F08100BFFDF7F2FD0320BDE887
:1039A000F08100BF1F4607E0C0693040801BB0FABD
:1039B00080F04009A842EBD1FDF7E2FDC01BA04218
:1039C00000F2AE80D8F8000001684907ECD5402E1F
:1039D000EAD0802EE8D0C169090700F1A580C1694D
:1039E0000905E1D54FF400610162D8F8000050E804
:1039F000000FD8F8001020F4907041E800020AB3DC
:103A0000D8F8000050E8000FD8F8001020F49070AB
:103A100041E80002B2B1D8F8000050E8000FD8F831
:103A2000001020F4907041E800025AB1D8F800006C
:103A300050E8000FD8F8001020F4907041E8000220
:103A4000002AD2D14FF6FE70CEF6FF70D8F80010E3
:103A500051E8021FD8F80020014042E80213F3B1F8
:103A6000D8F8001051E8021FD8F80020014042E8C1
:103A70000213A3B1D8F8001051E8021FD8F80020B3
:103A8000014042E8021353B1D8F8001051E8021F78
:103A9000D8F80020014042E80213002BD6D1D8F814
:103AA0006C0001282CD1D8F8000050E8000FD8F89D
:103AB000001020F0100041E800020AB3D8F800001E
:103AC00050E8000FD8F8001020F0100041E8000284
:103AD000B2B1D8F8000050E8000FD8F8001020F07C
:103AE000100041E800025AB1D8F8000050E8000F79
:103AF000D8F8001020F0100041E80002002AD2D1CE
:103B000020200021C8F88C00C8F86C10C8F8741088
:103B1000C8F89000032088F88410BDE8F08100BF49
:103B20000320BDE8F08100BF08210162D8F8000041
:103B300050E8000FD8F8001020F4907041E800021F
:103B40000AB3D8F8000050E8000FD8F8001020F4AD
:103B5000907041E80002B2B1D8F8000050E8000FC0
:103B6000D8F8001020F4907041E800025AB1D8F85B
:103B7000000050E8000FD8F8001020F4907041E8E1
:103B80000002002AD2D14FF6FE70CEF6FF70D8F8B0
:103B9000001051E8021FD8F80020014042E802134B
:103BA000F3B1D8F8001051E8021FD8F80020014006
:103BB00042E80213A3B1D8F8001051E8021FD8F868
:103BC0000020014042E8021353B1D8F8001051E838
:103BD000021FD8F80020014042E80213002BD6D182
:103BE000D8F86C0001282CD1D8F8000050E8000F5C
:103BF000D8F8001020F0100041E800020AB3D8F80D
:103C0000000050E8000FD8F8001020F0100041E844
:103C10000002B2B1D8F8000050E8000FD8F8001048
:103C200020F0100041E800025AB1D8F8000050E836
:103C3000000FD8F8001020F0100041E80002002A20
:103C4000D2D12020C8F88C0000200821C8F86C00D0
:103C5000C8F87400C8F8901088F884000120BDE806
:103C6000F0810000FEE7000094B0FDF739FF00246A
:103C700000200C94CDE90A44CDE90844FDF7D0FFBB
:103C8000012006904FF480300521079002200F910B
:103C900044210D900325CDE91010CDE9120006A8AE
:103CA0000E95FEF7BDFB28B1EFF3108072B600BF92
:103CB000FEE700BF0F20CDE9010501A80421CDE9F1
:103CC00003440594FEF7B6F920B1EFF3108072B605
:103CD000FEE700BFFFF7F0FAFFF78EFAFFF70EFBE3
:103CE000FFF742FBFFF758FAFFF7B6FA44F2255008
:103CF000FFF738FA40F22150FFF71AFAFDF740FCBF
:103D000040F210079FED208A9FED209A44F2F46460
:103D100040F2B016C2F20007C0F6000406ADC2F2CF
:103D20000006C7E90100C7E90300C7E9050000BFB5
:103D3000FDF726FC7860FFF7D5F900EE100AD7E909
:103D40000101B8EE400A20EE080A401A30EE090AD6
:103D5000B0F57A7F87ED000AEAD910EE100AFCF779
:103D600022FC02460B462846214600F011F882B29A
:103D7000304629466423FEF7D9FE97ED000AFCF78A
:103D8000D5FD7868B860D3E716FB8B3E33A3BBC480
:103D90000FB4084B10B504A902AA039800F0DEF88E
:103DA000044602A9002000F070FC204610BC5DF81B
:103DB00014FB00008B46000802E008C8121F08C16F
:103DC000002AFAD170477047002001E001C1121F9C
:103DD000002AFBD1704700002DE9FF5F82B000216F
:103DE000DDE90430020DDDF840B0034318D044F69D
:103DF0001050A2F2FF3242431514119801281FD02F
:103E0000A5EB0B00401C5FEA000A4FF000064E4F86
:103E1000DFF83891B046504615D5CAF1000413E0DA
:103E2000119801244AA3012801D16FEA0B010298DD
:103E3000119AC0E90031C0E9024206B0BDE8F09F26
:103E4000CBF10000DFE704460021404A491842EB6D
:103E50000450CDE9001012E0E00707D032463B469F
:103E600040464946FCF7BEFA8046894632463B4604
:103E700010461946FCF7B6FA06460F466410002CA9
:103E8000EAD1DDE90401DDE90023BAF1000F06DA29
:103E9000FCF7A8FA42464B46FCF7A4FA05E0FCF70B
:103EA00013FB42464B46FCF70FFB04460E4600222E
:103EB000284BFCF747FC03D84FF0FF30014607E0E2
:103EC0000022254B20463146FCF7E5F9FCF722FCA1
:103ED000102409E0002C0ADB0A220023FCF798F9E1
:103EE000039B30321A55641E50EA0102F2D1641C61
:103EF000039AC4F111031444119A012A03D0012238
:103F000008430DD10AE0084304D000204FF0110B04
:103F1000119072E7A3EB0B056D1E0DE05B4504DD10
:103F20004FF0000205F1010504E003DA4FF0000252
:103F3000A5F10105002AECD002981199C0E90231DF
:103F4000C0E9004579E70000000014400000F03FA0
:103F5000300000000000F0430000E03F2DE9FF4F7B
:103F600095B09B468946064600250FE2252877D165
:103F700000242746F84A0121059400E0044316F87E
:103F8000013F203B01FA03F01042F7D130782A2894
:103F900011D06FF02F033078A0F13002092A16D823
:103FA000059A44F0020402EB820203EB4202104441
:103FB000761C0590EFE759F8042B0592002A03DAE6
:103FC000504244F40054059044F00204761C3078CA
:103FD0002E2816D116F8010F44F004042A280DD01B
:103FE0006FF02F023078A0F13003092B09D807EBCE
:103FF000870302EB4303C718761CF3E759F8047BE9
:10400000761C30786C280FD006DC4C2817D0682836
:104010000DD06A2814D104E0742810D07A280FD16A
:104020000DE044F400140AE044F4801401E044F488
:1040300040147278824202D104F58014761C761CFA
:10404000307866280BD013DC582877D009DC00289C
:1040500075D04528F6D04628F4D047281AD19DE1DE
:1040600018E0632835D0642879D0652812D195E10D
:10407000702873D008DC6728F1D069286FD06E28CB
:104080000DD06F2806D1B5E073282CD0752875D0D7
:10409000782874D05A46179990476D1C75E1C4F37F
:1040A0000250022809D003280DD0D9F800100428A6
:1040B0000DD00D6009F1040967E1D9F80010EA1785
:1040C000C1E90052F6E7D9F800100D80F2E70D7053
:1040D000F0E719F8041B8DF8001000208DF801009E
:1040E000EA46012003E059F804AB4FF0FF306107C6
:1040F0004FF0000102D40DE008F101018846B942F9
:104100000FDA8045F8DB1AF808100029F4D108E02E
:1041100008F1010188468142FADB1AF808100029EB
:10412000F6D105985B46A0EB080721463846179A5A
:1041300000F094FA284400EB080507E04DE029E17F
:104140000DE01AF8010B5A4617999047B8F101088B
:10415000F7D25B4621463846179A13E142E00A221D
:104160000092C4F302524FF0000A022A08D059F814
:1041700004CB032A4FEAEC710AD00DE029E02AE0D3
:1041800009F1070121F00702F2E802C1914609E0B6
:104190000FFA8CFC4FEAEC71042A03D14FFA8CFC25
:1041A0004FEAEC71002907DA0A460021DCF1000C25
:1041B00061EB02012D2202E0220504D52B228DF8AD
:1041C0000420012203E0E20701D02022F7E7904615
:1041D00059E00A2102E010220DE010214FF0000A00
:1041E00000910BE010224FF0000A44F0040408276D
:1041F000009203E008224FF0000A0092C4F302523A
:10420000022A05D059F804CB0021032A08D009E07E
:1042100009F1070121F00702F2E802C1914605E029
:104220001FFA8CFC042A01D10CF0FF0C4FF000089F
:10423000220728D5702806D0009B83F0100353EA8C
:104240000A0305D00EE040228DF80420012208E088
:104250005CEA010206D030228DF804208DF80500BA
:1042600002229046009B83F0080353EA0A030AD116
:104270005CEA010201D1620705D530228DF80420E5
:104280004FF001087F1E582804D034A003900EA8D8
:1042900002900DE036A0F9E753466046009AFBF71E
:1042A000B7FF84460398825C0298401E0290027019
:1042B0005CEA0100F0D1029806A9081A00F1200A70
:1042C000600702D524F4803400E00127574502DD61
:1042D000A7EB0A0000E0002000EB0A01009005981F
:1042E0004144401A0590E00306D45B462146179AE4
:1042F000059800F0B3F90544002706E001A85A46E6
:10430000C05D179990476D1C7F1C4745F6DBE003A5
:104310000CD55B462146179A059800F09FF9054495
:1043200004E030205A46179990476D1C0099481EAA
:1043300000900029F5DC08E0029802995A460078BE
:10434000491C0291179990476D1CBAF10001AAF11E
:10435000010AF1DC65E10000092801003031323347
:1043600034353637383961626364656600000000B1
:10437000303132333435363738394142434445469B
:104380000000000000F058F90544761C3078002841
:104390007FF4ECAD19B02846BDE8F08F620700D479
:1043A000062709F1070222F0070CFCE80223E14688
:1043B00003F000485FEA080C02D00FF2702C0DE009
:1043C0005FEA045C02D50FF2682C07E05FEAC47C68
:1043D00002D00FF2602C01E0AFF2700C4FF0FF380A
:1043E00023F00043CDF850C065280CD006DC4528EA
:1043F00009D046281DD047283DD13DE0662818D079
:1044000067287ED138E00021112F01DB112000E068
:10441000781CCDE9000106A90EA8FFF7DDFCDDE957
:104420000F010E9A03910021009207F1010A0491F5
:104430004DE04FF000400097CDE9011006A90EA80D
:10444000FFF7CAFCDDE90F0203920E9B11990022CF
:10445000DDF80CA00093049211B9791C00EB010A5D
:10446000B7EB0A0004D4C0F1FF3007F1010A049051
:10447000AAEB0700019044E0012F00DA0127002198
:10448000112F01DD112000E03846CDE9000106A919
:104490000EA8FFF7A1FCDDE90F010E9A03910021A0
:1044A00004910092BA4621070CD40399514500DAD1
:1044B0008A46BAF1010F05DD009AAAF10101515CAB
:1044C000302908D0B84202DA10F1040F06DA0121CF
:1044D000CDE9011015E0AAF10101E9E7002805DCAA
:1044E000049901440491AAEB000102E0411C5145EA
:1044F00000DD8A460499401A401C01904FF00040AC
:104500000290200704D40198504501DBCDF80480C7
:1045100000208DF84F0002980DF14F07B0F1004FC9
:1045200025D02B200E9002984FF0020800280CDABC
:10453000404202902D200E9007E00A210298FCF7DD
:1045400045F83031029007F8011DB8F10001A8F1DB
:104550000108F2DC02980028EFD1791E0E9808704D
:10456000307800F0200040F0450007F8020D12A856
:10457000C01B00F107081498007800B1012000EB7F
:104580000A01019801EBE07105984144401A401E70
:104590000590E00306D45B462146179A059800F083
:1045A0005DF805441498007818B15A461799904759
:1045B0006D1CE00324D55B462146179A059800F050
:1045C0004DF805441CE00498002807DBDDE90301F1
:1045D000884203DD0098405C179901E0179930206C
:1045E0005A469047049805F10105401C0490019833
:1045F000401E019004D12E205A46179990476D1CF9
:10460000BAF10001AAF1010ADDDC05E017F8010B9F
:104610005A46179990476D1CB8F10001A8F101089E
:10462000F4DC5B462146179A0598ABE62D000000A6
:104630002B000000200000002DE9F0410446002579
:104640001E461746880404D405E039462020B047AA
:104650006D1C641EF9D52846BDE8F0812DE9F041B6
:10466000044600251E469046C80301D5302700E0C9
:104670002027880404D505E041463846B0476D1C24
:10468000641EF9D52846BDE8F0810A68531C0B600A
:1046900010707047000000000000000001020304D9
:1046A00006070809000000000102030401000200DF
:1046B0000400060008000A000C0010002000400062
:1046C000800000010001020304050607080C101415
:1046D000182030400000000004000000020000002C
:1046E00008000000010101030701000008040204A2
:1046F000080101014469733A2025666D6D0D0A00B9
:10470000204700080000002010000000B83D00080D
:10471000304700081000002038060000C83D00089F
:1047200010000000010000000024F4000000000060
:04000005080001D915
:00000001FF
