:020000040800F2
:10000000C80A0020ED01000809460008813B0008ED
:1000100005460008C5090008895C000800000000CA
:100020000000000000000000000000001146000871
:10003000C9090008000000000D4600081546000828
:10004000070200080702000807020008070200086C
:10005000070200080702000807020008070200085C
:10006000070200080702000807020008070200084C
:10007000070200080702000807020008070200083C
:10008000070200080702000807020008070200082C
:1000900007020008D9090008070200080702000843
:1000A0002D4600085146000845460008394600081C
:1000B0005D46000807020008070200080702000862
:1000C00007020008070200080702000807020008EC
:1000D00007020008095C00083D5C000807020008F0
:1000E00007020008070200080702000807020008CC
:1000F00007020008070200080702000807020008BC
:1001000007020008070200080702000807020008AB
:10011000070200080702000807020008070200089B
:10012000070200080702000807020008070200088B
:10013000070200080702000807020008070200087B
:10014000070200080702000807020008000000007C
:10015000000000000000000000000000000000009F
:10016000000000000000000000000000070200087E
:10017000070200080702000807020008070200083B
:10018000070200080702000807020008070200082B
:100190000702000800000000590A0008650A00086C
:1001A000070200080702000807020008070200080B
:1001B00007020008070200080702000807020008FB
:1001C00007020008070200080702000807020008EB
:1001D0000702000807020008DFF80CD000F0C0FB9F
:1001E00000480047415D0008C80A002006488047D3
:1001F00006480047FEE7FEE7FEE7FEE7FEE7FEE70C
:10020000FEE7FEE7FEE7FEE719460008D901000811
:100210002DE9F05F0546002092469B46884606463B
:10022000814640241BE0284641464746224600F0CE
:10023000B1FA53465A46C01A914110D31146184696
:10024000224600F098FA2D1A67EB01084F46224625
:100250000120002100F08FFA17EB00094E41201E0B
:10026000A4F10104DFDC484631462A464346BDE896
:10027000F09F40EA01039B0703D009E008C9121F61
:1002800008C0042AFAD203E011F8013B00F8013B50
:10029000521EF9D27047D2B201E000F8012B491E7C
:1002A000FBD270470022F6E710B513460A46044613
:1002B0001946FFF7F0FF204610BD421C10F8011B45
:1002C0000029FBD1801A70472DE9FE4F804681EA54
:1002D0000300C00F0C46009021F0004123F00045C0
:1002E000B8EB0200A94105D24046214690461C4683
:1002F0000B46024623F00040104347D0270DC7F3BA
:100300000A00C3F30A510290401A019040286BDAA8
:10031000C3F3130040F4801B0098924620B10023E1
:10032000D2EB030A63EB0B0B01985946C0F1400274
:10033000504600F020FA06460D4650465946019AAE
:1003400000F038FA10EB08006141002487EA1152EE
:1003500084EAE7731A4340D0009A62B3019A012AF3
:100360004FEA075215DC001B61EB02014FF000421F
:1003700002EA0752CDE90042001C41F580113246E5
:100380002B4600F06FFA03B0BDE8F08F40462146DF
:10039000F9E7001B61EB0201001C41F58013001816
:1003A0005B412018A2F5001747EB030140EAD57026
:1003B000B6196D4111E06D084FEA360645EAC07581
:1003C0004FEA0752001B61EB0201001C41F580114E
:1003D00049084FEA30000019514132462B4603B01C
:1003E000BDE8F04F00F02FBA009801224000002332
:1003F000D0EB020263EBE073009821464FEAE07411
:10040000B8EB000061EB0401E9E783F000435BE730
:1004100081F0004158E72DE9FE4F81EA030404F022
:10042000004421F0004100944FF0000B23F0004302
:1004300050EA01045ED052EA03045BD0C3F30A54CD
:10044000C1F30A552C44A4F2F3340194A0FB0254E6
:10045000C1F3130141F48011C3F3130343F4801378
:1004600001FB024400FB034E840A970A44EA8154CC
:1004700047EA8357A4FB076802958D0A05FB0785A9
:100480004FEA932C04FB0C542705029D4FEA0658B3
:1004900047EA1637B5EB08056EEB070C870E920E90
:1004A00047EA811742EA8312A7FB0201B6EB0B0170
:1004B00064EB00042B0D43EA0C335E1844EB1C5034
:1004C000DA465146E7FB0201C5F313044FEA0B334A
:1004D00043EA14534FEA0432019C43EA0603A4F1B1
:1004E0000C040294009CCDE900B400F0BBF903B009
:1004F000BDE8F08F00200146F9E72DE9F04D81EAD3
:10050000030404F0004B21F0004514464FF0000AAC
:1005100023F0004150EA050220D054EA01021DD028
:10052000C5F30A570246C5F31303C1F31300C1F321
:100530000A5640F4801543F48013A7EB0608101BFD
:10054000D64608F2FD3873EB050002D308F1010826
:1005500001E092185B41B8F1000F03DA0020014678
:10056000BDE8F08D00204FF48011064684460EE071
:10057000171B73EB050705D3121B63EB050306433B
:100580004CEA010C49084FEA300092185B4150EAEE
:100590000107EDD152EA030012D082EA040083EA97
:1005A0000501084305D0101BAB4106D201220023F0
:1005B00006E000224FF0004302E06FF0010253100A
:1005C0001AEB06004CEB085110EB0A0041EB0B0153
:1005D000BDE8F04D00F037B930B5041E71F10004EC
:1005E00004DB4FF00044404264EB0101141E73F140
:1005F000000405DB1C464FF00043524263EB04034A
:10060000801A994101D3012030BD002030BD30B5A2
:10061000041E71F1000404DB4FF00044404264EB1F
:100620000101141E73F1000405DB1C464FF000436A
:10063000524263EB0403101A8B4101D2012030BDFA
:10064000002030BD30B5041E71F1000404DB4FF012
:100650000044404264EB0101141E73F1000405DB09
:100660001C464FF00043524263EB0403101A8B41C7
:1006700001D3012030BD002030BD30B5041E71F122
:10068000000404DB4FF00044404264EB0101141EFF
:1006900073F1000405DB1C464FF00043524263EB4C
:1006A0000403801A994101D2012030BD002030BDE1
:1006B0000EB5C10F80EAE0700844CA07002140F27D
:1006C00033438DE80E000A460B4600F0CBF803B02A
:1006D00000BD0EB540F2334102910021CDE9001179
:1006E0000A460B4600F0BEF803B000BD00F0004221
:1006F00030F000400AD0C10D01F56071C0F3160062
:1007000042EA0151C20840071143704700200146E8
:10071000704701F0004330B421F0004150EA01027B
:1007200006D00A0DA2F56072C1F31301002A02DCA3
:1007300030BC00207047440F44EAC104C100E018F7
:1007400030BC00EBC25000F047B830B50B46014654
:1007500000202022012409E021FA02F59D4205D360
:1007600003FA02F5491B04FA02F52844151EA2F10A
:100770000102F1DC30BD202A04DB203A00FA02F14C
:10078000002070479140C2F1200320FA03F319437F
:1007900090407047202A04DB203A21FA02F0002121
:1007A000704721FA02F3D040C2F120029140084381
:1007B00019467047202A06DBCB17203A41FA02F08F
:1007C00043EAE07306E041FA02F3D040C2F12002AE
:1007D00091400843194670470029A8BF7047401C44
:1007E000490008BF20F00100704710B4B0FA80FC47
:1007F00000FA0CF050EA010404BF10BC704749B184
:10080000CCF1200421FA04F411FA0CF118BF0121F3
:1008100021430843A3EB0C01CB1D4FEA00614FEAD3
:10082000102042BF002010BC704700EBC3501044A2
:100830000029A4BF10BC7047401C490008BF20F02D
:10084000010010BC704710B5141E73F1000408DAE3
:10085000401C41F1000192185B411A4301D120F084
:10086000010010BD2DE9F04D92469B4611B1B1FA41
:1008700081F202E0B0FA80F220329046FFF77BFF6F
:1008800004460F4640EA0A0041EA0B0153465A4625
:10089000084313D0114653EA010019D0C8F14002B1
:1008A0005046FFF777FF05460E46504659464246EA
:1008B000FFF761FF084305D0012004E020463946D8
:1008C000BDE8F08D0020054346EAE0762C4337432F
:1008D0000A986305E40AA0EB08000022FD0A44EA36
:1008E00047540A3002D500200146E9E701051019F6
:1008F0006941DDE9084500196941BDE8F04DA2E70D
:10090000C1F30A52C1F3130140F2FF3341F48011E5
:100910009A4202DA00200146704740F233439A427D
:10092000A2F2334202DC5242FFF734BFFFF723BF8B
:1009300030B5041E71F1000404DB4FF00044404266
:1009400064EB0101141E73F1000405DB1C464FF03B
:100950000043524263EB0403994208BF904230BD0A
:10096000064C074D06E0E06840F0010394E80700FC
:1009700098471034AC42F6D3FFF732FCCC74000831
:10098000EC74000870B5C1F30A5201F00045002470
:10099000C1F3130140F2FF3341F480119A4201DAAE
:1009A000002070BD40F233439A42A2F2334203DC8E
:1009B0005242FFF7EFFE00E090402C43F1D040425E
:1009C00070BD0000FEE7000070470000EFF31080EC
:1009D00072B600BFFEE7000040F2AC20C2F2000099
:1009E00000F0F6BA10B588B000240120CDE9050466
:1009F0006FF06040079040F2AC20C2F2000002A904
:100A0000CDE90244049400F0C9F9002818BFFFF7AB
:100A1000DDFF40F2AC20C2F20000002100220023E2
:100A2000009400F0EBF9002818BFFFF7CFFF40F269
:100A3000AC20C2F200000121002200F0C9F8002819
:100A400018BFFFF7C3FF40F2AC20C2F2000000F075
:100A500093FE08B010BD000040F21030C2F200005A
:100A600000F0B6BA40F21030C2F2000000F0B0BAA6
:100A700010B588B000240120CDE903040220CDE99F
:100A800005046FF06040079040F21030C2F20000A1
:100A900002A9029400F082F9002818BFFFF796FF20
:100AA00040F21030C2F20000012101220023009424
:100AB00000F0A4F9002818BFFFF788FF40F21030BB
:100AC000C2F200000821002200F082F8002818BFBE
:100AD000FFF77CFF40F21030C2F2000000F04CFE45
:100AE00008B010BD80B5014690F82500022825D138
:100AF0000868D1E910CE8A6C036823F00E03036006
:100B0000136823F480731360026822F0010202600C
:100B10000EF01F00012202FA00F0CCF80400D1E927
:100B200013205060486D68B1026822F48072026040
:100B3000D1E916024260002005E000BF0420C8632E
:100B4000012000E00020012281F82520002281F808
:100B5000242080BD80B590F8251002292ED101688F
:100B6000D0E910CE826C0B6823F00E030B600B688B
:100B700023F001030B60116821F4807111600EF005
:100B80001F02012101FA02F2CCF80420D0E913324D
:100B90005A60426D32B1136823F480731360D0E958
:100BA0001623536080F82510826B002180F82410F2
:100BB0000AB190470021084680BD00BF0421C163EF
:100BC0000121002280F8251080F82420084680BDED
:100BD00010B590F85C30013B012B69D8006811F02A
:100BE000070ED0F858C00CF0010300D01BB311F071
:100BF000380F02D01CF002041DD011F4E07F02D0A7
:100C00001CF0040417D011F4F05F02D01CF00804AB
:100C100011D011F4604F02D01CF010040BD011F46D
:100C2000403F02D01CF0200405D011F47C0F06D008
:100C30001CF0400403D1C46D44F00104C465BEF14E
:100C4000000F18BF002B3BD111F0380F18BF1CF05C
:100C5000020335D111F4E07F18BF1CF004032FD13B
:100C600011F4F05F18BF1CF0080329D111F4604F94
:100C700018BF1CF0100323D111F4403F18BF1CF023
:100C800020031DD111F47C0F18BF1CF0400317D1B5
:100C90000B061BD4CB0504D5D0F8E0301A43C0F8BE
:100CA000E02000F15402002013681943116010BDC8
:100CB00000F160020120022113681943116010BD88
:100CC000C36D43F00203C3650B06E3D5D0F8DC30F7
:100CD0001343C0F8DC30CB05E3D5DDE72DE9F04167
:100CE00090F85C30022B15D10668D6F8C4309B0210
:100CF00018D4D6F8C430D1E90075D1F808E00C69F1
:100D0000C3F3014CB5B144EA070343EA0E0343F0D1
:100D1000804E13E0016E41F0080101660120BDE83C
:100D2000F08100BF016E41F4007101660120BDE851
:100D3000F08100BF44EA87434EEA030ED1E907572A
:100D4000D1E9058445EA0765CB682C43456D44EA43
:100D500008040CEBCC0744EA034405EBC70345F851
:100D600037E05C60CF6887B147F2784508330332DB
:100D70000024C0F6000500BF171957F8037C1F5167
:100D8000CF680434EF5DBC42F6D3012101FA0CF1C7
:100D9000C6F8CC1081650020BDE8F08180B590F8E0
:100DA0005C20013A012A13D80A68BAB101F1040E95
:100DB000D1E904319EE80450406C43EA4E7E41EA9A
:100DC0008C7100EBC20340F832E00020596080BD16
:100DD000016E41F002010166012080BDD1E90323CB
:100DE000D1E901CED206496942EA8E7242EA034253
:100DF000006C114340F82C10002080BD80B590F8A5
:100E00005CC0BCF1010F13D100689200D0F880C023
:100E1000DDF808E042EA011141EA43012CF03F0C01
:100E200041EA0E0141EA0C01C0F88010002080BDAB
:100E3000016E41F004010166012080BD7047000091
:100E4000006846F60001C4F20001884208D046F26C
:100E50000041C4F20001884218BF704703F058BA3D
:100E600003F088BA2DE9F04390F85C70022F1BD193
:100E7000D0F800C040291FD1DCF890703F0700F087
:100E80009D80DCF89070FF0146BFDCF88070C7F3EE
:100E900040270027DCF89060C6F3012606EB070C1C
:100EA00000F148071DE000BF016E41F00801016636
:100EB0000120BDE8F08300BFDCF898703F077DD0CB
:100EC000DCF89870FF0146BFDCF88070C7F300279C
:100ED0000027DCF89860C6F3012606EB070C00F14A
:100EE0004C073F680CEBCC0657F8365007EBC60EA4
:100EF00015F08045556057F8365025F0604408BF1E
:100F0000C5F38A44146057F8365005F000559560D3
:100F100057F8364004F000441461BEF80440D46130
:100F2000BEF8064014F00F04D460DEF8044004F468
:100F300080145461DEF8044004F4001494619EF8B7
:100F4000074004F07F041462DEF804404FEAD474D2
:100F5000546228D047F278480024C0F6000800BF49
:100F60000EEB0406377A651C1F55D76818F8077012
:100F7000BD4218D2757A1F197D70D56818F8059092
:100F8000A51C4D450FD2B57ABD70D56818F80590EF
:100F9000E51C4D4507D2F57A0434FD70D56818F884
:100FA0000550AC42DCD3006840290CBFC0F894C0A7
:100FB000C0F89CC00020BDE8F08300BF016E41F482
:100FC000807101660120BDE8F083000070470000D9
:100FD0002DE9F04F85B004460068016D426DD0F8F0
:100FE00050B0456D076D466D036D01EA020804932C
:100FF000436D0393036D0293436D0193D0F854A0A6
:10100000D0F850905FEA496307D51AF0400104D048
:10101000402101652046FFF7D9FF0BEA050B5FEA87
:10102000C95008F4E0550ED51AF480700BD0206832
:10103000D0F8D810D0F8E02011404FF4807202654B
:10104000204600F0B3FB37400BF007062DB12068B7
:1010500029460565204600F0ADFB07F038052EB1A6
:10106000206831460665204600F042FA2DB120681E
:1010700029460565204600F03FFB5FEA895009D507
:101080001AF4007006D020684FF400710165204604
:1010900000F092FB5FEA09600DD51AF080000AD0DB
:1010A0002068D0F8D410D0F8DC20114080220265EE
:1010B000204600F07DFB5FEA894009D51AF4005014
:1010C00006D020684FF400510165204600F06CFB0B
:1010D0005FEA0940DDE9011000EA010509D51AF4CB
:1010E000004006D020684FF400410165204600F022
:1010F00059FBDDE9031008405FEA494105F460212E
:101100000AD51AF4804207D022684FF48043136551
:10111000226E42F08002226600F4710521B120683F
:1011200001652046FFF78CFE25B120680565206E1D
:1011300028432066206E28B1204605B0BDE8F04F58
:10114000FFF77CBE05B0BDE8F08F000070B5D8B1E8
:10115000044690F85C0028B9002084F85D00204621
:1011600000F01EF92068816921F01001816100F012
:10117000FBFB054620688169090707D500F0F4FBF1
:10118000401B0B28F6D312E0012070BD816941F0AD
:101190000101816100F0E8FB054600BF206881691C
:1011A000C9070DD100F0E0FB401B0B28F6D3206EE1
:1011B000032140F001002066012084F85C1070BD1E
:1011C000826946F2004CC4F2000C42F00202604513
:1011D000826102D16268CCF80021227C8369012AF5
:1011E00023F0400318BF40338361627C8369012A86
:1011F00023F4804308BF03F580438361A27C8369A5
:10120000012A23F4805318BF03F580538361826958
:10121000D4E902E322F4407545EA0E05856185694B
:1012200025F0A4058561056925F0100505619BB1D0
:10123000012B0DD0022B09D08569032B45F08005C9
:101240008561056945F01005056105D1202300E0A1
:10125000042385692B43836104F114052ACD226A96
:101260005E1E6FF0FF0303EB052545EA4665013A74
:101270002A430025CFF6FF7505EB01411143BEF56A
:10128000407FC16110D1D4E909E2D4E90B61013A90
:1012900003EB06231A436FF00F0303EB0111114315
:1012A00005EB0E421143C160D4E90D13E26BD0F897
:1012B000C0603243C0F8C0200CF580660CF5804257
:1012C000B04204BF4AF25072C4F200020CF500664C
:1012D000B04208BF02F5D4622264D0F8806026F4E0
:1012E000F81646EA0141C0F8801002F1700161640D
:1012F000D0F8801021F0706141EA0361C0F88010DD
:1013000002F1B000A06402F5C470E06402F5187048
:10131000206502F51E70606502F55470002100BF63
:10132000C2E90011C2E90211C2E90411C2E90611C1
:10133000C2E90811C2E90A11C2E90C11C2E90E1191
:10134000C2E91011C2E91211C2E91411C2E9161161
:10135000C2E91811C2E91A11C2E91C11C2E91E1131
:10136000C2E92011C2E92211C2E92411C2E9261101
:10137000C2E92811C2E92A11C2E92C11C2E92E11D1
:10138000C2E93011C2E93211C2F8D010D43282421F
:10139000C6D300200121A065206684F85C1070BDD2
:1013A00010B59CB0044600201B90CDE91900CDE992
:1013B000170002A85421FEF775FF206846F60001C9
:1013C000C4F20001884243D046F20041C4F2000159
:1013D000884240F08A804FF4805002904FF00070B5
:1013E000109002A800F012FC002818BFFFF7EEFAD8
:1013F00040F2A821C2F200010A6841F24C00C4F296
:101400000200531C0B6042B9C16841F00071C16019
:10141000C16801F0007101910199016841F0010179
:101420000160006817A900F00100019001984FF4D5
:10143000C0501790022018900020CDE91900092013
:101440001B904FF0904000F0B9F9152445E000BF23
:101450004FF4805002904FF00070109002A800F0FE
:10146000D5FB002818BFFFF7B1FA40F2A821C2F25D
:1014700000010A6841F24C00C4F20200531C0B60E8
:1014800042B9C16841F00071C160C16801F00071EA
:1014900001910199016841F002010160006817A9FA
:1014A00000F00200019001984FF440501790022084
:1014B00018900020CDE9190009201B9040F200404F
:1014C000C4F6000000F07AF956200021002200F056
:1014D000C3FA562000F0ACFA57242046002100221F
:1014E00000F0BAFA204600F0A3FA1CB010BD0000CC
:1014F0002DE9F04F81B02DED0A8B98B040F2AC2170
:10150000C2F20001884205D018B0BDEC0A8B01B0D0
:10151000BDE8F08F40F2AC20C2F2000002AA6B4698
:101520004021FFF79FFC28B1EFF3108072B600BF97
:10153000FEE700BF02999DF8000040F2401BAE2973
:10154000C2F2000B08BF722804D0BE2908BF6A2867
:10155000DAD12AE0AA200F9000200821CDE912104C
:101560004FF4801114914FF40011CDE91000CDE932
:1015700015101790CDE90C0040F21030C2F20000B7
:101580000FA90CAAFFF7AAFB28B147F2B740C0F693
:10159000000005F0B3FE02999DF8000001228BF8CF
:1015A0000020BE2908BF6A28AED19BED020AB9EE21
:1015B000049A30EE090A10EE100AFFF797F89FED33
:1015C000460B53EC102BFEF77FFE9FED450B0446B8
:1015D00058EC109B4A4643460D4641EC180BFFF76A
:1015E00031F840F25056C2F2000658BB9FED3E0B58
:1015F00020465AEC107B29463A465346FEF7ECFF4C
:1016000000BB9BED030A30EE090A10EE100AFFF74B
:101610006DF89FED370B53EC102BFEF755FE3A4655
:10162000534604460D4641EC190BFEF7D5FF48B969
:10163000204629464A464346FFF704F810B986ED8E
:10164000008B05E096ED000B86ED000B96ED029BFE
:1016500086ED029B96ED000B51EC100BFFF759F84D
:1016600096ED020B08EE100A51EC100BFFF751F843
:1016700096ED040B09EE100A51EC100BFFF749F838
:1016800096ED0C0B0AEE100A51EC100BFFF741F827
:1016900096ED0E0B0BEE100A51EC100BFFF739F81C
:1016A00096ED100B0CEE100A51EC100BFFF731F811
:1016B00002EE900AB0EE480AF0EE490AB0EE4A1A7D
:1016C000F0EE4B1AB0EE4C2A04F0E0FA18B0BDEC84
:1016D0000A8B01B0BDE8F08F8FC2F5285C0F374050
:1016E000000000000088A3400000000000006940E6
:1016F000F6285C8FC27535C040F21031C2F200018D
:10170000884218BF704780B58CB040F21030C2F2EA
:10171000000002AA6B464121FFF7A4FB10B112A002
:1017200004F092FA0298142819D10098019900EE59
:10173000100A9FED101A02EE101AB8EE400AB8EE29
:10174000422A80EE010A82EE011A40F24012C2F2F1
:101750000002C2E9130182ED020A82ED031A0CB005
:10176000BDE88040704700BF4E4F206C61736572CA
:101770000A0000000000C84290F85C1001290BD15B
:10178000022180F85C1001688A6922F001028A61F6
:101790000021016608467047016E41F004010166B0
:1017A000012070477047000070470000704700003C
:1017B0007047000070470000704700002DE9F04FAF
:1017C00082B00D68002D00F0CB8041F2004400F1A2
:1017D0003847C4F6000406224FEAB726A04208BFE5
:1017E0000522052E38BF4FEAB722002401274FF00B
:1017F000000E0026009209E00D68013635FA06F267
:101800000EF1040E04F1020400F0AA8007FA06FBB0
:1018100015EA0B08F0D0D1F804A003220AF0030C5B
:10182000ACF10105A240012D6FEA020910D88268CF
:10183000CD6802EA0902A5402A4382604268CAF3E1
:10184000001522EA0B02B5402A43426006E000BFC1
:10185000BCF1030F02D14FF0030C21E0C2688D6888
:1018600002EA0902A5402A43BCF1020FC26017D167
:101870006FF0030202EA560202440EF01C030F2529
:10188000D2F820C005FA03FA0D692CEA0A0C05FA11
:1018900003F343EA0C031362D1F804A00AF0030C2B
:1018A00002680CFA04F302EA09021A431AF4403FF0
:1018B0000260A1D041F26003C4F202031A6840F250
:1018C000004942F001021A601A68C4F2010902F0EC
:1018D00001020192019A26F003024FF6084A4A4497
:1018E000CFF6FF7A52F80AC00EF00C050F23009FC6
:1018F000AB402CEA030307FA05F52B4342F80A3004
:10190000D9F808C04B684CEA0805DA0258BF2CEA3F
:10191000080540F20C4CC9F80850C4F2010CDCF880
:1019200000209F0242EA080558BF22EA0805CCF8C9
:101930000050D9F804209D0342EA080758BF22EA64
:101940000807C9F80470D9F80020DB0342EA080749
:1019500058BF22EA0807C9F8007001274CE700BF0A
:1019600002B0BDE8F08F000040F22060C2F200003B
:101970000068704740F2480040F22061C2F2000067
:10198000C2F2000140680A68104408607047000015
:1019900080B5032000F08CF80F2000F009F8002833
:1019A0001CBF012080BD00F029F8002080BD000090
:1019B00070B540F24806C2F200067168E1B1044613
:1019C00040F25000C2F200004FF47A720068B2FB9D
:1019D000F1F1B0FBF1F000F0D1FE0F2C4FF001055A
:1019E00008D838B94FF0FF3021460022002500F01A
:1019F00033F83460284670BD012070BD82B041F2DA
:101A00005800C4F20200816841F0010181608168E0
:101A100001F0010101910199016841F080510160DB
:101A2000006800F080500090009802B000F0E4B828
:101A3000002848BF7047C1B200F01F00012202FA1F
:101A400000F04EF20012CEF2000242EAD10121F083
:101A5000030108607047000010B54EF60C5CCEF232
:101A6000000CDCF80030C3F3022E8EF00704042CC7
:101A700028BF0424BEF103034FF0FF3E0EFA04F426
:101A800038BF0023A14399400EFA03F39A43114350
:101A900000F00F0200F160430901043A03F56443CA
:101AA0006244002848BF02F10C03197010BD000009
:101AB0004EF60C51CEF200010A684FF6FF031A40B1
:101AC00060F30A2242F0806040F0FD7008607047C9
:101AD000B0F5007F42D0002840F0808047F214002B
:101AE000C4F2000050F8141CC26E01F4C06122F46C
:101AF0008072B1F5806FC2662ED150F8141C01229D
:101B000062F34A2140F8141C40F25001C2F2000175
:101B10000968322251434DF68362C4F21B32A1FBA5
:101B20000212910C0268520511D54A1C0FD00268AE
:101B300052050CD559B10268520508D5012906D0C5
:101B40000268520503D50229A1F10401EAD1006817
:101B5000400544BF032070470020704747F214003F
:101B6000C4F2000050F8141CC26E01F4C06142F4CB
:101B70008072B1F5806FC266EED150F8141C01225C
:101B800062F34A2140F8141C40F25001C2F20001F5
:101B90000968322251434DF68362C4F21B32A1FB25
:101BA0000212910C0268520511D54A1C0FD002682E
:101BB00052050CD559B10268520508D5012906D045
:101BC0000268520503D50229A1F10401EAD1006897
:101BD000400544BF03207047BEE700BF47F2140032
:101BE000C4F2000050F8141C022262F34A2140F8AB
:101BF000141C00207047000047F20800C4F20000E7
:101C0000016841F480410160704700002DE9F04116
:101C100082B00446807841F288060007C4F20206CA
:101C200002D400202FE000BF56F8300C10F080588E
:101C30000BD156F8300C40F0805046F8300C56F876
:101C4000300C00F080500190019847F20007C4F278
:101C50000007386840F480703860FFF785FE05465D
:101C60003868C00500F10C81FFF77EFE401B02289A
:101C7000F6D90320B8F1000F05D156F8301C21F039
:101C8000805146F8301C2168CA0717D18A071DD435
:101C90004A0723D40A0729D4CA062FD48A0635D482
:101CA0004A063BD40A0641D4CA0547D48A034DD418
:101CB0008A0553D44A0559D467E000BF3268636887
:101CC00022F003021A4332608A07E1D53268A36822
:101CD00022F00C021A4332604A07DBD53268E3680F
:101CE00022F030021A4332600A07D5D532682369E0
:101CF00022F0C0021A433260CA06CFD53268636947
:101D000022F440721A4332608A06C9D53268A36948
:101D100022F440621A4332604A06C3D53268E3694E
:101D200022F440521A4332600A06BDD53268236A53
:101D300022F440421A433260CA05B7D53268636A5A
:101D400022F440321A4332608A03B1D57269A36A21
:101D500022F003021A4372618A05ABD53268E36A46
:101D600022F440221A4332604A050ED53268236BB2
:101D700022F440121A43B3F5801F326005D156F8A1
:101D80007C2C42F4801246F87C2C0A050ED5326871
:101D9000636B22F440021A43B3F5800F326005D121
:101DA00056F87C2C42F4801246F87C2CCA040ED5DE
:101DB0003268A36B22F040721A43B3F1807F326025
:101DC00005D156F87C2C42F4801246F87C2C8A040B
:101DD0000ED53268E36B22F040621A43B3F1006F14
:101DE000326005D156F87C2C42F4801246F87C2CE7
:101DF0004A040ED53268236C22F040621A43B3F1D4
:101E0000006F326005D156F87C2C42F4801246F8FF
:101E10007C2C0A040ED53268636C22F040521A43BF
:101E2000B3F1805F326005D156F87C2C42F48032E9
:101E300046F87C2CCA030ED53268A36C22F04042CF
:101E40001A43B3F1804F326005D156F87C2C42F42E
:101E5000803246F87C2C49030ED57169E26C21F47E
:101E600040111143B2F5001F716105D156F87C1C79
:101E700041F4801146F87C1C02B0BDE8F08100BF3F
:101E8000B06810F4407010D0216D88420BD0B0685B
:101E9000B16820F4407041F48031B160B16821F440
:101EA0008031B160B060C0070CD1B068216D20F402
:101EB00040700843B0600020B8F1000F7FF4E3AE3B
:101EC000DBE600BFFFF750FD054641F2883700BF53
:101ED000B0688007E9D4FFF747FD401BB842F7D947
:101EE000C7E600002DE9F04700286DD042F2000A55
:101EF000C4F2020A0446DAF800000D4600F00F00B2
:101F000088420CD2DAF8000020F00F002843CAF80B
:101F10000000DAF8000000F00F00A84254D1216858
:101F200041F20808C807C4F2020803D1880740F14B
:101F3000D880BDE0606802283AD0032840D158F824
:101F4000082C920140D5D8F80420D8F8043042F289
:101F50000046C3F3031302F00302D8F80470013300
:101F6000C0F2F406032A04BF47F64006C0F27D160D
:101F7000B6FBF3F2D8F80430C7F306277A43C3F36D
:101F80004163022707EB4303B2FBF3F24BF200433A
:101F9000C0F2C4439A4261D9D8F8002012F0F00F81
:101FA00051D089075AD5A168002957D14BE000BF0D
:101FB00058F8081C89035CBF0120BDE8F08707E0E2
:101FC00058F8081C490503D40120BDE8F08700BF7C
:101FD000D8F8001001F00C0104293FD0D8F8001007
:101FE00001F00C01082939D0D8F8001001F00C01DB
:101FF0000C2933D1D8F80410D8F8042042F2004755
:10200000C2F3031201F00301D8F804300132C0F228
:10201000F407032904BF47F64007C0F27D17B7FB5A
:10202000F2F1D8F80420C3F306235943C2F3416206
:10203000022303EB4202B1FBF2F14BF20042C0F289
:10204000C44291420AD9D8F80010082262F307115D
:102050004FF00109C8F8001002E000BF4FF000097E
:10206000D8F8001021F003010843C8F80000FFF77A
:102070007BFC064641F28837D8F80000616800F022
:102080000C00B0EB810F07D0FFF76EFC801BB8424D
:10209000F2D90320BDE8F0872168880708D4B9F198
:1020A000000F1ED0D8F8000020F0F00017E000BFAD
:1020B000480705D5D8F8000040F4E060C8F80000F3
:1020C000080706D5D8F80000072262F30D20C8F8EB
:1020D0000000D8F80000A26820F0F0001043C8F813
:1020E0000000DAF8000000F00F00A8421BD9DAF86F
:1020F000000020F00F002843CAF80000FFF734FC6E
:10210000064641F2883700BFDAF8000000F00F0001
:10211000A84207D0FFF728FC801BB842F4D903205F
:10212000BDE8F0872168480707D5D8F80000E268C5
:1021300020F4E0601043C8F80000080708D5D8F87C
:102140000000216920F4605040EAC100C8F8000096
:10215000D8F8000042F20041C0F2F40100F00C0097
:10216000042808462DD0D8F8000000F00C000828FC
:1021700047F64000C0F27D1023D0D8F8002002F0CE
:102180000C020C2A1CD1D8F80420D8F8043002F034
:102190000302C3F30313D8F804700133032A08BF02
:1021A0000146B1FBF3F0D8F80410C7F30627C1F3DA
:1021B00041610222784302EB4101B0FBF1F000E003
:1021C0000020D8F8001047F24842C1F30311C0F6CE
:1021D0000002515C40F2500201F01F0120FA01F1AF
:1021E00040F24800C2F200000068C2F20002116032
:1021F000BDE8F047FFF7DCBB40F2500041F20801B8
:10220000C2F20000C4F202010068096847F25842B5
:10221000C1F30221C0F60002515C01F01F01C84069
:102220007047000040F2500041F20801C2F2000085
:10223000C4F202010068096847F25842C1F3C221A2
:10224000C0F60002515C01F01F01C8407047000059
:1022500080B541F20C01C4F2020151F8040C42F2C3
:102260000042C0F2F40200F00C000428104608BF3F
:1022700080BD51F8040C00F00C00082847F640001F
:10228000C0F27D1022D051F8043C03F00C030C2B5B
:102290001CBF002080BDD1F800C00B680CF0030CFF
:1022A000C3F3031E0B680EF1010EBCF1030F08BF50
:1022B00002460968B2FBFEF0C3F30623C1F3416195
:1022C0000222584302EB4101B0FBF1F080BD000057
:1022D0002DE9F04182B0002800F006810446007824
:1022E00041F20006C007C4F2020655D120788007EB
:1022F00074D42078000700F197802078400700F11F
:10230000B7802078800600F10781E569002D00F094
:102310003082B06800F00C000C2840F05981012D8B
:1023200000F0E280F068216A00F003028A4240F087
:10233000DB80626A6FF00F0300F0F00103EB021222
:10234000914240F0D180A16A00F4FE42B2EB012F2D
:1023500040F0CA80E16A00F07842B2EBC16F40F011
:10236000C380226B0023CFF6E07303EA025200F42D
:10237000C001A2F50012914240F0B680616B4FF0AF
:102380007E4202EA016100F0C06001F17E418842B4
:1023900040F0AA80EDE100BFB06800F00C01F068E9
:1023A00008295BD0032281F00C0122EA00000844D6
:1023B000B0FA80F0400951D16068B0F5803F07D095
:1023C000B0F5A02F40F0DA80306840F48020306013
:1023D000306840F480303060DBE000BFB068F16806
:1023E00000F00C00042869D001F0030180F00C001B
:1023F00081F002010844B0FA80F040095ED1E16842
:102400003068002900F0D28040F480703060FFF71F
:10241000ABFA05463068400500F1FC80FFF7A4FAEE
:10242000401B0228F6D92EE16169D6F894000029F4
:1024300000F0908040F00100C6F89400FFF794FA95
:10244000054600BFD6F8940080073FF556AFFFF76A
:102450008BFA401B0228F5D915E100BF30688003D4
:102460007FF544AF606800287FF440AF3CE000BFD8
:10247000B06D10F0805808D1B06D40F08050B0655C
:10248000B06D00F080500190019847F20007C4F24F
:1024900000073868C0052BD4386840F48070386075
:1024A000FFF762FA054600BF3868C00520D4FFF781
:1024B0005BFA401B0228F7D9E5E000BF3068400511
:1024C00001D5E06880B17068216920F0FE4040EAE3
:1024D0000160706040F24800C2F200000068FFF73F
:1024E00067FA00283FF405AF012002B0BDE8F08193
:1024F000A068012808D0052840F0AA80D6F89000EE
:1025000040F00400C6F89000D6F8900040F00100BA
:10251000C6F89000A9E000BFA169D6F8980000298C
:1025200000F0808040F00100C6F89800FFF71CFA28
:10253000054600BFD6F8980080073FF5E6AEFFF7E6
:1025400013FA401B02284FF00300F3D902B0BDE894
:10255000F08100BF20F00100C6F89400FFF704FAF4
:10256000054600BFD6F8940080077FF5C6AEFFF79A
:10257000FBF9401B0228F5D985E000BF316800282F
:1025800021F480313160316821F48021316000F024
:102590007F80FFF7E9F90546306880033FF5A6AE76
:1025A000FFF7E2F9401B6428F6D96CE020F4807054
:1025B0003060FFF7D9F90546306840057FF599AEE0
:1025C000FFF7D2F9401B02284FF00300F4D9BDE712
:1025D000306820F080703060FFF7C6F9022D0546A4
:1025E0000CD100BF3068800140F17E80FFF7BCF95C
:1025F000401B02284FF00300F4D9A7E730688001A0
:1026000040F1B080FFF7B0F9401B02284FF0030003
:10261000F4D99BE77068216920F0FE4040EA016030
:10262000706066E620F00100C6F89800FFF79CF99C
:10263000054600BFD6F8980080077FF566AEFFF725
:1026400093F9401B02284FF00300F3D97EE700BF47
:10265000D6F8901021F00101C6F89010D6F890102D
:1026600021F00401C6F8901010B3FFF77DF905467C
:1026700041F28837D6F8900080072BD4FFF774F921
:10268000401BB842F6D9032002B0BDE8F08100BF7C
:10269000FFF76AF9054600BF306880037FF526AE74
:1026A000FFF762F9401B64284FF00300F4D94DE7AF
:1026B000FFF75AF9054641F2883700BFD6F8900077
:1026C000800707D5FFF750F9401BB8424FF00300D1
:1026D000F4D93BE7B8F1000F7FF413AEB06D20F0F2
:1026E0008050B0650DE600BFF06848F20C01C0F202
:1026F0009F1104F1200700EA010C8ECF6FF00F004C
:10270000D4E90C5400EB02100022CFF6E07241EA4B
:102710000C0102EA05520843A2F500124FF07E4573
:1027200040EA032005EA0465104305F17E4540EACE
:10273000C7602843F060306840F080703060F06817
:1027400040F08070F060FFF70FF9044630688001B8
:102750000FD4FFF709F9001B02284FF00300F5D949
:10276000F4E600BFF0684FF6FC71CFF6EE6108406A
:10277000F060002002B0BDE8F0810000411E0020A2
:10278000B0EB116F1CBF012070474EF21002CEF269
:10279000000251604EF62351CEF20001F0230B707F
:1027A000072190601160704770470000704700007B
:1027B000704700007047000070470000704700003D
:1027C00070B590F83C20012A4FF0020265D080F8E5
:1027D0003D20026842F600435468D2F808C0C4F2B3
:1027E000010345F2000E9A42C4F2010E18BF724571
:1027F0002CD14D6824F470042C434FF68F75CFF61E
:10280000FF550E682C4042F6FF35C4F201053443F3
:10281000AA4254600EDC40F2FF73C4F200039A42F5
:102820001CDCB2F1804F2DD040F20043C4F2000313
:1028300026E000BF43F6FF74C4F20104A24219DC93
:102840009A421FD043F2004318E000BF43F2004514
:10285000C4F20105AA42CCD0CFE700BF40F6000386
:10286000C4F200039A420DD040F60043C4F20003C4
:1028700006E000BF724505D044F20003C4F2010334
:102880009A4204D189682CF0800319439160012198
:10289000002280F83D1080F83C20104670BD0000FA
:1028A0007047000090F83D1001291CBF01207047BF
:1028B000022180F83D10016842F6FF32C868C4F278
:1028C0000102914240F00100C8600DDC40F2FF704F
:1028D000C4F20000814217DCB1F1804F2CD040F2ED
:1028E0000040C4F2000025E043F6FF70C4F201008E
:1028F000814215DC42F60040C4F2010081421BD047
:1029000043F2004014E000BF40F60000C4F20000B3
:10291000814211D040F60040C4F200000AE000BF3E
:1029200045F20000C4F20100814205D044F20000EB
:10293000C4F2010081420CD188680722C0F2010272
:102940000240062A4FF0000008D0B2F5803F08BFD1
:102950007047086840F001000860002070470000E0
:10296000002804BF012070472DE9F047044690F885
:102970003D000D4628B9002084F83C00204600F0B8
:102980004BF8022084F83D0020684BF6F87281680D
:10299000CFF6FE7211408160211D01F065FE2068B6
:1029A0004FF6FF7881688269D0F820C0D5E9003EF3
:1029B000D5E9026A43EA0109AB6922EA080246EA5C
:1029C00003234FF6FC46B343D5E9076742EA0A0200
:1029D00029691A4342EA062242EA01112CF0AA02AE
:1029E0006B6942EA0E0241EA073142EA0312C0F87B
:1029F000089081610262012084F8480084F83E005A
:102A000084F83F0084F8440084F8450084F83D00D1
:102A10000020BDE8F087000010B586B000680021F6
:102A2000B0F1804F0591CDE903110291019145D09C
:102A300042F60041C4F2010188426BD141F24C00E0
:102A4000C4F20200416941F400614161416901F44D
:102A5000006100910099016841F001010160006886
:102A600001A900F00100009000984FF4407001901F
:102A7000022002900020CDE90300062005904FF0CF
:102A80009040FEF79BFE182000210022FEF7E4FF95
:102A90001820FEF7CDFF192000210022FEF7DCFFF1
:102AA0001920FEF7C5FF1A2000210022FEF7D4FFEF
:102AB0001A20FEF7BDFF1B2424E000BF41F24C00AA
:102AC000C4F20200C26842F00102C260C26802F0B1
:102AD00001020092009A026842F00102026000685E
:102AE00000F0010000900098032001900220CDE941
:102AF000020101200491059001A94FF09040FEF7DA
:102B00005DFE1C24204600210022FEF7A5FF204682
:102B1000FEF78EFF06B010BD70470000F0B581B023
:102B200004460068C5680669B10717D515F00201AB
:102B300014D06FF0020101610121217780698007C3
:102B400004D02046FFF7E8FF06E000BF204600F073
:102B5000CBF8204600F0CAF800202077700719D57E
:102B600015F0040016D020686FF004010161022105
:102B70002177806910F4407F04D02046FFF7CCFF16
:102B800006E000BF204600F0AFF8204600F0AEF8A7
:102B900000202077300717D515F0080014D02068E2
:102BA0006FF00801016104212177C069800703D01B
:102BB0002046FFF7B1FF05E0204600F095F82046DB
:102BC00000F094F800202077F00619D515F01000D9
:102BD00016D020686FF01001016108212177C069CB
:102BE00010F4407F04D02046FFF796FF06E000BFB8
:102BF000204600F079F8204600F078F80020207791
:102C0000F00718BF15F0010006D020686FF0010131
:102C10000161204600F06CF816F4025F05F08007B1
:102C200018BF002F02D1F00509D410E020686FF41E
:102C3000025101612046FFF7B9FDF00507D537B114
:102C400020686FF4807101612046FFF7ADFD7006CA
:102C500009D515F0400006D020686FF040010161F1
:102C6000204600F075F8B00609D515F0200006D012
:102C700020686FF0200101612046FFF799FDF00206
:102C800009D515F4801006D020686FF48011016119
:102C90002046FFF791FDB00209D515F4001006D0CB
:102CA00020686FF4001101612046FFF783FD700278
:102CB00009D515F4800006D020686FF48001016109
:102CC0002046FFF77BFD30020CD515F4000009D03B
:102CD00021686FF4000220460A6101B0BDE8F040AF
:102CE000FFF7DEBD01B0F0BD704700007047000087
:102CF0000068B0F1804F17D042F60041C4F20101E4
:102D0000884218BF704740F27430C2F20000006879
:102D1000026840F20800C2F200000169D2064CBF0E
:102D2000013901310161704740F2C030C2F2000048
:102D30000068026840F20800C2F200004169D20651
:102D400042BF013941617047013141617047000064
:102D50007047000090F88410012904BF02207047DA
:102D60002421C0F8881002681168136823F0010359
:102D7000136021F000530021416613602022C0F847
:102D8000882080F8841008467047000070470000D3
:102D900070470000B0B590F88420012A04BF0220DB
:102DA000B0BD2422C0F888200268D0F864E0D2F8D0
:102DB00000C01368BEF1000F23F001031360936895
:102DC00023F0606341EA0301916019D09368916830
:102DD00047F2984E490FC0F6000E47F2A0451EF884
:102DE0000140C0F60005695CC3F34263E400B4FB34
:102DF000F1F11EF80340EB5CE500B5FBF3F301E0F5
:102E000001210123A0F86A102021A0F86830C2F83F
:102E100000C0C0F88810002180F884100846B0BDBA
:102E2000B0B590F88420012A04BF0220B0BD24224E
:102E3000C0F888200268D0F864E0D2F800C01368B7
:102E4000BEF1000F23F001031360936823F0604389
:102E500041EA0301916019D09368916847F2984E56
:102E6000490FC0F6000E47F2A0451EF80140C0F61B
:102E70000005695CC3F34263E400B4FBF1F11EF8A2
:102E80000340EB5CE500B5FBF3F301E00121012316
:102E9000A0F86A102021A0F86830C2F800C0C0F87D
:102EA0008810002180F884100846B0BD70470000EB
:102EB00070470000014640F20C40C2F2000081421F
:102EC00012D040F2A040C2F20000814218BF704709
:102ED00040F2B811C2F2000100230831022280F84A
:102EE000843000F0D3BB00BF40F258010023C2F28F
:102EF0000001012280F8843000F0C8BB70B5016881
:102F000040F62F03CA69044608688E681340202BD8
:102F10000CD100F0200306F080555B1917D0616FCB
:102F200000297BD02046BDE87040084740F60F03DB
:102F30001A420CD00123C1F2000306EA030C40F24E
:102F40002013C0F20043034013EB0C0368D1E36E7F
:102F5000012B05D112F0100318BF10F010034DD152
:102F6000D3020BD516F4800308D04FF4801220460C
:102F70000A62BDE87040FFF79BBF00BF110606D58F
:102F800000F0800106F40003C91840F035825106B4
:102F900040F10E8110F0400100F00A81206850E8F5
:102FA000000F216820F0400041E80002DAB12068FB
:102FB00050E8000F216820F0400041E8000292B183
:102FC000206850E8000F216820F0400041E800022E
:102FD0004AB1206850E8000F216820F0400041E825
:102FE0000002002ADAD120200021C4F888002046FF
:102FF000A167BDE8704000F0C1BD00BF10200862AD
:103000008868400618D4B4F85C00B4F85E10B4F8D0
:103010005E20002A18BF884240F0068270BD00BFC3
:10302000D30718BF10F4807340F0CE80930706F0EA
:10303000010E00F1D580DEE0D4F880000068416820
:103040008AB2002AEAD0B4F85C309A42E6D2A4F8F8
:103050005E100068800600F19E80206850E8000F36
:10306000216820F4807041E80002DAB1206850E85D
:10307000000F216820F4807041E8000292B12068BE
:1030800050E8000F216820F4807041E800024AB146
:10309000206850E8000F216820F4807041E80002A9
:1030A000002ADAD1206850E8020F216820F00100E0
:1030B00041E80202BAB3206850E8020F216820F00C
:1030C000010041E8020272B3206850E8020F216853
:1030D00020F0010041E802022AB3206850E8020F04
:1030E000216820F0010041E80202002ADAD11AE04A
:1030F000206850E8020F216820F0400041E80202F9
:10310000DAB1206850E8020F216820F0400041E861
:10311000020292B1206850E8020F216820F04000BE
:1031200041E802024AB1206850E8020F216820F00D
:10313000400041E80202002ADAD12020C4F88C00C5
:103140000020E066206850E8000F216820F01000A1
:1031500041E80002DAB1206850E8000F216820F051
:10316000100041E8000292B1206850E8000F216889
:1031700020F0100041E800024AB1206850E8000F3A
:10318000216820F0100041E80002002ADAD1D4F8CA
:103190008000FDF7A7FC02202067B4F85C00B4F8BB
:1031A0005E10401A81B22046BDE87040FFF7EEBDC8
:1031B000110240F1278110F0804100F02381204668
:1031C000BDE87040FFF772BE01230B62D4F8903067
:1031D00043F00103C4F89030930706F0010E0AD5BE
:1031E000BEF1000F07D002230B62D4F8903043F0F9
:1031F0000403C4F8903053070AD5BEF1000F07D07E
:1032000004230B62D4F8903043F00203C4F89030EA
:1032100013070CD500F0200353EA0C0307D0082352
:103220000B62D4F8903043F00803C4F890301305D3
:103230000BD510F0806308D04FF400630B62D4F814
:10324000903043F02003C4F89030D4F89030002B35
:103250003FF4E4AE12F020021EBF00F0200006F0A2
:10326000805210EB020040F06181D4F89000896830
:1032700000F0280001F04001401807D12046FFF778
:1032800019FE0020C4F8900070BD00BF206850E80F
:10329000000F216820F4907041E80002DAB1206844
:1032A00050E8000F216820F4907041E8000292B1CC
:1032B000206850E8000F216820F4907041E8000277
:1032C0004AB1206850E8000F216820F4907041E86E
:1032D0000002002ADAD14FF6FE70CEF6FF7000BF72
:1032E000216851E8021F2268014042E80213C3B17D
:1032F000216851E8021F2268014042E8021383B1AD
:10330000216851E8021F2268014042E8021343B1DC
:10331000216851E8021F2268014042E80213002B95
:10332000DED1E06E012824D1206850E8000F21682A
:1033300020F0100041E80002DAB1206850E8000FE8
:10334000216820F0100041E8000292B1206850E8A6
:10335000000F216820F0100041E800024AB1206807
:1033600050E8000F216820F0100041E80002002A18
:10337000DAD12020C4F88C000020E0662168606764
:10338000886840064AD500BF206850E8020F2168CF
:1033900020F0400041E80202DAB1206850E8020F54
:1033A000216820F0400041E8020292B1206850E814
:1033B000020F216820F0400041E802024AB1206873
:1033C00050E8020F216820F0400041E80202002A84
:1033D000DAD1D4F8800008B344F60D21C0F600011C
:1033E0008163FDF7B7FB00283FF418AED4F88000E6
:1033F000816BBDE870400847A16F00297FF492AD52
:103400000CE600BFD1017FF509AEB0F1FF3FC8BFA8
:1034100070BD2046BDE87040FFF7BABC2046BDE84D
:103420007040FFF747BD00BF401A00BF216851E858
:10343000001F226821F4907142E80013DBB121687B
:1034400051E8001F226821F4907142E8001393B103
:10345000216851E8001F226821F4907142E80013AE
:103460004BB1216851E8001F226821F4907142E8B5
:103470000013002BDAD14FF6FE71CEF6FF7100BFBC
:10348000226852E8022F23680A4043E80226C6B1A8
:10349000226852E8022F23680A4043E8022686B1D8
:1034A000226852E8022F23680A4043E8022646B108
:1034B000226852E8022F23680A4043E80226002EC1
:1034C000DED12021C4F88C100021E166616700BFC5
:1034D000216851E8001F226821F0100142E8001322
:1034E000DBB1216851E8001F226821F0100142E899
:1034F000001393B1216851E8001F226821F01001E8
:1035000042E800134BB1216851E8001F226821F006
:10351000100142E80013002BDAD1022281B22046CA
:103520002267BDE87040FFF731BC00BF626F002A20
:103530003FF49BAE20469047216896E610B5D8B17F
:103540000446D0F8880028B9002084F8840020467A
:1035500000F026F82420C4F888002068A16A0268D8
:1035600022F00102026011B1204601F023F9204649
:1035700001F01CFF012801D1012010BD216848681D
:1035800020F490404860886820F02A00886008682D
:1035900040F0010220460A60BDE8104001F07EB90B
:1035A00010B59CB0044600201B90CDE91900CDE970
:1035B000170002A85421FCF775FE206844F2004170
:1035C000C4F20001884227D043F60001C4F2010191
:1035D000884259D10120029002A8FEF717FB00286B
:1035E00018BFFDF7F3F941F24C00C4F20200416943
:1035F000252441F480414161416901F480410191F8
:103600000199016841F002010160006800F00200C8
:1036100001900198C02020E00220029002A8FEF74D
:10362000F5FA002818BFFDF7D1F941F24C00C4F2B9
:103630000200C168262441F40031C160C16801F470
:10364000003101910199016841F0020101600068B7
:1036500000F00200019001981820179002201890A5
:103660000020CDE9190007201B9040F20040C4F66D
:10367000000017A9FEF7A2F8204600210022FEF75D
:10368000EBF92046FEF7D4F91CB010BD80B5D0F898
:103690008C30202B1CBF022080BD00294FF001037D
:1036A00018BF002A02D1184680BD00BF0023C366A0
:1036B000D0F800C048F20003C4F200039C4533D0A8
:1036C000DCF804301B022FD5036853E800CFD0F894
:1036D00000E04CF080634EE8003CBCF1000F23D0CA
:1036E000036853E800CFD0F800E04CF080634EE868
:1036F000003CBCF1000F17D0036853E800CFD0F8AE
:1037000000E04CF080634EE8003CBCF1000F0BD0B1
:10371000036853E800CFD0F800E04CF080634EE837
:10372000003CBCF1000FCFD101F0A0FF00231846F0
:1037300080BD0000000000002DE9F0472DED088B52
:10374000006844F20041C4F20001884278D043F698
:103750000001C4F20101884240F09B8040F2401811
:10376000C2F2000840F2580098F80120C2F20000AE
:103770000178002A00F092804278920442EA416186
:103780008278C07841EAC22141EA00100011C8F8ED
:103790001800FCF78DFF40F2080AC2F2000A9AED09
:1037A000020B53EC102BFCF730FE9FED830B04460D
:1037B00053EC102B0D460AF12006FCF728FF0028D9
:1037C00018BF0AF1280696ED000B204653EC102B8B
:1037D0002946FCF720FE41EC100B40F2B819C2F26A
:1037E000000989ED000B9FED760B53EC102BFCF7D5
:1037F00084FE98ED1C0B02460B4651EC100BFCF7B7
:1038000063FD9FED710B41EC180B53EC102B04463C
:103810000D4688ED1C8BFCF7FAFE002850D09FED7A
:103820006E0BD8F81C6053EC102B20462946FCF791
:1038300024FF002855D19FED6A0B013E45E000BFF3
:1038400040F24014C2F2000440F2B815216AC2F2FC
:103850000005287A61B3BF2840F0A680687ACF2897
:1038600040F0A280D5F80A00D5F80E100022C4E975
:103870000820C5E9110140F25050A162C2F20000D7
:1038800090ED040B51EC100BFCF743FFE8640120B2
:103890002061BDEC088BBDE8F08700BF8029F8D11E
:1038A000012088F80100BDEC088BBDE8F08700BF5F
:1038B000BE28EED101202062BDEC088BBDE8F08768
:1038C000D8F81C009FED420B461C53EC102B2046F1
:1038D0002946C8F81C60FCF7F7FC41EC180B88ED92
:1038E0001C8B89ED1A8BC9F87060FEF73DF8C9F89A
:1038F0006000DAF81000DAE90614CA6A496A01328F
:1039000002FB0010FCF7D4FE06460F4641EC180BF4
:10391000DAF81400E16A626A013101FB0020FCF769
:10392000C7FE99ED140B04460D4641EC190B99EDB9
:1039300016AB53EC102B30463946FCF766FD40F2CF
:103940003026C2F2000696ED000B02460B4696EDBD
:1039500002BB51EC100BFCF7B7FC41EC100B53EC25
:103960001A2B2046294686ED000BFCF74EFD024639
:103970000B4651EC1B0BFCF7A7FC41EC100B89ED3F
:10398000148B86ED020B89ED169BFDF7EDFFD8F841
:1039900048103061481CC8F84800002088F8010031
:1039A000BDEC088BBDE8F08700202062BDEC088BE1
:1039B000BDE8F08700BF00BF00000000000000006D
:1039C000000000205FA00242EA2E4454FB2109407F
:1039D000EA2E4454FB2119C0EA2E4454FB2109C0AD
:1039E000EA2E4454FB2119402DE9F0410446D0F859
:1039F000880020281CBF0220BDE8F0810D46002968
:103A00004FF0010000F0B8801646002A08BFBDE85C
:103A1000F0810020C4F8900021209846C4F8880066
:103A2000FDF7A2FFA4F85460A4F85660A16806460A
:103A3000B1F5805F02D1206900286BD02F460025A8
:103A4000B4F8560000286BD018F101001CD0B8F172
:103A5000000F3DD121680BE017F8010B8862B4F824
:103A600056000138A4F85600B4F85600002858D083
:103A7000C869000640F17A80002FEDD135F8020BBD
:103A800000276FF35F20E9E7216802E0C8690006BC
:103A900009D4C869000606D4C86900065CBFC869B5
:103AA0005FEA0060F2D51FB117F8010B05E000BF17
:103AB00035F8020B00276FF35F208862B4F85600D8
:103AC0000138A4F85600B4F856000028E1D128E0E7
:103AD000216800BFC869000608D4FDF745FF801BB8
:103AE000404545D821680868F4E700BF17B117F8CA
:103AF000010B04E035F8020B00276FF35F208862AA
:103B0000B4F856000138A4F85600B4F8560000285E
:103B1000E0D106E00027B4F8560000287FF494AF07
:103B20002168C86940061FD4B8F1000F1ED018F1F3
:103B300001000FD1C869400616D4C869400613D4E5
:103B4000C869400610D4C86940064FF00000F1D59E
:103B50000FE000BFFDF708FF801B404508D8206834
:103B60000168C0694006F5D5002002E0FDF7FCFEC3
:103B700003202021C4F88810BDE8F08170470000C0
:103B8000FEE70000000000002DE9F04F81B02DEDB0
:103B90000C8BBEB0FDF7E8FE40F2505BC2F2000BAA
:103BA000CBF8600040F2B810C2F20000D0E9181261
:103BB00090ED1AABCDE91F21D0E91C0140F230286D
:103BC000C2F20008CDE92110D8E9040198EC04BB49
:103BD000CDE91D1026A859466022FCF74AFBDBF808
:103BE00060402494DBF864001C90239040F2B850AD
:103BF000C2F20000006E201AFCF76BFD9FEDE80B8F
:103C000053EC102BFCF779FC9FEDE70B824653EC4D
:103C1000102B0E46FCF7E0FC40F240170028C2F2E1
:103C2000000740F09B8107F15800159640F25806B6
:103C300090EC060B7868C2F2000606F1280101EB51
:103C4000C00181ED000B06F1500140F2D00501EBFF
:103C5000C001C2F2000581ED001B05EBC00181ED42
:103C6000002B011F18BF411C79609BED0C0B96EDDA
:103C70000C9B53EC102B96ED0A0B96ED14DB96ED96
:103C8000168B51EC100BCDE90E01FCF71DFB41EC3E
:103C9000100B51EC1D0B8BED0C0B9BED0E0BCDE9BE
:103CA000180153EC102BFCF70FFB41EC100B8BEDC4
:103CB0000E0B9BED100B95ED001B95ED02DB51EC0F
:103CC000110B53EC102BCDE91A01FCF7FDFA41EC76
:103CD000100B51EC190B8BED100B9BED0C0BCDE980
:103CE000080153EC102BFCF7EFFA41EC100B51ECF0
:103CF000180B8BED0C0B9BED0E0BCDE9100153EC6B
:103D0000102BFCF7E1FA41EC100B51EC1D0B8BED85
:103D10000E0B9BED100BCDE9160153EC102BFCF7AD
:103D2000D3FA41EC100B8BED100B96ED0E0B9BEDC7
:103D30000C1B51EC100B53EC112BCDE90201FCF7DD
:103D4000C3FA41EC100B8BED0C0B96ED180B9BEDB1
:103D50000E1B51EC100B53EC112BCDE90A01FCF7B3
:103D6000B3FA41EC100B8BED0E0B95ED040B9BEDB4
:103D7000101B51EC100B53EC112BCDE91301FCF788
:103D8000A3FA41EC100B8BED100B96ED100B9BED95
:103D90000C1B57EC108B53EC112B40463946FCF7AB
:103DA00093FA41EC100B8BED0C0B96ED1A0B9BED7F
:103DB0000E1B51EC100B53EC112BCDE90401FCF759
:103DC00083FA41EC100B8BED0E0B95ED060B9BED82
:103DD000101B51EC100B53EC112BCDE90C01FCF72F
:103DE00073FA41EC100B8BED100B96ED120B9BED63
:103DF0000C1B129459EC104B53EC112B20464946E6
:103E0000FCF762FA41EC100B8BED0C0B96ED1C0BE2
:103E10009BED0E1B51EC10BB53EC112B584601913E
:103E2000FCF752FA41EC100B40F25050C2F2000085
:103E300080ED0E0B40F25050C2F2000095ED080BE1
:103E400090ED101B51EC100B53EC112BCDE906013A
:103E5000FCF73AFA41EC100B40F25050C2F200006D
:103E600080ED100B9FED520B159953EC102B504623
:103E7000FCF7D1FA06460D46DDE90E01DDE908231F
:103E8000FCF722FADDE90223FCF71EFA424640F273
:103E900030283B46C2F20008FCF716FA22464B4691
:103EA00040F24017C2F20007FCF70EFA32462B46EA
:103EB000FCF723FB41EC100B40F25050C2F2000023
:103EC00080ED0C0BDDE91801DDE91023FCF7FCF9AE
:103ED000DDE90A23FCF7F8F9DDE90423FCF7F4F93E
:103EE000019B5A4640F2505BC2F2000BFCF7ECF922
:103EF00032462B46FCF701FB41EC100B8BED0E0B11
:103F0000DDE91A01DDE91623FCF7DEF9DDE913230B
:103F1000FCF7DAF9DDE90C23FCF7D6F9DDE9062335
:103F2000FCF7D2F932462B46FCF7E7FA41EC100BCE
:103F300040F2B8540020C2F200048BED100BC7E928
:103F40001600C7E91800C7E91A0026A92046602212
:103F5000FCF78FF912981C99C4E9180198ED080B29
:103F600051EC1A0B53EC102BFCF74FFA9FEDCC0BD6
:103F7000064659EC104B22464B460D4641EC180BB9
:103F8000FCF745FBC0B19FEDCA0B304653EC102B3C
:103F90002946FCF772FBC8B99FEDC70B0EE000BFC6
:103FA0000000000000408F407B14AE47E17A743F70
:103FB00000000000000014409FEDBB0B53EC102BE1
:103FC00030462946FCF780F941EC180B9BED040BB9
:103FD00055EC186B53EC102B30462946FCF774F95E
:103FE00041EC100B30468BED040B97ED1A0B294674
:103FF00053EC102BFCF768F941EC100B224687EDCF
:104000001A0B9BED040B9BED048B51EC100B4B46F4
:10401000FCF7FDFA90B19FEDA60B51EC180B53EC99
:10402000102BFCF72AFBA8B99BED040B9FEDA21BFC
:1040300051EC100B53EC112B06E000BF9FED9A0BD7
:1040400051EC180B53EC102BFCF73EF941EC100B24
:104050008BED040B98ED0C0B51EC1B0B98ED0E8BBC
:1040600053EC102BFCF7D1F907460C4651EC1C0B16
:1040700053EC182BFCF7C9F99FED91DB814688467C
:1040800053EC1D2B30462946FCF7A6FA80B99FED6C
:10409000920B304653EC102B2946FCF7BCF93A46FC
:1040A0002346FCF711F99FED8E0B41EC180B0FE046
:1040B0009FED850B304653EC102B2946FCF7ABF9EE
:1040C0003A462346FCF700F941EC180B9FED800BB4
:1040D00053EC102B30462946FCF79DF94A464346DF
:1040E000FCF7F2F841EC100B9FED7F1B54EC105BDA
:1040F00053EC112B28462146FCF78DF99FED7C0BE4
:1041000056EC187B8046894653EC102B38463146D6
:10411000FCF781F942464B46FCF7D6F89FED760B4B
:10412000CDE91B1053EC102B28462146FCF773F900
:104130009FED730B04460D4653EC102B3846314669
:10414000FCF769F922462B46FCF7BEF817909BED69
:10415000040B04460E4601F0CFFF9BED041BB0EEAE
:10416000408AB0EE410AF0EE608AF0EE610A01F09A
:104170005FFF53EC18ABB0EE409A204631465246F2
:10418000F0EE609A1A93FCF746F91C9C1B9F5BECBF
:10419000199B80460D464846594622463B46FCF749
:1041A0003AF942462B46FCF730F9CDE9181017983A
:1041B00031464A465B4640F25058C2F20008FCF7CE
:1041C0002AF90E461A990546504622463B46FCF708
:1041D00022F92A463346FCF777F898ED000B199F31
:1041E000189D81460E4651EC100B3A462B46FCF7C3
:1041F0006BF841EC100B484688ED000B98ED020B74
:10420000314653EC102BFCF75FF841EC100B40F2F9
:10421000401488ED020BC2F2000494ED160B3846F0
:1042200053EC102B2946FCF74FF894ED181B41EC8A
:10423000100B53EC112B4846314684ED160BFCF75E
:1042400043F841EC100B40F23022DDE91D10C2F2C0
:104250000002C2E91001DDE91F1084ED180BC2E96C
:104260000601207882ED0CBB0128DDE9211082EDEA
:104270000ECB82ED08ABC2E90A0109D19FED220BFA
:10428000002088ED000B88ED020B88ED04DB207028
:104290003EB0BDEC0C8B01B0BDE8F08F00BF00BF9D
:1042A000EA2E4454FB210940EA2E4454FB2119C054
:1042B000EA2E4454FB2109C0EA2E4454FB21194044
:1042C0000000000000000000F8C610009CE79540C8
:1042D000C45E2860DB8C84407C6308008EB08B4019
:1042E00093FFC9DF5D888B40EE4BBF51713E8C3F21
:1042F0001C2DFD334F578C3FAA07CCA252308CBFE8
:104300001E0B0E596E468C3F0000000000405A40C4
:1043100070B540F2AC2046F20041C2F20000C4F297
:1043200000014FF44073002280E80E0011210123A8
:104330004FF0060C4FF0030E08240A250526C26034
:10434000C0F80F2041618361C0F81CC0C0F820E0B4
:10435000C0E90943C0E90B56C0E90D22C263FCF76E
:10436000F5FE002818BFFCF731FBBDE87040FCF7F4
:1043700039BB000070B540F2103046F60001C2F2C1
:104380000000C4F200010022C0E900121121012343
:104390004FF0060C4FF0030E08240A250526C0E94D
:1043A0000222C0F80F2041618361C0F81CC0C0F830
:1043B00020E0C0E90943C0E90B56C0E90D22C26301
:1043C000FCF7C4FE002818BFFCF700FBBDE87040F6
:1043D000FCF74EBB83B041F24C00C4F2020001680E
:1043E00041F020010160016801F020010291029971
:1043F000016841F001010160016801F001010191D2
:104400000199016841F002010160006800F00200BA
:104410000090009803B0704710B58CB040F2743033
:1044200042F600410024C2F20000C4F20101C0E9DA
:104430000014032141F6FF72CDE903140121C0E904
:104440000242CDE905140F22CDE9091403A9029413
:10445000CDE90044C0E904448461CDE907240B920E
:10446000FEF77EFA002818BFFCF7B0FA40F274306D
:10447000C2F200006946CDE900440294FEF7A0F9BB
:10448000002818BFFCF7A2FA0CB010BD10B58CB014
:1044900040F2C0300024C2F200004FF08041C0E979
:1044A0000014032141F6FF72CDE903140121C0E994
:1044B0000242CDE905140F22CDE9091403A90194A4
:1044C00004618461CDE907240B92FEF749FA0028C4
:1044D00018BFFCF77BFA40F2C030C2F20000694618
:1044E00000940294FEF76CF9002818BFFCF76EFAEE
:1044F0000CB010BD80B540F20C4043F60001C2F292
:104500000000C4F201014FF4E13200234FF00C0C23
:1045100080E80E0001214FF40032C0E90333C0E906
:1045200005C3C361C0E90833C0E90A12FFF706F802
:10453000002818BFFCF74AFA40F20C40C2F2000013
:104540000021FEF76DFC002818BFFCF73FFA40F28F
:104550000C40C2F200000021FEF71CFC002818BF2E
:10456000FCF734FA40F20C40C2F20000FEF7F2FB16
:10457000002808BF80BDBDE88040FCF727BA0000D6
:1045800080B540F2A04044F20041C2F20000C4F203
:10459000000100234FF00C0C4FF4E13280E80E00D4
:1045A000C0E90333C0E905C3C0E90733C0E90933F3
:1045B000FEF7C4FF002818BFFCF708FA40F2A0403D
:1045C000C2F200000021FEF72BFC002818BFFCF708
:1045D000FDF940F2A040C2F200000021FEF7DAFB34
:1045E000002818BFFCF7F2F940F2A040C2F2000028
:1045F000FEF7B0FB002808BF80BDBDE88040FCF797
:10460000E5B90000FEE70000FEE70000704700008B
:1046100070470000FDF7AEB94EF68850CEF20000AC
:10462000016841F4700101607047000040F274308D
:10463000C2F20000FEF772BA40F27430C2F200001B
:10464000FEF76CBA40F27430C2F20000FEF766BAB0
:1046500040F27430C2F20000FEF760BA40F2C0309F
:10466000C2F20000FEF75ABA80B540F6FF33026886
:10467000C4F2000343F2FF3C9842C4F2010C0BDD8C
:1046800060452FDC40F60043C4F20003984235D069
:1046900042F600432EE000BFB0F1804F2ED040F232
:1046A0000043C4F20003984228D040F60003C4F24D
:1046B0000003984222D0604526DC40F2FF73C4F22A
:1046C0000003984236DD40F60003C4F2000398422E
:1046D00044D040F60043C4F2000398423ED042F674
:1046E000004337E045F20003C4F20103984205D0CD
:1046F00043F20043C4F201039842DCD14B6822F03C
:1047000070021A436045D8DD44F2FF33C4F201035E
:10471000984217DD44F20043C4F2010398421DD0D1
:1047200045F20003C4F20103984217D044F6000397
:1047300010E000BFB0F1804F10D040F20043C4F24F
:10474000000309E043F20043C4F20103984205D09C
:1047500044F20003C4F20103984203D1CB6822F46F
:1047600040721A434B6922F0800E8A6843EA0E03B6
:10477000D1F800C00360C262A0F18042A2F5963277
:104780004FEAB222092AC0F828C008D8012303FA48
:1047900002F240F2E5231A421CBF096901630121BC
:1047A00041610169C90708BF80BD016921F00101AC
:1047B000016180BD80B5816A0A070DD4CA0716D190
:1047C0008A071FD44A0728D4CA0631D48A063AD4A5
:1047D0004A0658D542E000BF0268D0F838C0536896
:1047E00023F4004343EA0C035360CA07E8D002688D
:1047F000D0F82CC0536823F4003343EA0C03536011
:104800008A07DFD50268D0F830C0536823F48033BC
:1048100043EA0C0353604A07D6D50268D0F834C087
:10482000536823F4802343EA0C035360CA06CDD5B2
:104830000268D0F83CC0936823F4805343EA0C0329
:1048400093608A06C4D50268D0F840C0936823F408
:10485000005343EA0C0393604A0614D50268D0F86B
:1048600044C05368BCF5801F23F4801343EA0C0353
:10487000536008D1D2F804C0D0F848E02CF4C0034B
:1048800043EA0E035360090658BF80BD0168C06C3F
:104890004A6822F400221043486080BDB0B582B05F
:1048A00004460020C4F89000FDF75EF82168054634
:1048B0000A68120737D56FF07E4C20464FF400117E
:1048C00000222B46CDF800C001F002F850B300BF23
:1048D000206850E8000F216820F0800041E80002C5
:1048E000DAB1206850E8000F216820F0800041E82C
:1048F000000292B1206850E8000F216820F080008B
:1049000041E800024AB1206850E8000F216820F019
:10491000800041E80002002ADAD12020C4F8880093
:1049200060E000BF21680868400761D56FF07E4CE9
:1049300020464FF4800100222B46CDF800C000F045
:10494000C7FF002854D000BF206850E8000F21683E
:1049500020F4907041E80002E2B1206850E8000FB6
:10496000216820F4907041E800029AB1206850E874
:10497000000F216820F4907041E8000252B12068D5
:1049800050E8000F216820F4907041E80002002AEE
:10499000DAD100BF206850E8020F216820F0010042
:1049A00041E80202DAB1206850E8020F216820F0E5
:1049B000010041E8020292B1206850E8020F21682C
:1049C00020F0010041E802024AB1206850E8020FDD
:1049D000216820F0010041E80202002ADAD12020FB
:1049E000C4F88C000320002184F8841002B0B0BD0C
:1049F0002020C4F88800C4F88C000020E0662067FE
:104A0000002184F8841002B0B0BD0000806A00214B
:104A1000A0F85E10A0F85610FEF74CBAB0F860206F
:104A20000168D0F88C30222B40F0C880496A836D31
:104A3000114023F8021B8365B0F85E100139A0F81D
:104A40005E10B0F85E10002918BF7047016851E889
:104A5000001F026821F4907142E80013E3B101687D
:104A600051E8001F026821F4907142E800139BB1E5
:104A7000016851E8001F026821F4907142E80013B8
:104A800053B1016851E8001F026821F4907142E8B7
:104A90000013002BDAD100BF016851E8021F026841
:104AA00021F0010142E80213DBB1016851E8021F65
:104AB000026821F0010142E8021393B1016851E854
:104AC000021F026821F0010142E802134BB10168A4
:104AD00051E8021F026821F0010142E80213002B95
:104AE000DAD12021C0F88C100021416701670168EC
:104AF00048F20002C4F20002914228D0496809023B
:104B000025D500BF016851E8001F026821F08061CF
:104B100042E80013DBB1016851E8001F026821F090
:104B2000806142E8001393B1016851E8001F0268F8
:104B300021F0806142E800134BB1016851E8001F89
:104B4000026821F0806142E80013002BDAD1C16EC7
:104B5000012918BFFEF7F0BD0021C166016851E8C8
:104B6000001F026821F0100142E80013DBB1016868
:104B700051E8001F026821F0100142E8001393B1D0
:104B8000016851E8001F026821F0100142E800139B
:104B90004BB1016851E8001F026821F0100142E8A2
:104BA0000013002BDAD10168CA69D20644BF102273
:104BB0000A62B0F85C10FEF7E9B800BF886940F0FF
:104BC00008008861704700002DE9F04F81B003684C
:104BD0000446B0F86050DA6918689968D4F88C70A7
:104BE000222F5FD1B4F86830002B18BF12F02002DA
:104BF00060D1B4F85E00002858D0B4F8681088423C
:104C000054D200BF206850E8020F216820F0805085
:104C100041E80202DAB1206850E8020F216820F072
:104C2000805041E8020292B1206850E8020F2168EA
:104C300020F0805041E802024AB1206850E8020F9B
:104C4000216820F0805041E80202002ADAD144F6BF
:104C50001D20C0F600006067206850E8000F216842
:104C600040F0200041E8000202B3206850E8000F45
:104C7000216840F0200041E80002BAB1206850E805
:104C8000000F216840F0200041E8000272B1206866
:104C900050E8000F216840F0200041E80002002A9F
:104CA000DAD103E0986940F00800986101B0BDE8EE
:104CB000F08F00BF4FF6FE7648F2000BCEF6FF767F
:104CC00000F4807801F001074FF0000AC4F2000BF5
:104CD00008E000BF2046FEF72FFD00BF5FEA8960B5
:104CE0007FF587AF2068A16D426A2A4021F8022B28
:104CF000A165B4F85E100139A4F85E10D0F81C90DC
:104D00005FEA497131D05FEAC97218BFB8F1000F8C
:104D100004D15FEA89720CD414E000BF0122026260
:104D2000D4F8902042F00102C4F890205FEA897222
:104D300008D53FB102220262D4F8902042F004026A
:104D4000C4F89020002908D53FB104210162D4F8AD
:104D5000900040F00200C4F89000D4F8900020B118
:104D60002046FEF7A7F8C4F890A0B4F85E0000282B
:104D7000B4D100BF206850E8000F216820F4807093
:104D800041E80002E2B1206850E8000F216820F4F9
:104D9000807041E800029AB1206850E8000F216855
:104DA00020F4807041E8000252B1206850E8000F02
:104DB000216820F4807041E80002002ADAD100BFA7
:104DC000206850E8020F2168304041E80202C2B179
:104DD000206850E8020F2168304041E8020282B1A9
:104DE000206850E8020F2168304041E8020242B1D9
:104DF000206850E8020F2168304041E80202002A92
:104E0000DED12020C4F88C00C4F874A0C4F870A0CF
:104E10002068584502D04068000237D4E06E01286F
:104E20007FF458AFC4F86CA0206850E8000F2168E8
:104E300020F0100041E80002DAB1206850E8000FCD
:104E4000216820F0100041E8000292B1206850E88B
:104E5000000F216820F0100041E800024AB12068EC
:104E600050E8000F216820F0100041E80002002AFD
:104E7000DAD12068C169C90644BF10210162B4F8C3
:104E80005C102046FDF782FF28E700BF206850E84D
:104E9000000F216820F0806041E80002002ABDD0A8
:104EA000206850E8000F216820F0806041E800028F
:104EB000002AB3D0206850E8000F216820F08060FD
:104EC00041E80002002AA9D0206850E8000F2168BC
:104ED00020F0806041E80002002AD7D19EE7000060
:104EE000B0F860100268D0F88C30222B40F0CA80F5
:104EF000526A836D11401970816D01318165B0F87E
:104F00005E100139A0F85E10B0F85E10002918BFDD
:104F1000704700BF016851E8001F026821F49071DA
:104F200042E80013E3B1016851E8001F026821F470
:104F3000907142E800139BB1016851E8001F0268BC
:104F400021F4907142E8001353B1016851E8001F49
:104F5000026821F4907142E80013002BDAD100BFFF
:104F6000016851E8021F026821F0010142E80213C2
:104F7000DBB1016851E8021F026821F0010142E83B
:104F8000021393B1016851E8021F026821F0010188
:104F900042E802134BB1016851E8021F026821F098
:104FA000010142E80213002BDAD12021C0F88C1055
:104FB000002141670167016848F20002C4F2000263
:104FC000914228D04968090225D500BF016851E8FF
:104FD000001F026821F0806142E80013DBB1016824
:104FE00051E8001F026821F0806142E8001393B18C
:104FF000016851E8001F026821F0806142E8001357
:105000004BB1016851E8001F026821F0806142E85D
:105010000013002BDAD1C16E012918BFFEF78CBB3B
:105020000021C166016851E8001F026821F01001EB
:1050300042E80013DBB1016851E8001F026821F06B
:10504000100142E8001393B1016851E8001F0268A3
:1050500021F0100142E800134BB1016851E8001F34
:10506000026821F0100142E80013002BDAD1016838
:10507000CA69D20644BF10220A62B0F85C10FDF77C
:1050800085BE00BF906940F0080090617047000045
:105090002DE9F04F81B003680446B0F86050DA693A
:1050A00018689968D4F88C70222F5FD1B4F86830F2
:1050B000002B18BF12F0200260D1B4F85E00002867
:1050C00058D0B4F86810884254D200BF206850E825
:1050D000020F216820F0805041E80202DAB1206816
:1050E00050E8020F216820F0805041E8020292B19E
:1050F000206850E8020F216820F0805041E8020249
:105100004AB1206850E8020F216820F0805041E841
:105110000202002ADAD144F6E160C0F600006067BE
:10512000206850E8000F216840F0200041E80002AC
:1051300002B3206850E8000F216840F0200041E8E9
:105140000002BAB1206850E8000F216840F020004A
:1051500041E8000272B1206850E8000F216840F079
:10516000200041E80002002ADAD103E0986940F00B
:105170000800986101B0BDE8F08F00BF4FF6FE76E1
:1051800048F2000BCEF6FF7600F4807801F00107BC
:105190004FF0000AC4F2000B08E000BF2046FEF703
:1051A000CBFA00BF5FEA89607FF587AF2068A16D09
:1051B000406A28400870A16D20680131A165B4F8EB
:1051C0005E100139A4F85E10D0F81C905FEA4971B6
:1051D00031D05FEAC97218BFB8F1000F04D15FEA9D
:1051E00089720CD414E000BF01220262D4F890202E
:1051F00042F00102C4F890205FEA897208D53FB1FD
:1052000002220262D4F8902042F00402C4F89020F6
:10521000002908D53FB104210162D4F8900040F084
:105220000200C4F89000D4F8900020B12046FDF7A9
:1052300041FEC4F890A0B4F85E000028B2D100BFCF
:10524000206850E8000F216820F4807041E80002D7
:10525000E2B1206850E8000F216820F4807041E836
:1052600000029AB1206850E8000F216820F4807095
:1052700041E8000252B1206850E8000F216820F494
:10528000807041E80002002ADAD100BF206850E8AF
:10529000020F2168304041E80202C2B1206850E8A4
:1052A000020F2168304041E8020282B1206850E8D4
:1052B000020F2168304041E8020242B1206850E804
:1052C000020F2168304041E80202002ADED120208E
:1052D000C4F88C00C4F874A0C4F870A020685845C5
:1052E00002D04068000237D4E06E01287FF456AF48
:1052F000C4F86CA0206850E8000F216820F010006E
:1053000041E80002DAB1206850E8000F216820F07F
:10531000100041E8000292B1206850E8000F2168B7
:1053200020F0100041E800024AB1206850E8000F68
:10533000216820F0100041E80002002ADAD120683C
:10534000C169C90644BF10210162B4F85C1020464F
:10535000FDF71CFD26E700BF206850E8000F21681C
:1053600020F0806041E80002002ABDD0206850E8AB
:10537000000F216820F0806041E80002002AB3D0CD
:10538000206850E8000F216820F0806041E80002AA
:10539000002AA9D0206850E8000F216820F0806022
:1053A00041E80002002AD7D19EE7000070B505460B
:1053B00005F108041ECC0068194341EA0403EE69B4
:1053C000046846F6F311CCF6FF71214019433143CE
:1053D0000160416848F2000C21F4405111434160E2
:1053E000AA69C4F2000C60451CBF296A0A4381689F
:1053F0004FF2FF43C1F2FF13194011438160C16AAC
:10540000D5F824E021F00F0141EA0E01C16244F613
:10541000FF71C4F2000188424FF0100318DC44F21F
:105420000041C4F20001884228D044F60001C4F2D1
:10543000000188422AD044F60041C4F200018842AB
:1054400042D141F28801C4F2020109688B0933E0BC
:1054500045F20001C4F2000188421FD0604525D00A
:1054600043F60001C4F2010188422DD141F28801C6
:10547000C4F202010B6879A222E000BF41F2880168
:10548000C4F2020109688B0816E000BF41F28801EE
:10549000C4F2020109680B090EE000BF41F2880165
:1054A000C4F2020109680B0A06E000BF41F288015C
:1054B000C4F2020109688B0A47F28842C0F6000272
:1054C00003F0030152F82130604542F20040C0F27F
:1054D000F40015D0B6F5004F24D1082B4FF0010190
:1054E00000F2B380DFE803F0065E6CB164B1B1B1E5
:1054F0006A0000BFFCF780FE002856D15CE000BFC8
:10550000082B4FF0010100F2A080DFE803F0059EB8
:10551000259E1D9E9E9E2300FCF76EFEC0B1D5F811
:1055200024E019E0082B4FF0010100F28E80DFE843
:1055300003F00565738C6B8C8C8C7100FCF75CFE42
:1055400000285ED164E000BFFCF782FE0028E6D1AF
:1055500000217AE04FF4004047F26041C0F60001BC
:1055600031F81E106A68B0FBF1F002EB420188428C
:105570004FF0010169D31303984266D8010E00026F
:1055800010EB520041F100010023FAF741FE4FF603
:105590000052A0F54071C0F20F0291424FD3012199
:1055A00053E000BFFCF73EFE30B1D5F824E007E041
:1055B000FCF74EFE0028F8D1002146E04FF40040F1
:1055C00047F26041C0F6000131F81E106A68B0FB76
:1055D000F1F0510801EB4000B0FBF2F04FF6EF7232
:1055E000A0F11001914207D84FF6F0710140C0F3CD
:1055F0004200084423E000BF012126E0FCF712FE30
:1056000030B1D5F824E007E0FCF722FE0028F8D1FD
:1056100000211AE04FF4004047F26041C0F600015B
:1056200031F81E104FF6EF72B0FBF1F0696800EB35
:105630005100B0FBF1F0A0F11001914204D82968AB
:10564000C860002101E000BF01214FF00110A866F1
:10565000002208466A67AA6770BD00BF010000000B
:105660000400000002000000080000008165A0F8AE
:105670005C20A0F85E2081680023436751B1B1F13E
:10568000805F0BD0B1F5805F0CD1016921B940F288
:10569000FF110AE0016939B9FF2106E0016919B17A
:1056A0003F2102E0002100E07F21A0F860100021EE
:1056B000C0F890102221C0F88C1000BF016851E89A
:1056C000021FD0F800C041F001014CE80213F3B111
:1056D000016851E8021FD0F800C041F001014CE818
:1056E0000213A3B1016851E8021FD0F800C041F0D5
:1056F00001014CE8021353B1016851E8021FD0F8D0
:1057000000C041F001014CE80213002BD6D1416EDC
:10571000B1F1005F03D1B0F86810914240D98268BE
:105720000169B2F5805F07D1002947D044F6E161F5
:10573000C0F60001416707E044F6E162C0F60002EE
:105740000029426740D000BF016851E8001F02688D
:1057500041F4907142E80013002B00F0B68001681C
:1057600051E8001F026841F4907142E80013002BD9
:1057700000F0AB80016851E8001F026841F49071AD
:1057800042E80013002B00F0A080016851E8001FE0
:10579000026841F4907142E80013002BD4D194E0E8
:1057A00082680169B2F5805F38D1002962D045F284
:1057B0009101C0F60001416736E000BF44F61D21AB
:1057C000C0F60001416700BF016851E8001F026890
:1057D00041F0200142E80013002B76D0016851E827
:1057E000001F026841F0200142E80013002B6CD03A
:1057F000016851E8001F026841F0200142E80013EF
:10580000002B62D0016851E8001F026841F02001BE
:1058100042E80013002BD7D157E000BF45F29102B8
:10582000C0F60002426759B3016851E8001F0268E0
:1058300041F4807142E8001313B3016851E8001F7E
:10584000026841F4807142E80013CBB1016851E86D
:10585000001F026841F4807142E8001383B10168BF
:1058600051E8001F026841F4807142E80013002BE8
:10587000DAD105E044F6C931C0F60001416700BF46
:10588000016851E8021F026841F0805142E80213AA
:10589000DBB1016851E8021F026841F0805142E823
:1058A000021393B1016851E8021F026841F0805170
:1058B00042E802134BB1016851E8021F026841F04F
:1058C000805142E80213002BDAD10020704700001B
:1058D0002DE9F041804600681546C2690E46114028
:1058E000891BB1FA81F14909A94223D1069C2CB345
:1058F000611C29D1C1693140891BB1FA81F1490983
:10590000A94217D1C1693140891BB1FA81F1490916
:10591000A9420FD1C1693140891BB1FA81F149090E
:10592000A94207D1C1693140891BB1FA81F1490906
:10593000A942DFD00020BDE8F08100BFFCF714F8D9
:105940000320BDE8F08100BF1F4607E0C06930407A
:10595000801BB0FA80F04009A842EBD1FCF704F8B4
:10596000C01BA04200F2AE80D8F8000001684907D1
:10597000ECD5402EEAD0802EE8D0C169090700F1AD
:10598000A580C1690905E1D54FF400610162D8F82D
:10599000000050E8000FD8F8001020F4907041E8A3
:1059A00000020AB3D8F8000050E8000FD8F8001041
:1059B00020F4907041E80002B2B1D8F8000050E83D
:1059C000000FD8F8001020F4907041E800025AB19E
:1059D000D8F8000050E8000FD8F8001020F49070BC
:1059E00041E80002002AD2D14FF6FE70CEF6FF70D9
:1059F000D8F8001051E8021FD8F80020014042E812
:105A00000213F3B1D8F8001051E8021FD8F80020B3
:105A1000014042E80213A3B1D8F8001051E8021F78
:105A2000D8F80020014042E8021353B1D8F8001022
:105A300051E8021FD8F80020014042E80213002B71
:105A4000D6D1D8F86C0001282CD1D8F8000050E845
:105A5000000FD8F8001020F0100041E800020AB34F
:105A6000D8F8000050E8000FD8F8001020F010001F
:105A700041E80002B2B1D8F8000050E8000FD8F8B1
:105A8000001020F0100041E800025AB1D8F80000E0
:105A900050E8000FD8F8001020F0100041E8000294
:105AA000002AD2D120200021C8F88C00C8F86C1040
:105AB000C8F87410C8F89000032088F88410BDE876
:105AC000F08100BF0320BDE8F08100BF0821016222
:105AD000D8F8000050E8000FD8F8001020F49070BB
