:020000040800F2
:10000000C8060020ED010008F5300008392F00086F
:10001000F130000899060008713A0008000000005D
:10002000000000000000000000000000E9310008AE
:100030007108000800000000F9300008ED310008E8
:10004000070200080702000807020008070200086C
:10005000070200080702000807020008070200085C
:10006000070200080702000807020008070200084C
:10007000070200080702000807020008070200083C
:10008000070200080702000807020008070200082C
:1000900007020008E1090008ED090008070200084E
:1000A000070200080702000807020008070200080C
:1000B00007020008070200080702000807020008FC
:1000C00007020008070200080702000807020008EC
:1000D0000702000807020008653A00080702000846
:1000E00007020008070200080702000807020008CC
:1000F00007020008070200080702000807020008BC
:1001000007020008070200080702000807020008AB
:10011000070200080702000807020008070200089B
:10012000070200080702000807020008070200088B
:10013000070200080702000807020008070200087B
:10014000070200080702000807020008000000007C
:10015000000000000000000000000000000000009F
:10016000000000000000000000000000070200087E
:10017000070200080702000807020008070200083B
:10018000070200080702000807020008070200082B
:100190000702000800000000F9090008050A00082D
:1001A000070200080702000807020008070200080B
:1001B00007020008070200080702000807020008FB
:1001C00007020008070200080702000807020008EB
:1001D0000702000807020008DFF80CD000F046FA1A
:1001E00000480047413C0008C806002006488047F8
:1001F00006480047FEE7FEE7FEE7FEE7FEE7FEE70C
:10020000FEE7FEE7FEE7FEE7F1310008D90100084E
:100210002DE9F05F0546002092469B46884606463B
:10022000814640241BE0284641464746224600F0CE
:1002300078F953465A46C01A914110D311461846D0
:10024000224600F05FF92D1A67EB01084F4622465F
:100250000120002100F056F917EB00094E41201E45
:10026000A4F10104DFDC484631462A464346BDE896
:10027000F09FD2B201E000F8012B491EFBD270477B
:100280000022F6E710B513460A4604461946FFF762
:10029000F0FF204610BD2DE9FE4F81EA030404F073
:1002A000004421F0004100944FF0000B23F0004384
:1002B00050EA01045ED052EA03045BD0C3F30A544F
:1002C000C1F30A552C44A4F2F3340194A0FB025468
:1002D000C1F3130141F48011C3F3130343F48013FA
:1002E00001FB024400FB034E840A970A44EA81544E
:1002F00047EA8357A4FB076802958D0A05FB07852B
:100300004FEA932C04FB0C542705029D4FEA065834
:1003100047EA1637B5EB08056EEB070C870E920E11
:1003200047EA811742EA8312A7FB0201B6EB0B01F1
:1003300064EB00042B0D43EA0C335E1844EB1C50B5
:10034000DA465146E7FB0201C5F313044FEA0B33CB
:1003500043EA14534FEA0432019C43EA0603A4F132
:100360000C040294009CCDE900B400F030F903B015
:10037000BDE8F08F00200146F9E72DE9F04D81EA54
:10038000030404F0004B21F0004514464FF0000A2E
:1003900023F0004150EA050220D054EA01021DD0AA
:1003A000C5F30A570246C5F31303C1F31300C1F3A3
:1003B0000A5640F4801543F48013A7EB0608101B7F
:1003C000D64608F2FD3873EB050002D308F10108A8
:1003D00001E092185B41B8F1000F03DA00200146FA
:1003E000BDE8F08D00204FF48011064684460EE0F3
:1003F000171B73EB050705D3121B63EB05030643BD
:100400004CEA010C49084FEA300092185B4150EA6F
:100410000107EDD152EA030012D082EA040083EA18
:100420000501084305D0101BAB4106D20122002371
:1004300006E000224FF0004302E06FF0010253108B
:100440001AEB06004CEB085110EB0A0041EB0B01D4
:10045000BDE8F04D00F0ACB80EB5C10F80EAE07019
:100460000844CA07002140F233438DE80E000A46D3
:100470000B4600F0ACF803B000BD00F0004230F0D5
:1004800000400AD0C10D01F56071C0F3160042EAC8
:100490000151C208400711437047002001467047D0
:1004A00001F0004330B421F0004150EA010206D0CF
:1004B0000A0DA2F56072C1F31301002A02DC30BC00
:1004C00000207047440F44EAC104C100E01830BC6A
:1004D00000EBC25000F035B830B50B4601460020A5
:1004E0002022012409E021FA02F59D4205D303FAF6
:1004F00002F5491B04FA02F52844151EA2F1010277
:10050000F1DC30BD202A04DB203A00FA02F10020A1
:1005100070479140C2F1200320FA03F31943904041
:100520007047202A04DB203A21FA02F000217047AC
:1005300021FA02F3D040C2F120029140084319464B
:1005400070470029A8BF7047401C490008BF20F031
:100550000100704710B4B0FA80FC00FA0CF050EAC9
:10056000010404BF10BC704749B1CCF1200421FA4A
:1005700004F411FA0CF118BF012121430843A3EB45
:100580000C01CB1D4FEA00614FEA102042BF002052
:1005900010BC704700EBC35010440029A4BF10BC2E
:1005A0007047401C490008BF20F0010010BC704794
:1005B00010B5141E73F1000408DA401C41F100016B
:1005C00092185B411A4301D120F0010010BD2DE9C2
:1005D000F04D92469B4611B1B1FA81F202E0B0FAB9
:1005E00080F220329046FFF78DFF04460F4640EA26
:1005F0000A0041EA0B0153465A46084313D01146FC
:1006000053EA010019D0C8F140025046FFF789FFB4
:1006100005460E46504659464246FFF773FF0843CB
:1006200005D0012004E020463946BDE8F08D0020C9
:10063000054346EAE0762C4337430A986305E40A0B
:10064000A0EB08000022FD0A44EA47540A3002D514
:1006500000200146E9E7010510196941DDE9084577
:1006600000196941BDE8F04DA2E70000064C074DB6
:1006700006E0E06840F0010394E807009847103472
:10068000AC42F6D3FFF7ACFDB03F0008D03F000806
:10069000002848BF40427047FEE7000010B58AB00E
:1006A000042204926FF00702019002EA501040F217
:1006B0000C02C2F200024FF0804114180291002196
:1006C00054F8042F40F208100391CDE90511CDE94B
:1006D00007110991C2F2000001A900F0ABFA00284D
:1006E00072D0192003F072FA226840F20810C2F2A8
:1006F000000001A900F09EFA002865D0192003F03F
:1007000065FA226840F20810C2F2000001A900F068
:1007100091FA002858D0192003F058FA226840F2C4
:100720000810C2F2000001A900F084FA00284BD0A2
:10073000192003F04BFA226840F20810C2F20000C0
:1007400001A900F077FA00283ED0192003F03EFA04
:10075000226840F20810C2F2000001A900F06AFA13
:1007600090B3192003F032FA226840F20810C2F266
:10077000000001A900F05EFA30B3192003F026FA58
:10078000226840F20810C2F2000001A900F052FAFB
:10079000D0B1192003F01AFA226840F20810C2F210
:1007A000000001A900F046FA70B1192003F00EFA1A
:1007B000226840F20810C2F2000001A900F03AFAE3
:1007C00010B1192003F002FA0AB010BD70B588B05C
:1007D00040F2081400250120C2F20004CDE905050D
:1007E0006FF0604602A92046CDE9025504950796B0
:1007F00000F080FA2046002100220023009500F03E
:10080000A9FA002818BF00F0E5F840F26C140220A5
:1008100005A9C2F2000461C102A92046CDE9025532
:10082000049500F067FA204601210122002300957B
:1008300000F090FA002818BF00F0CCF840F208143D
:10084000C2F20004204600F041FE204601210022B1
:1008500000F06AF940F26C14C2F20004204600F085
:1008600035FE20460821002200F05EF908B070BD78
:1008700070470000000000002DE9F047053840F205
:100880006004C2F200045FFA80FA04EB4A17B9462A
:1008900039F80C1F0E9B207027F8141F188800BA17
:1008A000000CA9F800005A8812BA120C27F8062C7E
:1008B0009A8812BA120C27F8042C3A4632F8146FB0
:1008C0009B7907F8023C1EB901211180014638804E
:1008D00009B24EF20002CFF6FF72451A8842B8BF45
:1008E0004FF4005256193046FFF7D2FE8046284694
:1008F000FFF7CEFE804504F10C0808EB4A100169B1
:10090000B8BF354629440161B9F80000217840F2AA
:100910006426388001EB8100C2F2000606EB00106D
:1009200000F1280540F2B400C2F200000068FFF7B1
:10093000A4FD9FED230B53EC102BFFF7ACFC9FEDB8
:10094000220B53EC102BFFF718FDFFF7A9FDDFED8D
:10095000200A00EE100A284602F0D0FB207800EBB7
:10096000800108EB4010B0F9022006EB011000EE08
:10097000102AD0ED130AB8EEC00A02F0BFFB96EDC4
:10098000090A0822BDEEC00A10EE103A180A04F84F
:10099000010F40F2FF10214641F82B0F0020C4F850
:1009A0002F00C4F8330040F20810C4F83720C2F218
:1009B000000022466370BDE8F04700F03BB900BF7D
:1009C000000000000000C04000000000008076C071
:1009D00000000000EFF3108072B600BFFEE70000D9
:1009E00040F20810C2F2000000F08EBA40F2081087
:1009F000C2F2000000F088BA40F26C10C2F20000AF
:100A000000F082BA40F26C10C2F2000000F07CBA32
:100A100070B540F26002C2F2000202EB411101F136
:100A20000C0E9EE80C5001F11C0670CE896A80E81D
:100A30000C5000F1100270C2C16170BD80B501465A
:100A400090F82500022825D10868D1E910CE8A6CDB
:100A5000036823F00E030360136823F480731360AC
:100A6000026822F0010202600EF01F00012202FA69
:100A700000F0CCF80400D1E913205060486D68B153
:100A8000026822F480720260D1E9160242600020FE
:100A900005E000BF0420C863012000E0002001221F
:100AA00081F82520002281F8242080BD80B590F8AF
:100AB000251002292ED10168D0E910CE826C0B6876
:100AC00023F00E030B600B6823F001030B60116829
:100AD00021F4807111600EF01F02012101FA02F26F
:100AE000CCF80420D0E913325A60426D32B1136859
:100AF00023F480731360D0E91623536080F8251027
:100B0000826B002180F824100AB19047002108462A
:100B100080BD00BF0421C1630121002280F825109F
:100B200080F82420084680BD10B590F85C30013B69
:100B3000012B69D8006811F0070ED0F858C00CF0EE
:100B4000010300D01BB311F0380F02D01CF00204D7
:100B50001DD011F4E07F02D01CF0040417D011F472
:100B6000F05F02D01CF0080411D011F4604F02D0E5
:100B70001CF010040BD011F4403F02D01CF02004F4
:100B800005D011F47C0F06D01CF0400403D1C46DD5
:100B900044F00104C465BEF1000F18BF002B3BD127
:100BA00011F0380F18BF1CF0020335D111F4E07FAB
:100BB00018BF1CF004032FD111F4F05F18BF1CF014
:100BC000080329D111F4604F18BF1CF0100323D182
:100BD00011F4403F18BF1CF020031DD111F47C0F0D
:100BE00018BF1CF0400317D10B061BD4CB0504D54E
:100BF000D0F8E0301A43C0F8E02000F154020020A1
:100C000013681943116010BD00F160020120022138
:100C100013681943116010BDC36D43F00203C3652F
:100C20000B06E3D5D0F8DC301343C0F8DC30CB053D
:100C3000E3D5DDE72DE9F04190F85C30022B15D1CA
:100C40000668D6F8C4309B0218D4D6F8C430D1E96F
:100C50000075D1F808E00C69C3F3014CB5B144EA62
:100C6000070343EA0E0343F0804E13E0016E41F0A8
:100C7000080101660120BDE8F08100BF016E41F46A
:100C8000007101660120BDE8F08100BF44EA87439E
:100C90004EEA030ED1E90757D1E9058445EA076515
:100CA000CB682C43456D44EA08040CEBCC0744EABE
:100CB000034405EBC70345F837E05C60CF6887B1B4
:100CC00043F68075083303320024C0F6000500BFE8
:100CD000171957F8037C1F51CF680434EF5DBC42ED
:100CE000F6D3012101FA0CF1C6F8CC108165002081
:100CF000BDE8F08180B590F85C20013A012A13D854
:100D00000A68BAB101F1040ED1E904319EE8045039
:100D1000406C43EA4E7E41EA8C7100EBC20340F81E
:100D200032E00020596080BD016E41F00201016691
:100D3000012080BDD1E90323D1E901CED206496962
:100D400042EA8E7242EA0342006C114340F82C10D2
:100D5000002080BD80B590F85CC0BCF1010F13D1BC
:100D600000689200D0F880C0DDF808E042EA011186
:100D700041EA43012CF03F0C41EA0E0141EA0C012B
:100D8000C0F88010002080BD016E41F004010166B2
:100D9000012080BD70470000704700002DE9F0433E
:100DA00090F85C70022F1BD1D0F800C040291FD1F1
:100DB000DCF890703F0700F09D80DCF89070FF0138
:100DC00046BFDCF88070C7F340270027DCF890604E
:100DD000C6F3012606EB070C00F148071DE000BF33
:100DE000016E41F0080101660120BDE8F08300BFFB
:100DF000DCF898703F077DD0DCF89870FF0146BFA3
:100E0000DCF88070C7F300270027DCF89860C6F391
:100E1000012606EB070C00F14C073F680CEBCC06F3
:100E200057F8365007EBC60E15F08045556057F859
:100E3000365025F0604408BFC5F38A44146057F863
:100E4000365005F00055956057F8364004F00044E0
:100E50001461BEF80440D461BEF8064014F00F04DB
:100E6000D460DEF8044004F480145461DEF80440D9
:100E700004F4001494619EF8074004F07F041462A7
:100E8000DEF804404FEAD474546228D043F68078E8
:100E90000024C0F6000800BF0EEB0406377A651C7C
:100EA0001F55D76818F80770BD4218D2757A1F19F8
:100EB0007D70D56818F80590A51C4D450FD2B57A00
:100EC000BD70D56818F80590E51C4D4507D2F57A38
:100ED0000434FD70D56818F80550AC42DCD30068C6
:100EE00040290CBFC0F894C0C0F89CC00020BDE8E9
:100EF000F08300BF016E41F4807101660120BDE8FE
:100F0000F0830000704700002DE9F04F85B00446E3
:100F10000068016D426DD0F850B0456D076D466DAB
:100F2000036D01EA02080493436D0393036D02937A
:100F3000436D0193D0F854A0D0F850905FEA496314
:100F400007D51AF0400104D0402101652046FFF783
:100F5000D9FF0BEA050B5FEAC95008F4E0550ED53E
:100F60001AF480700BD02068D0F8D810D0F8E020A8
:100F700011404FF480720265204600F0C1FA3740FC
:100F80000BF007062DB1206829460565204600F0C4
:100F9000BBFA07F038052EB12068314606652046B9
:100FA00000F038FA2DB1206829460565204600F08A
:100FB0005FFA5FEA895009D51AF4007006D02068FC
:100FC0004FF400710165204600F0A0FA5FEA096065
:100FD0000DD51AF080000AD02068D0F8D410D0F8CF
:100FE000DC20114080220265204600F08BFA5FEA87
:100FF000894009D51AF4005006D020684FF40051FA
:101000000165204600F07AFA5FEA0940DDE9011047
:1010100000EA010509D51AF4004006D020684FF413
:1010200000410165204600F067FADDE90310084041
:101030005FEA494105F460210AD51AF4804207D0DD
:1010400022684FF480431365226E42F080022266CC
:1010500000F4710521B1206801652046FFF79CFE70
:1010600025B120680565206E28432066206E28B1D2
:10107000204605B0BDE8F04FFFF78CBE05B0BDE8D7
:10108000F08F000070B5D8B1044690F85C0028B924
:10109000002084F85D00204600F01EF92068816978
:1010A00021F01001816100F00FFB05462068816985
:1010B000090707D500F008FB401B0B28F6D312E008
:1010C000012070BD816941F00101816100F0FCFAED
:1010D000054600BF20688169C9070DD100F0F4FA08
:1010E000401B0B28F6D3206E032140F00100206640
:1010F000012084F85C1070BD826946F2004CC4F295
:10110000000C42F002026045826102D16268CCF8B4
:101110000021227C8369012A23F0400318BF403359
:101120008361627C8369012A23F4804308BF03F54D
:1011300080438361A27C8369012A23F4805318BF12
:1011400003F5805383618269D4E902E322F4407598
:1011500045EA0E058561856925F0A4058561056967
:1011600025F0100505619BB1012B0DD0022B09D094
:101170008569032B45F080058561056945F01005FB
:10118000056105D1202300E0042385692B43836199
:1011900004F114052ACD226A5E1E6FF0FF0303EBF3
:1011A000052545EA4665013A2A430025CFF6FF7535
:1011B00005EB01411143BEF5407FC16110D1D4E977
:1011C00009E2D4E90B61013A03EB06231A436FF0FD
:1011D0000F0303EB0111114305EB0E421143C160F4
:1011E000D4E90D13E26BD0F8C0603243C0F8C020E0
:1011F0000CF580660CF58042B04204BF4AF2507292
:10120000C4F200020CF50066B04208BF02F5D462D9
:101210002264D0F8806026F4F81646EA0141C0F84E
:10122000801002F170016164D0F8801021F07061CB
:1012300041EA0361C0F8801002F1B000A06402F539
:10124000C470E06402F51870206502F51E706065D8
:1012500002F55470002100BFC2E90011C2E9021179
:10126000C2E90411C2E90611C2E90811C2E90A1172
:10127000C2E90C11C2E90E11C2E91011C2E9121142
:10128000C2E91411C2E91611C2E91811C2E91A1112
:10129000C2E91C11C2E91E11C2E92011C2E92211E2
:1012A000C2E92411C2E92611C2E92811C2E92A11B2
:1012B000C2E92C11C2E92E11C2E93011C2E9321182
:1012C000C2F8D010D4328242C6D300200121A065DA
:1012D000206684F85C1070BDB0B59CB00446002058
:1012E0001B90CDE91900CDE9170002A85421FEF7A3
:1012F000C7FF206846F60001C4F20001884239D0D9
:1013000046F20041C4F20001884240F081804FF46F
:10131000805002904FF00070109002A800F026FB61
:10132000002818BFFFF756FB40F2C001C2F20001CF
:101330000A6841F24C00C4F20200531C0B6042B92F
:10134000C16841F00071C160C16801F00071019194
:1013500001990168162441F001010160006815251A
:1013600000F00100019001984FF090404FF4C051FF
:1013700033E000BF4FF4805002904FF000701090A7
:1013800002A800F0F3FA002818BFFFF723FB40F291
:10139000C001C2F200010A6841F24C00C4F202002E
:1013A000531C0B6042B9C16841F00071C160C16853
:1013B00001F00071019101990168572441F0020187
:1013C00001600068562500F002000190019840F28B
:1013D0000040C4F600004FF44051179102211891CB
:1013E0000021CDE9191109211B9117A900F090F8EE
:1013F00028460021002200F0DFF9284600F0C8F955
:1014000020460021002200F0D7F9204600F0C0F964
:101410001CB0B0BD40F20811C2F20001884218BFF2
:1014200070472DE9F04194B040F208100DF120080A
:10143000C2F200000AAA40214346FFF7AFFC0A9817
:1014400040F2052188420FD10DF1380C0BAB9CE81E
:10145000F1100ECB8DE8F10040F20520CDF8188098
:10146000CDF814C0FFF708FA14B0BDE8F04170479A
:1014700040F26C11C2F20001884218BF704780B57B
:1014800090B040F26C10C2F2000006AA6B464121F7
:10149000FFF784FC0698112813D10298039940F2B3
:1014A000580240F2B00300BAC2F20002C2F20003D6
:1014B00009BA1860C2E9000140F2B800C2F20000A7
:1014C000016010B0BDE880407047000090F85C10EB
:1014D00001290BD1022180F85C1001688A6922F091
:1014E00001028A610021016608467047016E41F0E1
:1014F000040101660120704770470000704700003A
:1015000070470000704700007047000070470000FF
:101510002DE9F04F82B00D68002D00F0CB8041F234
:10152000004400F13847C4F6000406224FEAB7260B
:10153000A04208BF0522052E38BF4FEAB72200247B
:1015400001274FF0000E0026009209E00D680136D9
:1015500035FA06F20EF1040E04F1020400F0AA803E
:1015600007FA06FB15EA0B08F0D0D1F804A0032215
:101570000AF0030CACF10105A240012D6FEA02094B
:1015800010D88268CD6802EA0902A5402A43826029
:101590004268CAF3001522EA0B02B5402A434260B2
:1015A00006E000BFBCF1030F02D14FF0030C21E0B5
:1015B000C2688D6802EA0902A5402A43BCF1020F05
:1015C000C26017D16FF0030202EA560202440EF025
:1015D0001C030F25D2F820C005FA03FA0D692CEA86
:1015E0000A0C05FA03F343EA0C031362D1F804A0D2
:1015F0000AF0030C02680CFA04F302EA09021A4327
:101600001AF4403F0260A1D041F26003C4F2020329
:101610001A6840F2004942F001021A601A68C4F2E6
:10162000010902F001020192019A26F003024FF62D
:10163000084A4A44CFF6FF7A52F80AC00EF00C0569
:101640000F23009FAB402CEA030307FA05F52B4359
:1016500042F80A30D9F808C04B684CEA0805DA02AB
:1016600058BF2CEA080540F20C4CC9F80850C4F2E7
:10167000010CDCF800209F0242EA080558BF22EA6C
:101680000805CCF80050D9F804209D0342EA080769
:1016900058BF22EA0807C9F80470D9F80020DB0314
:1016A00042EA080758BF22EA0807C9F80070012774
:1016B0004CE700BF02B0BDE8F08F00001823002AFD
:1016C00008BF2823C150704740F2C420C2F2000076
:1016D0000068704740F2040040F2C421C2F20000EA
:1016E000C2F2000140680A681044086070470000B8
:1016F00080B5032000F08CF80F2000F009F80028D6
:101700001CBF012080BD00F029F8002080BD000032
:1017100070B540F20406C2F200067168E1B10446F9
:1017200040F24C00C2F200004FF47A720068B2FB43
:10173000F1F1B0FBF1F000F0D1FE0F2C4FF00105FC
:1017400008D838B94FF0FF3021460022002500F0BC
:1017500033F83460284670BD012070BD82B041F27C
:101760005800C4F20200816841F001018160816883
:1017700001F0010101910199016841F0805101607E
:10178000006800F080500090009802B000F0E4B8CB
:10179000002848BF7047C1B200F01F00012202FAC2
:1017A00000F04EF20012CEF2000242EAD10121F026
:1017B000030108607047000010B54EF60C5CCEF2D5
:1017C000000CDCF80030C3F3022E8EF00704042C6A
:1017D00028BF0424BEF103034FF0FF3E0EFA04F4C9
:1017E00038BF0023A14399400EFA03F39A431143F3
:1017F00000F00F0200F160430901043A03F564436D
:101800006244002848BF02F10C03197010BD0000AB
:101810004EF60C51CEF200010A684FF6FF031A4053
:1018200060F30A2242F0806040F0FD70086070476B
:10183000B0F5007F42D0002840F0808047F21400CD
:10184000C4F2000050F8141CC26E01F4C06122F40E
:101850008072B1F5806FC2662ED150F8141C01223F
:1018600062F34A2140F8141C40F24C01C2F200011C
:101870000968322251434DF68362C4F21B32A1FB48
:101880000212910C0268520511D54A1C0FD0026851
:1018900052050CD559B10268520508D5012906D068
:1018A0000268520503D50229A1F10401EAD10068BA
:1018B000400544BF032070470020704747F21400E2
:1018C000C4F2000050F8141CC26E01F4C06142F46E
:1018D0008072B1F5806FC266EED150F8141C0122FF
:1018E00062F34A2140F8141C40F24C01C2F200019C
:1018F0000968322251434DF68362C4F21B32A1FBC8
:101900000212910C0268520511D54A1C0FD00268D0
:1019100052050CD559B10268520508D5012906D0E7
:101920000268520503D50229A1F10401EAD1006839
:10193000400544BF03207047BEE700BF47F21400D4
:10194000C4F2000050F8141C022262F34A2140F84D
:10195000141C00207047000047F20800C4F2000089
:10196000016841F480410160704700002DE9F041B9
:1019700082B00446807841F288060007C4F202066D
:1019800002D400202FE000BF56F8300C10F0805831
:101990000BD156F8300C40F0805046F8300C56F819
:1019A000300C00F080500190019847F20007C4F21B
:1019B0000007386840F480703860FFF785FE054600
:1019C0003868C00500F10C81FFF77EFE401B02283D
:1019D000F6D90320B8F1000F05D156F8301C21F0DC
:1019E000805146F8301C2168CA0717D18A071DD4D8
:1019F0004A0723D40A0729D4CA062FD48A0635D425
:101A00004A063BD40A0641D4CA0547D48A034DD4BA
:101A10008A0553D44A0559D467E000BF3268636829
:101A200022F003021A4332608A07E1D53268A368C4
:101A300022F00C021A4332604A07DBD53268E368B1
:101A400022F030021A4332600A07D5D53268236982
:101A500022F0C0021A433260CA06CFD532686369E9
:101A600022F440721A4332608A06C9D53268A369EB
:101A700022F440621A4332604A06C3D53268E369F1
:101A800022F440521A4332600A06BDD53268236AF6
:101A900022F440421A433260CA05B7D53268636AFD
:101AA00022F440321A4332608A03B1D57269A36AC4
:101AB00022F003021A4372618A05ABD53268E36AE9
:101AC00022F440221A4332604A050ED53268236B55
:101AD00022F440121A43B3F5801F326005D156F844
:101AE0007C2C42F4801246F87C2C0A050ED5326814
:101AF000636B22F440021A43B3F5800F326005D1C4
:101B000056F87C2C42F4801246F87C2CCA040ED580
:101B10003268A36B22F040721A43B3F1807F3260C7
:101B200005D156F87C2C42F4801246F87C2C8A04AD
:101B30000ED53268E36B22F040621A43B3F1006FB6
:101B4000326005D156F87C2C42F4801246F87C2C89
:101B50004A040ED53268236C22F040621A43B3F176
:101B6000006F326005D156F87C2C42F4801246F8A2
:101B70007C2C0A040ED53268636C22F040521A4362
:101B8000B3F1805F326005D156F87C2C42F480328C
:101B900046F87C2CCA030ED53268A36C22F0404272
:101BA0001A43B3F1804F326005D156F87C2C42F4D1
:101BB000803246F87C2C49030ED57169E26C21F421
:101BC00040111143B2F5001F716105D156F87C1C1C
:101BD00041F4801146F87C1C02B0BDE8F08100BFE2
:101BE000B06810F4407010D0216D88420BD0B068FE
:101BF000B16820F4407041F48031B160B16821F4E3
:101C00008031B160B060C0070CD1B068216D20F4A4
:101C100040700843B0600020B8F1000F7FF4E3AEDD
:101C2000DBE600BFFFF750FD054641F2883700BFF5
:101C3000B0688007E9D4FFF747FD401BB842F7D9E9
:101C4000C7E600002DE9F04700286DD042F2000AF7
:101C5000C4F2020A0446DAF800000D4600F00F0054
:101C600088420CD2DAF8000020F00F002843CAF8AE
:101C70000000DAF8000000F00F00A84254D12168FB
:101C800041F20808C807C4F2020803D1880740F1EE
:101C9000D880BDE0606802283AD0032840D158F8C7
:101CA000082C920140D5D8F80420D8F8043042F22C
:101CB0000046C3F3031302F00302D8F804700133A3
:101CC000C0F2F406032A04BF47F64006C0F27D16B0
:101CD000B6FBF3F2D8F80430C7F306277A43C3F310
:101CE0004163022707EB4303B2FBF3F24BF20043DD
:101CF000C0F2C4439A4261D9D8F8002012F0F00F24
:101D000051D089075AD5A168002957D14BE000BFAF
:101D100058F8081C89035CBF0120BDE8F08707E084
:101D200058F8081C490503D40120BDE8F08700BF1E
:101D3000D8F8001001F00C0104293FD0D8F80010A9
:101D400001F00C01082939D0D8F8001001F00C017D
:101D50000C2933D1D8F80410D8F8042042F20047F7
:101D6000C2F3031201F00301D8F804300132C0F2CB
:101D7000F407032904BF47F64007C0F27D17B7FBFD
:101D8000F2F1D8F80420C3F306235943C2F34162A9
:101D9000022303EB4202B1FBF2F14BF20042C0F22C
:101DA000C44291420AD9D8F80010082262F3071100
:101DB0004FF00109C8F8001002E000BF4FF0000921
:101DC000D8F8001021F003010843C8F80000FFF71D
:101DD0007BFC064641F28837D8F80000616800F0C5
:101DE0000C00B0EB810F07D0FFF76EFC801BB842F0
:101DF000F2D90320BDE8F0872168880708D4B9F13B
:101E0000000F1ED0D8F8000020F0F00017E000BF4F
:101E1000480705D5D8F8000040F4E060C8F8000095
:101E2000080706D5D8F80000072262F30D20C8F88D
:101E30000000D8F80000A26820F0F0001043C8F8B5
:101E40000000DAF8000000F00F00A8421BD9DAF811
:101E5000000020F00F002843CAF80000FFF734FC10
:101E6000064641F2883700BFDAF8000000F00F00A4
:101E7000A84207D0FFF728FC801BB842F4D9032002
:101E8000BDE8F0872168480707D5D8F80000E26868
:101E900020F4E0601043C8F80000080708D5D8F81F
:101EA0000000216920F4605040EAC100C8F8000039
:101EB000D8F8000042F20041C0F2F40100F00C003A
:101EC000042808462DD0D8F8000000F00C0008289F
:101ED00047F64000C0F27D1023D0D8F8002002F071
:101EE0000C020C2A1CD1D8F80420D8F8043002F0D7
:101EF0000302C3F30313D8F804700133032A08BFA5
:101F00000146B1FBF3F0D8F80410C7F30627C1F37C
:101F100041610222784302EB4101B0FBF1F000E0A5
:101F20000020D8F8001043F65072C1F30311C0F638
:101F30000002515C40F24C0201F01F0120FA01F155
:101F400040F20400C2F200000068C2F20002116018
:101F5000BDE8F047FFF7DCBB40F24C0041F208015E
:101F6000C2F20000C4F202010068096843F6607220
:101F7000C1F30221C0F60002515C01F01F01C8400C
:101F80007047000040F24C0041F20801C2F200002C
:101F9000C4F202010068096843F66072C1F3C2210D
:101FA000C0F60002515C01F01F01C84070470000FC
:101FB00080B541F20C01C4F2020151F8040C42F266
:101FC0000042C0F2F40200F00C000428104608BFE2
:101FD00080BD51F8040C00F00C00082847F64000C2
:101FE000C0F27D1022D051F8043C03F00C030C2BFE
:101FF0001CBF002080BDD1F800C00B680CF0030CA2
:10200000C3F3031E0B680EF1010EBCF1030F08BFF2
:1020100002460968B2FBFEF0C3F30623C1F3416137
:102020000222584302EB4101B0FBF1F080BD0000F9
:102030002DE9F04182B0002800F0068104460078C6
:1020400041F20006C007C4F2020655D1207880078D
:1020500074D42078000700F197802078400700F1C1
:10206000B7802078800600F10781E569002D00F037
:102070003082B06800F00C000C2840F05981012D2E
:1020800000F0E280F068216A00F003028A4240F02A
:10209000DB80626A6FF00F0300F0F00103EB0212C5
:1020A000914240F0D180A16A00F4FE42B2EB012FD0
:1020B00040F0CA80E16A00F07842B2EBC16F40F0B4
:1020C000C380226B0023CFF6E07303EA025200F4D0
:1020D000C001A2F50012914240F0B680616B4FF052
:1020E0007E4202EA016100F0C06001F17E41884257
:1020F00040F0AA80EDE100BFB06800F00C01F0688C
:1021000008295BD0032281F00C0122EA0000084478
:10211000B0FA80F0400951D16068B0F5803F07D037
:10212000B0F5A02F40F0DA80306840F480203060B5
:10213000306840F480303060DBE000BFB068F168A8
:1021400000F00C00042869D001F0030180F00C00BD
:1021500081F002010844B0FA80F040095ED1E168E4
:102160003068002900F0D28040F480703060FFF7C2
:10217000ABFA05463068400500F1FC80FFF7A4FA91
:10218000401B0228F6D92EE16169D6F89400002997
:1021900000F0908040F00100C6F89400FFF794FA38
:1021A000054600BFD6F8940080073FF556AFFFF70D
:1021B0008BFA401B0228F5D915E100BF3068800377
:1021C0007FF544AF606800287FF440AF3CE000BF7B
:1021D000B06D10F0805808D1B06D40F08050B065FF
:1021E000B06D00F080500190019847F20007C4F2F2
:1021F00000073868C0052BD4386840F48070386018
:10220000FFF762FA054600BF3868C00520D4FFF723
:102210005BFA401B0228F7D9E5E000BF30684005B3
:1022200001D5E06880B17068216920F0FE4040EA85
:102230000160706040F20400C2F200000068FFF725
:1022400067FA00283FF405AF012002B0BDE8F08135
:10225000A068012808D0052840F0AA80D6F8900090
:1022600040F00400C6F89000D6F8900040F001005D
:10227000C6F89000A9E000BFA169D6F8980000292F
:1022800000F0808040F00100C6F89800FFF71CFACB
:10229000054600BFD6F8980080073FF5E6AEFFF789
:1022A00013FA401B02284FF00300F3D902B0BDE837
:1022B000F08100BF20F00100C6F89400FFF704FA97
:1022C000054600BFD6F8940080077FF5C6AEFFF73D
:1022D000FBF9401B0228F5D985E000BF31680028D2
:1022E00021F480313160316821F48021316000F0C7
:1022F0007F80FFF7E9F90546306880033FF5A6AE19
:10230000FFF7E2F9401B6428F6D96CE020F48070F6
:102310003060FFF7D9F90546306840057FF599AE82
:10232000FFF7D2F9401B02284FF00300F4D9BDE7B4
:10233000306820F080703060FFF7C6F9022D054646
:102340000CD100BF3068800140F17E80FFF7BCF9FE
:10235000401B02284FF00300F4D9A7E73068800142
:1023600040F1B080FFF7B0F9401B02284FF00300A6
:10237000F4D99BE77068216920F0FE4040EA0160D3
:10238000706066E620F00100C6F89800FFF79CF93F
:10239000054600BFD6F8980080077FF566AEFFF7C8
:1023A00093F9401B02284FF00300F3D97EE700BFEA
:1023B000D6F8901021F00101C6F89010D6F89010D0
:1023C00021F00401C6F8901010B3FFF77DF905461F
:1023D00041F28837D6F8900080072BD4FFF774F9C4
:1023E000401BB842F6D9032002B0BDE8F08100BF1F
:1023F000FFF76AF9054600BF306880037FF526AE17
:10240000FFF762F9401B64284FF00300F4D94DE751
:10241000FFF75AF9054641F2883700BFD6F8900019
:10242000800707D5FFF750F9401BB8424FF0030073
:10243000F4D93BE7B8F1000F7FF413AEB06D20F094
:102440008050B0650DE600BFF06848F20C01C0F2A4
:102450009F1104F1200700EA010C8ECF6FF00F00EE
:10246000D4E90C5400EB02100022CFF6E07241EAEE
:102470000C0102EA05520843A2F500124FF07E4516
:1024800040EA032005EA0465104305F17E4540EA71
:10249000C7602843F060306840F080703060F068BA
:1024A00040F08070F060FFF70FF90446306880015B
:1024B0000FD4FFF709F9001B02284FF00300F5D9EC
:1024C000F4E600BFF0684FF6FC71CFF6EE6108400D
:1024D000F060002002B0BDE8F0810000411E002045
:1024E000B0EB116F1CBF012070474EF21002CEF20C
:1024F000000251604EF62351CEF20001F0230B7022
:10250000072190601160704790F88410012904BF82
:10251000022070472421C0F88810026811681368EF
:1025200023F00103136021F0005300214166136082
:102530002022C0F8882080F88410084670470000E8
:102540007047000070470000B0B590F88420012A61
:1025500004BF0220B0BD2422C0F888200268D0F851
:1025600064E0D2F800C01368BEF1000F23F001034D
:102570001360936823F0606341EA0301916019D00E
:102580009368916843F6A07E490FC0F6000E43F6AB
:10259000A8751EF80140C0F60005695CC3F34263EC
:1025A000E400B4FBF1F11EF80340EB5CE500B5FB81
:1025B000F3F301E001210123A0F86A102021A0F823
:1025C0006830C2F800C0C0F88810002180F884107C
:1025D0000846B0BDB0B590F88420012A04BF02209F
:1025E000B0BD2422C0F888200268D0F864E0D2F898
:1025F00000C01368BEF1000F23F00103136093685D
:1026000023F0604341EA0301916019D09368916817
:1026100043F6A07E490FC0F6000E43F6A8751EF8DB
:102620000140C0F60005695CC3F34263E400B4FBFB
:10263000F1F11EF80340EB5CE500B5FBF3F301E0BC
:1026400001210123A0F86A102021A0F86830C2F807
:1026500000C0C0F88810002180F884100846B0BD82
:1026600070470000704700007047000070B50168B7
:1026700040F62F03CA69044608688E681340202B71
:102680000CD100F0200306F080555B1917D0616F64
:1026900000297BD02046BDE87040084740F60F0374
:1026A0001A420CD00123C1F2000306EA030C40F2E7
:1026B0002013C0F20043034013EB0C0368D1E36E18
:1026C000012B05D112F0100318BF10F010034DD1EB
:1026D000D3020BD516F4800308D04FF480122046A5
:1026E0000A62BDE87040FFF7BDBF00BF110606D506
:1026F00000F0800106F40003C91840F0358251064D
:1027000040F10E8110F0400100F00A81206850E88D
:10271000000F216820F0400041E80002DAB1206893
:1027200050E8000F216820F0400041E8000292B11B
:10273000206850E8000F216820F0400041E80002C6
:102740004AB1206850E8000F216820F0400041E8BD
:102750000002002ADAD120200021C4F88800204697
:10276000A167BDE8704000F0E5BB00BF1020086223
:102770008868400618D4B4F85C00B4F85E10B4F869
:102780005E20002A18BF884240F0068270BD00BF5C
:10279000D30718BF10F4807340F0CE80930706F083
:1027A000010E00F1D580DEE0D4F8800000684168B9
:1027B0008AB2002AEAD0B4F85C309A42E6D2A4F891
:1027C0005E100068800600F19E80206850E8000FCF
:1027D000216820F4807041E80002DAB1206850E8F6
:1027E000000F216820F4807041E8000292B1206857
:1027F00050E8000F216820F4807041E800024AB1DF
:10280000206850E8000F216820F4807041E8000241
:10281000002ADAD1206850E8020F216820F0010078
:1028200041E80202BAB3206850E8020F216820F0A4
:10283000010041E8020272B3206850E8020F2168EB
:1028400020F0010041E802022AB3206850E8020F9C
:10285000216820F0010041E80202002ADAD11AE0E2
:10286000206850E8020F216820F0400041E8020291
:10287000DAB1206850E8020F216820F0400041E8FA
:10288000020292B1206850E8020F216820F0400057
:1028900041E802024AB1206850E8020F216820F0A6
:1028A000400041E80202002ADAD12020C4F88C005E
:1028B0000020E066206850E8000F216820F010003A
:1028C00041E80002DAB1206850E8000F216820F0EA
:1028D000100041E8000292B1206850E8000F216822
:1028E00020F0100041E800024AB1206850E8000FD3
:1028F000216820F0100041E80002002ADAD1D4F863
:102900008000FEF79BF802202067B4F85C00B4F862
:102910005E10401A81B22046BDE87040FFF710BE3D
:10292000110240F1278110F0804100F02381204600
:10293000BDE87040FFF794BE01230B62D4F89030DD
:1029400043F00103C4F89030930706F0010E0AD556
:10295000BEF1000F07D002230B62D4F8903043F091
:102960000403C4F8903053070AD5BEF1000F07D016
:1029700004230B62D4F8903043F00203C4F8903083
:1029800013070CD500F0200353EA0C0307D00823EB
:102990000B62D4F8903043F00803C4F8903013056C
:1029A0000BD510F0806308D04FF400630B62D4F8AD
:1029B000903043F02003C4F89030D4F89030002BCE
:1029C0003FF4E4AE12F020021EBF00F0200006F03B
:1029D000805210EB020040F06181D4F890008968C9
:1029E00000F0280001F04001401807D12046FFF711
:1029F0003BFE0020C4F8900070BD00BF206850E886
:102A0000000F216820F4907041E80002DAB12068DC
:102A100050E8000F216820F4907041E8000292B164
:102A2000206850E8000F216820F4907041E800020F
:102A30004AB1206850E8000F216820F4907041E806
:102A40000002002ADAD14FF6FE70CEF6FF7000BF0A
:102A5000216851E8021F2268014042E80213C3B115
:102A6000216851E8021F2268014042E8021383B145
:102A7000216851E8021F2268014042E8021343B175
:102A8000216851E8021F2268014042E80213002B2E
:102A9000DED1E06E012824D1206850E8000F2168C3
:102AA00020F0100041E80002DAB1206850E8000F81
:102AB000216820F0100041E8000292B1206850E83F
:102AC000000F216820F0100041E800024AB12068A0
:102AD00050E8000F216820F0100041E80002002AB1
:102AE000DAD12020C4F88C000020E06621686067FD
:102AF000886840064AD500BF206850E8020F216868
:102B000020F0400041E80202DAB1206850E8020FEC
:102B1000216820F0400041E8020292B1206850E8AC
:102B2000020F216820F0400041E802024AB120680B
:102B300050E8020F216820F0400041E80202002A1C
:102B4000DAD1D4F8800008B343F25D41C0F6000149
:102B50008163FDF7ABFF00283FF418AED4F8800086
:102B6000816BBDE870400847A16F00297FF492ADEA
:102B70000CE600BFD1017FF509AEB0F1FF3FC8BF41
:102B800070BD2046BDE87040FFF7DCBC2046BDE8C4
:102B90007040FFF769BD00BF401A00BF216851E8CF
:102BA000001F226821F4907142E80013DBB1216814
:102BB00051E8001F226821F4907142E8001393B19C
:102BC000216851E8001F226821F4907142E8001347
:102BD0004BB1216851E8001F226821F4907142E84E
:102BE0000013002BDAD14FF6FE71CEF6FF7100BF55
:102BF000226852E8022F23680A4043E80226C6B141
:102C0000226852E8022F23680A4043E8022686B170
:102C1000226852E8022F23680A4043E8022646B1A0
:102C2000226852E8022F23680A4043E80226002E59
:102C3000DED12021C4F88C100021E166616700BF5D
:102C4000216851E8001F226821F0100142E80013BA
:102C5000DBB1216851E8001F226821F0100142E831
:102C6000001393B1216851E8001F226821F0100180
:102C700042E800134BB1216851E8001F226821F09F
:102C8000100142E80013002BDAD1022281B2204663
:102C90002267BDE87040FFF753BC00BF626F002A97
:102CA0003FF49BAE20469047216896E610B5D8B118
:102CB0000446D0F8880028B9002084F88400204613
:102CC00000F026F82420C4F888002068A16A026871
:102CD00022F00102026011B1204600F093FA204672
:102CE00000F0C4FB012801D1012010BD2168486813
:102CF00020F490404860886820F02A0088600868C6
:102D000040F0010220460A60BDE8104000F0EEBA33
:102D100010B59AB00446684604305021FDF7B0FA69
:102D2000206844F20041C4F20001884202D01AB087
:102D300010BD00BF022468460094FEF717FE00286D
:102D400018BFFDF747FE41F24C00C4F20200C16813
:102D500041F40031C160C16801F400311591159949
:102D6000016841F001010160006815A900F001004F
:102D7000159015980C20CDE915040020CDE9170019
:102D8000072019904FF09040FEF7C2FB262000214B
:102D90000022FEF711FD2620FEF7FAFC1AB010BD46
:102DA0002DE9F0410446D0F8880020281CBF0220FD
:102DB000BDE8F0810D4600294FF0010000F0B88019
:102DC0001646002A08BFBDE8F0810020C4F8900034
:102DD00021209846C4F88800FEF776FCA4F85460D9
:102DE000A4F85660A1680646B1F5805F02D120695B
:102DF00000286BD02F460025B4F8560000286BD071
:102E000018F101001CD0B8F1000F3DD121680BE092
:102E100017F8010B8862B4F856000138A4F8560080
:102E2000B4F85600002858D0C869000640F17A80EE
:102E3000002FEDD135F8020B00276FF35F20E9E793
:102E4000216802E0C869000609D4C869000606D4F2
:102E5000C86900065CBFC8695FEA0060F2D51FB1AF
:102E600017F8010B05E000BF35F8020B00276FF3E0
:102E70005F208862B4F856000138A4F85600B4F810
:102E800056000028E1D128E0216800BFC86900068B
:102E900008D4FEF719FC801B404545D82168086816
:102EA000F4E700BF17B117F8010B04E035F8020B87
:102EB00000276FF35F208862B4F856000138A4F849
:102EC0005600B4F856000028E0D106E00027B4F818
:102ED000560000287FF494AF2168C86940061FD4CB
:102EE000B8F1000F1ED018F101000FD1C8694006DB
:102EF00016D4C869400613D4C869400610D4C869FE
:102F000040064FF00000F1D50FE000BFFEF7DCFBFC
:102F1000801B404508D820680168C0694006F5D587
:102F2000002002E0FEF7D0FB03202021C4F8881027
:102F3000BDE8F08170470000FEE7000070B540F288
:102F4000081046F20041C2F20000C4F20001002263
:102F5000C0E90012112101234FF0060C4FF0030EBF
:102F600008240A250526C0E90222C0F80F20416185
:102F70008361C0F81CC0C0F820E0C0E90943C0E983
:102F80000B56C0E90D22C263FEF77CF8002808BF8B
:102F900070BDBDE87040FDF71DBD000070B540F28A
:102FA0006C1046F60001C2F20000C4F200014FF4BA
:102FB0004073002280E80E00112101234FF0060C1F
:102FC0004FF0030E08240A250526C260C0F80F2022
:102FD00041618361C0F81CC0C0F820E0C0E909432A
:102FE000C0E90B56C0E90D22C263FEF74BF800287A
:102FF00008BF70BDBDE87040FDF7ECBCB0B586B051
:10300000002441F24C000594C4F202000168002241
:1030100041F02001016001684FF4807501F020014A
:1030200000910099016841F001010160016801F01F
:10303000010100910099016841F0020101600068FE
:103040004FF4807100F00200009000984FF0904023
:10305000FEF734FB0120CDE9020401A94FF09040B6
:1030600001950494FEF754FA06B0B0BD80B540F265
:10307000D01044F20041C2F20000C4F2000100236B
:103080004FF00C0C4FF4E13280E80E00C0E903333E
:10309000C0E905C3C0E90733C0E90933FFF706FEFD
:1030A000002818BFFDF796FC40F2D010C2F20000D5
:1030B0000021FFF78FFA002818BFFDF78BFC40F2C4
:1030C000D010C2F200000021FFF73EFA002818BF1E
:1030D000FDF780FC40F2D010C2F20000FFF714FAB6
:1030E000002808BF80BDBDE88040FDF773BC00002C
:1030F000FEE70000FEE700007047000030EEC05A17
:1031000090ED050A90ED001A35EE406A90ED012A27
:1031100021EE061A30EE006A90ED067A90ED023A42
:1031200035EE466A25EE022A36EE076A90ED034A2E
:1031300023EE063A80ED060A31EE020A30EE031A5B
:1031400090ED070A34EE011AB4EE401AF1EE10FACF
:1031500080ED045A80ED055A0ADC90ED082AB0EEA5
:10316000410AB4EE421AF1EE10FAB8BFB0EE420ACC
:1031700080ED030A80ED090A7047000080B540F237
:1031800064204AF200034AF20001C2F20000002269
:10319000C4F28C63CCF28C61C0E91023C0E9121236
:1031A00000210023C4F28C21C4F2600345F2000E1A
:1031B000C0E9001345F2000146F2666CC4F2C36E2A
:1031C000CCF2C36100F12003C3F6667CC0E90222A1
:1031D000C0E90422C0E9062E83E80610C0E90B22EC
:1031E000C0E90D22C26380BD70470000FEF772BACD
:1031F0004EF68850CEF20000016841F47001016083
:103200007047000080B5816A0A070DD4CA0716D13D
:103210008A071FD44A0728D4CA0631D48A063AD46A
:103220004A0658D542E000BF0268D0F838C053685B
:1032300023F4004343EA0C035360CA07E8D0026852
:10324000D0F82CC0536823F4003343EA0C035360D6
:103250008A07DFD50268D0F830C0536823F4803382
:1032600043EA0C0353604A07D6D50268D0F834C04D
:10327000536823F4802343EA0C035360CA06CDD578
:103280000268D0F83CC0936823F4805343EA0C03EF
:1032900093608A06C4D50268D0F840C0936823F4CE
:1032A000005343EA0C0393604A0614D50268D0F831
:1032B00044C05368BCF5801F23F4801343EA0C0319
:1032C000536008D1D2F804C0D0F848E02CF4C00311
:1032D00043EA0E035360090658BF80BD0168C06C05
:1032E0004A6822F400221043486080BDB0B582B025
:1032F00004460020C4F89000FEF7E6F92168054670
:103300000A68120737D56FF07E4C20464FF4001143
:1033100000222B46CDF800C000F008FA50B300BFE1
:10332000206850E8000F216820F0800041E800028A
:10333000DAB1206850E8000F216820F0800041E8F1
:10334000000292B1206850E8000F216820F0800050
:1033500041E800024AB1206850E8000F216820F0DF
:10336000800041E80002002ADAD12020C4F8880059
:1033700060E000BF21680868400761D56FF07E4CAF
:1033800020464FF4800100222B46CDF800C000F00B
:10339000CDF9002854D000BF206850E8000F216804
:1033A00020F4907041E80002E2B1206850E8000F7C
:1033B000216820F4907041E800029AB1206850E83A
:1033C000000F216820F4907041E8000252B120689B
:1033D00050E8000F216820F4907041E80002002AB4
:1033E000DAD100BF206850E8020F216820F0010008
:1033F00041E80202DAB1206850E8020F216820F0AB
:10340000010041E8020292B1206850E8020F2168F1
:1034100020F0010041E802024AB1206850E8020FA2
:10342000216820F0010041E80202002ADAD12020C0
:10343000C4F88C000320002184F8841002B0B0BDD1
:103440002020C4F88800C4F88C000020E0662067C3
:10345000002184F8841002B0B0BD0000806A002111
:10346000A0F85E10A0F85610FFF7FEB870B505463C
:1034700005F108041ECC0068194341EA0403EE6913
:10348000046846F6F311CCF6FF712140194331432D
:103490000160416848F2000C21F440511143416041
:1034A000AA69C4F2000C60451CBF296A0A438168FE
:1034B0004FF2FF43C1F2FF13194011438160C16A0B
:1034C000D5F824E021F00F0141EA0E01C16244F673
:1034D000FF71C4F2000188424FF0100318DC44F27F
:1034E0000041C4F20001884228D044F60001C4F231
:1034F000000188422AD044F60041C4F2000188420B
:1035000042D141F28801C4F2020109688B0933E01B
:1035100045F20001C4F2000188421FD0604525D069
:1035200043F60001C4F2010188422DD141F2880125
:10353000C4F202010B6879A222E000BF41F28801C7
:10354000C4F2020109688B0816E000BF41F288014D
:10355000C4F2020109680B090EE000BF41F28801C4
:10356000C4F2020109680B0A06E000BF41F28801BB
:10357000C4F2020109688B0A43F69072C0F6000299
:1035800003F0030152F82130604542F20040C0F2DE
:10359000F40015D0B6F5004F24D1082B4FF00101EF
:1035A00000F2B380DFE803F0065E6CB164B1B1B144
:1035B0006A0000BFFEF7D0FC002856D15CE000BFD7
:1035C000082B4FF0010100F2A080DFE803F0059E18
:1035D000259E1D9E9E9E2300FEF7BEFCC0B1D5F821
:1035E00024E019E0082B4FF0010100F28E80DFE8A3
:1035F00003F00565738C6B8C8C8C7100FEF7ACFC52
:1036000000285ED164E000BFFEF7D2FC0028E6D1BE
:1036100000217AE04FF4004043F66871C0F60001E3
:1036200031F81E106A68B0FBF1F002EB42018842EB
:103630004FF0010169D31303984266D8010E0002CE
:1036400010EB520041F100010023FCF7E1FD4FF6C1
:103650000052A0F54071C0F20F0291424FD30121F8
:1036600053E000BFFEF78EFC30B1D5F824E007E050
:10367000FEF79EFC0028F8D1002146E04FF4004000
:1036800043F66871C0F6000131F81E106A68B0FB9D
:10369000F1F0510801EB4000B0FBF2F04FF6EF7291
:1036A000A0F11001914207D84FF6F0710140C0F32C
:1036B0004200084423E000BF012126E0FEF762FC3F
:1036C00030B1D5F824E007E0FEF772FC0028F8D10D
:1036D00000211AE04FF4004043F66871C0F6000183
:1036E00031F81E104FF6EF72B0FBF1F0696800EB95
:1036F0005100B0FBF1F0A0F11001914204D829680B
:10370000C860002101E000BF01214FF00110A86650
:10371000002208466A67AA6770BD00BF010000006A
:103720000400000002000000080000002DE9F04144
:10373000804600681546C2690E461140891BB1FAE1
:1037400081F14909A94223D1069C2CB3611C29D1DE
:10375000C1693140891BB1FA81F14909A94217D1E8
:10376000C1693140891BB1FA81F14909A9420FD1E0
:10377000C1693140891BB1FA81F14909A94207D1D8
:10378000C1693140891BB1FA81F14909A942DFD0F1
:103790000020BDE8F08100BFFDF796FF0320BDE8E3
:1037A000F08100BF1F4607E0C0693040801BB0FABF
:1037B00080F04009A842EBD1FDF786FFC01BA04274
:1037C00000F2AE80D8F8000001684907ECD5402E21
:1037D000EAD0802EE8D0C169090700F1A580C1694F
:1037E0000905E1D54FF400610162D8F8000050E806
:1037F000000FD8F8001020F4907041E800020AB3DE
:10380000D8F8000050E8000FD8F8001020F49070AD
:1038100041E80002B2B1D8F8000050E8000FD8F833
:10382000001020F4907041E800025AB1D8F800006E
:1038300050E8000FD8F8001020F4907041E8000222
:10384000002AD2D14FF6FE70CEF6FF70D8F80010E5
:1038500051E8021FD8F80020014042E80213F3B1FA
:10386000D8F8001051E8021FD8F80020014042E8C3
:103870000213A3B1D8F8001051E8021FD8F80020B5
:10388000014042E8021353B1D8F8001051E8021F7A
:10389000D8F80020014042E80213002BD6D1D8F816
:1038A0006C0001282CD1D8F8000050E8000FD8F89F
:1038B000001020F0100041E800020AB3D8F8000020
:1038C00050E8000FD8F8001020F0100041E8000286
:1038D000B2B1D8F8000050E8000FD8F8001020F07E
:1038E000100041E800025AB1D8F8000050E8000F7B
:1038F000D8F8001020F0100041E80002002AD2D1D0
:1039000020200021C8F88C00C8F86C10C8F874108A
:10391000C8F89000032088F88410BDE8F08100BF4B
:103920000320BDE8F08100BF08210162D8F8000043
:1039300050E8000FD8F8001020F4907041E8000221
:103940000AB3D8F8000050E8000FD8F8001020F4AF
:10395000907041E80002B2B1D8F8000050E8000FC2
:10396000D8F8001020F4907041E800025AB1D8F85D
:10397000000050E8000FD8F8001020F4907041E8E3
:103980000002002AD2D14FF6FE70CEF6FF70D8F8B2
:10399000001051E8021FD8F80020014042E802134D
:1039A000F3B1D8F8001051E8021FD8F80020014008
:1039B00042E80213A3B1D8F8001051E8021FD8F86A
:1039C0000020014042E8021353B1D8F8001051E83A
:1039D000021FD8F80020014042E80213002BD6D184
:1039E000D8F86C0001282CD1D8F8000050E8000F5E
:1039F000D8F8001020F0100041E800020AB3D8F80F
:103A0000000050E8000FD8F8001020F0100041E846
:103A10000002B2B1D8F8000050E8000FD8F800104A
:103A200020F0100041E800025AB1D8F8000050E838
:103A3000000FD8F8001020F0100041E80002002A22
:103A4000D2D12020C8F88C0000200821C8F86C00D2
:103A5000C8F87400C8F8901088F884000120BDE808
:103A6000F081000040F2D010C2F20000FEF7FEBD6F
:103A7000FEE700000000000080B588B06846002125
:103A8000FCF7C6FFBDF80000A0F64740FCF7E4FCD9
:103A90009FED450B53EC102BFCF7FDFB9FED440B0A
:103AA00053EC102BFCF7F7FBFCF7FAFC9FED422AD6
:103AB00000EE100A80EE021A4FF4B471BDEEC11A86
:103AC00011EE100A484301EE100AB8EEC11A30EEAA
:103AD000411A9FED3B0A40F2B000B4EE401AC2F228
:103AE0000000F1EE10FA80ED031A03DD9FED332A9A
:103AF00007E000BF9FED333AB4EE431AF1EE10FA3F
:103B000003DC31EE021A80ED031A90ED022A32EE48
:103B1000411A9FED2D2AB0EEC13AB4EE423AF1EED1
:103B200010FA23DD9FED253A31EE034AB0EEC45A78
:103B3000B4EE425AF1EE10FA1ADD9FED1F4A31EE53
:103B4000044AB0EEC45AB4EE425AF1EE10FA13DD54
:103B500031EE001AB4EE421A4FF0FF3131EE030A93
:103B6000F1EE10FAC8BFB0EE401A08E0012106E0FD
:103B70000121B0EE441A02E00121B0EE441A80EDBA
:103B8000011A90ED000A01EE101A40F25002B8EE50
:103B9000C11AC2F2000220EE010A0320116000F0F7
:103BA000DDF808B080BD00BF000000000000203F2D
:103BB00000000000008076400000B4430000B4C361
:103BC00000003443000034C30000B44280B54EF21C
:103BD000180140F20412CEF20001C2F2000251F8C4
:103BE00004CC1268002302FB00FE08680AE000BF54
:103BF00003449B1A904298BF63447345104628BF04
:103C000080BD00BF0A689042F2D10A689042EFD1AD
:103C10000A689042ECD10A689042F3D0E8E70000CD
:103C200080B582B0019040F2D010C2F2000001A92C
:103C300001224FF0FF33FFF7B3F8019802B080BDC7
:103C40009CB0FDF755FD002400201494CDE91244EA
:103C5000CDE91044FDF7ECFD01200E904FF48030CB
:103C600005210F9002201791442115900325CDE9DD
:103C70001810CDE91A000EA81695FEF7D9F928B14B
:103C8000EFF3108072B600BFFEE700BF0F20CDE952
:103C9000090509A80421CDE90B440D94FDF7D2FFD5
:103CA00020B1EFF3108072B6FEE700BFFFF7A6F970
:103CB000FFF744F9FFF772F9FFF7D8F9FCF786FD33
:103CC000FFF75CFAB0EE000A032000F039F89FED30
:103CD000190A032000F052F89FED170A032000F0A4
:103CE0005DF8FDF7F1FC40F2B426C2F2000601AC2B
:103CF00012A5C6E90000C6E9020000BFFDF7E4FC1A
:103D000071683060411A022903D3FFF7B5FE3068AD
:103D10007060B168401AB0F5FA7FEFD920460021F3
:103D2000FCF776FEBDF80410284600F047F830682E
:103D3000B060E3E7000096430000FA43256400000A
:103D400040F2C403010210EE102AC2F2000303EB9A
:103D5000C00312BA08465A60FCF7A0BC010240F248
:103D6000C403043110EE102AC2F2000303EBC003B7
:103D700012BA08465A60FCF791BC0000010240F2FA
:103D8000C403143110EE102AC2F2000303EBC00387
:103D900012BA08465A60FCF781BC0000010240F2EA
:103DA000C403163110EE102AC2F2000303EBC00365
:103DB00012BA08465A60FCF771BC00000FB4054BFC
:103DC00010B503A9044A029800F018F810BC5DF879
:103DD00014FB0000213C00080000002002E008C89D
:103DE000121F08C1002AFAD170477047002001E075
:103DF00001C1121F002AFBD1704700002DE9FF4FBF
:103E000089B09B460446002506E025280BD05A467B
:103E10000B999047641C6D1C20780028F5D10DB0DB
:103E20002846BDE8F08F0027B8460122474900E048
:103E3000074314F8013F203B02FA03F00842F7D190
:103E400020782E2819D114F8010F47F004072A28EA
:103E50000ED06FF02F022078A0F1300109290CD884
:103E600008EB880102EB410100EB0108641CF2E75A
:103E70000A98641C50F8048B0A9020780028CED051
:103E8000642808D0692806D075281ED05A460B9998
:103E900090476D1C58E00A994FF00A0901C90A9130
:103EA000002802DA40422D2102E0390504D52B21F9
:103EB0008DF82010012103E0F90704D02021F7E755
:103EC0008A4608AE0DE00021FAE70A994FF00A0988
:103ED00001C90A91F7E74946FCF7FEFA303106F8C6
:103EE000011D0028F7D1ADEB060000F1200978078D
:103EF00001D44FF00108C84502DDA8EB090000E03D
:103F000000208046002706E008A85A46C05D0B99AD
:103F100090476D1C7F1C5745F6DB04E030205A4665
:103F20000B9990476D1CB8F10001A8F10108F5DC70
:103F300005E016F8010B5A460B9990476D1CB9F134
:103F40000001A9F10109F4DC641C65E709280100FE
:103F50000000000000000000010203040607080939
:103F6000000000000102030401000200040006003A
:103F700008000A000C001000200040008000000132
:103F80000001020304050607080C10141820304035
:103F90000000000004000000020000000800000013
:103FA00001010103070100000804020408010101E6
:103FB000D03F00080000002058000000DC3D000851
:103FC000284000085800002070060000EC3D000862
:103FD00000000000100000000100000000000000D0
:103FE000C800002001000000D000002002000000F6
:103FF000D800002003000000E000002004000000C2
:10400000E800002005000000F0000020060000008D
:10401000F800002007000000000100200024F40048
:08402000010000000000000097
:04000005080001D915
:00000001FF
